:1000000000000420C1010000ED010000ED0100002E
:10001000ED010000ED010000ED010000ED01000028
:10002000ED010000ED010000ED010000ED01000018
:10003000ED010000EC010000ED010000ED01000009
:10004000ED010000ED010000ED010000ED010000F8
:10005000ED010000ED010000ED010000ED010000E8
:10006000ED010000ED010000ED010000ED010000D8
:10007000ED010000ED010000ED010000ED010000C8
:10008000ED010000ED010000ED010000ED010000B8
:10009000ED010000ED010000ED010000ED010000A8
:1000A000ED010000ED010000ED010000ED01000098
:1000B000ED010000ED010000ED010000ED01000088
:1000C000ED010000ED010000ED010000ED01000078
:1000D000ED010000ED010000ED010000ED01000068
:1000E000ED010000ED010000ED010000ED01000058
:1000F000ED010000ED010000ED010000ED01000048
:10010000ED010000ED010000ED01000010B5054C0F
:10011000237833B9044B13B10448AFF300800123B3
:10012000237010BD68000020000000002C030000B8
:1001300008B5034B1BB103490348AFF3008008BD6A
:10014000000000006C0000202C030000154B002B69
:1001500008BF134B9D46A3F5803A00218B460F46FE
:100160001348144A121A00F0BDF80F4B002B00D0B0
:1001700098470E4B002B00D0984700200021040028
:100180000D000D48002802D00C48AFF3008000F0AD
:1001900085F82000290000F067F800F06BF800BF38
:1001A0000000080000000420000000000000000023
:1001B0006800002084000020000000000000000013
:1001C000064880470649074A074B9A42BEBF51F886
:1001D000040B42F8040BF8E7FFF7B8FFF101000049
:1001E000380300000000002068000020FEE700BF88
:1001F000064B074A9A60054BD3F88830034A43F40C
:100200007003C2F8883000BF704700BF00ED00E007
:100210000000000088B0124A04AB07CA83E8070058
:10022000104A01AB07CA83E8070004AB0793079B9A
:10023000D3ED027AB7EE007A77EEC77A079BC3ED6B
:10024000027A01AB0793079BD3ED027AB7EE007AEF
:1002500077EE877A079BC3ED027A00BF08B070473C
:10026000100300001C03000008B5FFF7D3FF0023B4
:10027000184608BD08B5074B044613B10021AFF37B
:100280000080054B1868836A03B19847204600F048
:1002900031F800BF000000002803000070B50D4ECB
:1002A0000D4CA41BA4100025A54209D10B4E0C4CEB
:1002B00000F022F8A41BA4100025A54205D170BDB2
:1002C00056F8253098470135EEE756F8253098471F
:1002D0000135F2E76000002060000020600000208F
:1002E0006400002002440346934200D1704703F8A3
:1002F000011BF9E7FEE700BFF8B500BFF8BC08BC7A
:100300009E467047F8B500BFF8BC08BC9E467047D3
:100310000000000002000000CDCC8C400400000072
:10032000000000000000004000000020000000006D
:080330001CFEFF7F010000002C
:1003380000000000000000000000000000000000B5
:1003480000000000000000000000000000000000A5
:100358000000000000000000000000000000000095
:100368000000000000000000000000000000000085
:100378000000000000000000000000000000000075
:100388000000000000000000000000000000000065
:08039800310100000D0100001D
:04000003000001C137
:00000001FF
