:1000000000000420C1010000ED010000ED0100002E
:10001000ED010000ED010000ED010000ED01000028
:10002000ED010000ED010000ED010000ED01000018
:10003000ED010000EC010000ED010000ED01000009
:10004000ED010000ED010000ED010000ED010000F8
:10005000ED010000ED010000ED010000ED010000E8
:10006000ED010000ED01000079400000ED0100000D
:10007000ED010000ED010000ED010000ED010000C8
:10008000ED0100007143000041400000ED0100005F
:10009000ED010000ED010000ED010000ED010000A8
:1000A000ED010000ED010000ED0100003948000005
:1000B000ED010000ED010000ED010000ED01000088
:1000C000ED010000ED010000ED010000ED01000078
:1000D000ED010000ED010000ED010000ED01000068
:1000E000ED010000ED010000D9430000ED0100002A
:1000F000ED010000ED010000ED010000ED01000048
:10010000ED010000ED010000ED01000010B5054C0F
:10011000237833B9044B13B10448AFF300800123B3
:10012000237010BDAC00002000000000445400000B
:1001300008B5034B1BB103490348AFF3008008BD6A
:1001400000000000B000002044540000154B002BBC
:1001500008BF134B9D46A3F5803A00218B460F46FE
:100160001348144A121A04F0AFFE0F4B002B00D0B4
:1001700098470E4B002B00D0984700200021040028
:100180000D000D48002802D00C48AFF3008004F0A9
:1001900077FE2000290004F0D3FD04F05DFE00BFCF
:1001A0000000080000000420000000000000000023
:1001B000AC0000205C0100200000000000000000F6
:1001C000064880470649074A074B9A42BEBF51F886
:1001D000040B42F8040BF8E7FFF7B8FFE502000054
:1001E0005054000000000020AC000020FEE700BFDB
:1001F00080B582B000AF00F025F878600A4BD3F8E4
:1002000008311B0AC3F308033B603B6801337A687B
:10021000B2FBF3F37B60054A7B6813607B6818468A
:100220000837BD4680BD00BF00400E4008000020DA
:1002300080B400AF024B1846BD465DF8047B7047A2
:10024000005A620280B483B000AF1C4BD3F89430E4
:1002500003F00703023B032B1BD801A252F823F043
:100260008102000079020000710200008902000092
:10027000134B1B687B6010E04FF400437B600CE085
:10028000104B1B687B6008E00F4B1B685B087B60B2
:1002900003E00D4B1B687B6000BF084BD3F80031B7
:1002A0001B0A03F01F0301337A68B2FBF3F318460D
:1002B0000C37BD465DF8047B704700BF00400E4020
:1002C00004000020000000200C00002080B400AFDB
:1002D000034B1B681846BD465DF8047B704700BFA2
:1002E0000000002080B400AF074B084A9A60064B1C
:1002F000D3F88830044A43F47003C2F8883000BF52
:10030000BD465DF8047B704700ED00E00000000092
:1003100080B400AF4FF400431846BD465DF8047B3F
:10032000704780B400AF4FF47A731846BD465DF84D
:10033000047B704780B400AF034B1B681846BD4672
:100340005DF8047B704700BF0400002080B483B0D8
:1003500000AF78603960FEE780B582B000AF7860AA
:100360007B681F2B04D940F22F110548FFF7EEFFE1
:1003700001227B6802FA03F318460837BD4680BDA8
:10038000004F000080B586B000AFF860B9607A60B9
:10039000BB681F2B03D991210848FFF7D7FFFB68E3
:1003A00003F10473DA00BB6813449B007B617B6933
:1003B0007A681A6000BF1837BD4680BD684F0000DC
:1003C00080B485B000AF786039607B6803F1047356
:1003D000DA003B6813449B00FB60FB681B6818460F
:1003E0001437BD465DF8047B7047000080B400AF51
:1003F000064B1B6803F04003002B01D1012300E0F2
:1004000000231846BD465DF8047B70473C300E4023
:1004100080B500AFFFF7EAFF034683F00103DBB2CC
:10042000002B08D100BF12210448FFF7C9FF034683
:10043000002BF8D100E000BF80BD00BF04300E40AB
:1004400080B500AFFFF7E4FF034B5B681B0C03F0C4
:100450000303DBB2184680BD00300E4080B584B087
:1004600000AF78600123FB607B68124A934204D896
:100470000023FB600023BB6008E07B680E4A9342C8
:1004800002D80123BB6001E00223BB60FA6810219F
:100490000A48FFF777FF094BD3F8003123F0807249
:1004A000BB681B0605491343C1F8003100BF103774
:1004B000BD4680BD0048E8010090D00300400E40DA
:1004C00080B483B000AF054B1B687B607B68184627
:1004D0000C37BD465DF8047B704700BF100000205C
:1004E00080B582B000AFFFF7ADFE7860064BD3F861
:1004F00000311B0A03F01F0301337A6802FB03F388
:1005000018460837BD4680BD00400E4080B582B019
:1005100000AF0F4800F068FC0346FB70FB78072B28
:1005200005D0092B07D1FFF78DFE78600BE0FFF7B0
:10053000C7FF786007E000237B6041F2EC010548CB
:10054000FFF704FF00BF7B6818460837BD4680BD33
:1005500006000E003050000080B584B000AF786017
:100560007B68002B1CD1204800F03EFC0346FB7248
:1005700000BFFB7A013B072B28D801A252F823F0D9
:10058000AF050000CD050000CD050000BD05000051
:10059000CD050000CD050000B5050000C505000033
:1005A00041F20C111148FFF7D1FE002317E00023A0
:1005B000FB6013E0FFF784FFF8600FE0FFF786FEB3
:1005C000F8600BE0FFF78CFFF86007E00023FB60AA
:1005D00041F223110548FFF7B9FE00BFFB6818463A
:1005E0001037BD4680BD00BFB8003200305000005B
:1005F00080B584B000AF78603960204B5B6803F051
:100600004073FB600023BB6012E01D4ABB68DB0047
:1006100013441A793B68DBB29A4206D1184ABB6888
:1006200052F833307A689A4206D9BB680133BB600E
:10063000BB68042BE9D900E000BFBB68052B07D1DC
:100640000323FB6041F22A210E48FFF77FFE05E0FD
:100650000B4ABB68DB0013445B79FB60FB681B063D
:10066000FB60064B5B6823F040720449FB68134350
:100670004B6000BF1037BD4680BD00BF00000E407C
:10068000445000003050000080B582B000AF0E4BE7
:100690001B6C002B14BF01230023FB710A4B41F696
:1006A00071321A64FFF7C4FD034600211846FFF7B4
:1006B0009FFFFB79002B02D0034B00221A6400BF7E
:1006C0000837BD4680BD00BF00000E4080B584B035
:1006D00000AF786039600C4B1B6C002B14BF0123FA
:1006E0000023FB73084B41F671321A64396878684D
:1006F000FFF77EFFFB7B002B02D0034B00221A6426
:1007000000BF1037BD4680BD00000E4080B487B0EA
:1007100000AF78600F237B617B6803333B617B69AB
:10072000FB60FA683B69934228BF1346BB60BB6815
:100730001B07BB60BB6818461C37BD465DF8047BD1
:100740007047000080B400AF044B5B6A1B0903F0E4
:1007500003031846BD465DF8047B704700400E4019
:1007600080B483B000AF7860074B5B6A23F030023F
:100770007B681B01044913434B6200BF0C37BD4625
:100780005DF8047B704700BF00400E4090B585B017
:1007900000AF78600023BB607B683C4A93420BD07B
:1007A0003B4A934208D03B4A934205D041F22A315A
:1007B0003948FFF7CBFD00E000BF786800F014FB7C
:1007C0000346FB607B68314A93420CD0304A934227
:1007D00010D0304A934214D1304BD3F8803003F01C
:1007E0000703FB6013E02D4BD3F8843003F00703BD
:1007F000FB600CE0294BD3F8883003F00703FB6063
:1008000005E041F259312448FFF7A0FD00BFFB6825
:10081000042B2ED801A252F823F000BF6D0800006F
:1008200031080000390800004908000041080000B4
:10083000FFF76EFDB86024E0FFF77CFDB86020E0B4
:10084000FFF76FFDB8601CE0FFF7FCFC0446134B9C
:10085000D3F800311B0E03F0010301331846FFF7F4
:100860007BFD0346B4FBF3F3BB600AE00023BB60EF
:1008700007E00023BB6041F2AB310748FFF766FD9C
:1008800000BFBB6818461437BD4690BD030020006A
:100890000500240002001E003050000000400E4001
:1008A00080B483B000AF78600A4BD3F8443103F0D2
:1008B0000103002B08D100BF064BD3F840217B6811
:1008C0001340002BF8D100E000BF0C37BD465DF8A7
:1008D000047B704700400E4080B400AF00BFBD46AF
:1008E0005DF8047B704780B400AF00BFBD465DF883
:1008F000047B704780B582B000AF7860786800F004
:1009000093F90346013318460837BD4680BD000001
:1009100080B586B000AF78600B46FB7000233B616A
:100920007B681B0A03F00F03013B092B32D801A29D
:1009300052F823F05D0900006909000095090000E4
:1009400095090000630900006F09000079090000A3
:1009500095090000830900008F0900001A4B7B6194
:100960001EE01A4B7B611BE0194B7B6118E0194BB1
:100970007B6101233B6113E0174B7B6110233B61DB
:100980000EE0164B7B614FF480333B6108E0144B63
:100990007B6105E041F2C7711248FFF7D7FC10E018
:1009A0007B681B0B03F01F03FB603B69002B02D02D
:1009B0003869FFF775FFFB781A46F9687869FFF721
:1009C000E1FC1837BD4680BD00400E40B0400E40EF
:1009D000C0400E40E0400E40E8400E40F0400E4067
:1009E00050410E403050000090B585B000AF7860A7
:1009F0007B6803F47813B3F5B01F00F09480B3F56F
:100A0000B01F21D8B3F5202F58D0B3F5202F08D828
:100A1000B3F5003F56D0B3F5802F40D0002B3AD02D
:100A2000EBE0B3F5602F00F0D080B3F5602F03D872
:100A3000B3F5402F55D0E0E0B3F5801F00F0C9803A
:100A4000B3F5A01F61D0D8E0B3F5101F00F0B88057
:100A5000B3F5101F0BD8B3F5F01F51D0B3F5001F3D
:100A600000F08280B3F5D01F00F08380C5E0B3F5BD
:100A7000401F00F09180B3F5401F03D8B3F5381F35
:100A800063D0BAE0B3F5481F00F0A780B3F5781F34
:100A900000F0A880B1E0FFF7D5FBF860B5E0FFF704
:100AA000D1FBF8605B4BD3F80C311B0AC3F308038E
:100AB0000133FA68B2FBF3F3FB60A6E0FFF7C2FB79
:100AC000F860A2E0FFF7BEFBF860524BD3F80831A4
:100AD0001B0AC3F308030133FA68B2FBF3F3FB60AC
:100AE00093E0FFF7AFFBF8604A4BD3F814311B0AD1
:100AF00003F01F030133FA68B2FBF3F3FB6084E0F9
:100B00004548FFF743FEF8607FE04448FFF73EFEAC
:100B1000F860404BD3F8303103F00303FA6822FA4F
:100B200003F3FB6071E03C48FFF730FEF860394B9F
:100B3000D3F8203103F00F031846FFF70DFC0246EF
:100B4000FB68B3FBF2F3FB605FE03348FFF71EFE88
:100B5000F860304BD3F820311B0903F00303FA6827
:100B600022FA03F3FB6050E02D48FFF70FFEF86018
:100B70004BE02B48FFF70AFEF860264BD3F82831EC
:100B80001B0903F003031846FFF7E6FB0246FB6868
:100B9000B3FBF2F3FB6038E02148FFF7F7FDF860A4
:100BA0001C4BD3F828311B0A03F003030433184607
:100BB000FFF7D2FB0246FB68B3FBF2F3FB6024E0D5
:100BC0001648FFF7E3FDF8601FE0FFF79FFCF860B1
:100BD0001BE0FFF775FCF86017E00020FFF7BCFC96
:100BE000F86012E0FFF72EFB04467868FFF782FEFC
:100BF0000346B4FBF3F3FB6007E00023FB6041F620
:100C0000F7010848FFF7A2FB00BFFB68184614373E
:100C1000BD4690BD00400E4002001E0005002400AD
:100C2000030020003050000080B584B000AF786031
:100C30007B681B0903F00F03BB60BB68013B092BFA
:100C400000F2B78001A252F823F000BF750C00003B
:100C5000850C0000950C0000B50C0000B30D0000E1
:100C6000B30D0000C50C0000D50C00002D0D0000D8
:100C70008B0D0000554BD3F800311B0A03F01F0306
:100C8000FB609EE0514BD3F814311B0A03F01F03A5
:100C9000FB6096E04D4BD3F800311B0E03F00103CF
:100CA000FB60FB6801331846FFF756FB0346013B28
:100CB000FB6086E0454BD3F80C311B0AC3F30803F5
:100CC000FB607EE0414BD3F808311B0AC3F30803F5
:100CD000FB6076E07B683E4A934203D03D4A9342F4
:100CE0000DD01AE0394BD3F8203103F00F03FB602D
:100CF000F868FFF731FB0346013BFB6015E0334B1F
:100D0000D3F820311B0903F00303FB60F868FFF7F9
:100D100023FB0346013BFB6007E00023FB6041F639
:100D20006B112D48FFF712FB00BF4AE07B682B4A8E
:100D3000934203D02A4A93420ED01DE0234BD3F8AE
:100D400028311B0903F00303FB60F868FFF704FB7D
:100D50000346013BFB6017E01C4BD3F828311B0A0C
:100D600003F00303FB60FB6804331846FFF7F4FA53
:100D70000346013BFB6007E00023FB6041F68F1157
:100D80001548FFF7E3FA00BF1BE07B68154A934262
:100D900006D10E4BD3F8303103F00303FB6007E0BC
:100DA0000023FB6041F69E110B48FFF7CFFA00BF0E
:100DB00007E00023FB6041F6C3110748FFF7C6FABE
:100DC00000BFFB6818461037BD4680BD00400E408E
:100DD0008006160080162E003050000090171A0072
:100DE00090273000A009140080B584B000AF78606F
:100DF0000123FB737B6803F00F03BB60BB68013BFF
:100E0000072B00F2C48001A252F823F02D0E00003F
:100E1000830E0000B30E00008F0F0000F90E0000DB
:100E2000290F00008F0F00004D0F00005E4BD3F81C
:100E3000943003F00703023B052B1ED801A252F8A1
:100E400023F000BF690E0000630E00005D0E00007D
:100E50006F0E00007B0E0000750E00000223FB7376
:100E60000EE00323FB730BE00423FB7308E00B236A
:100E7000FB7305E00C23FB7302E00523FB7300BF4B
:100E80008DE0494BD3F8803003F00703022B06D0E6
:100E9000042B07D0012B08D10323FB7308E00223A6
:100EA000FB7305E00A23FB7302E00123FB7300BF21
:100EB00075E03D4BD3F8843003F00703013B032B6F
:100EC00016D801A252F823F0D90E0000DF0E000060
:100ED000EB0E0000E50E00000323FB730BE0022382
:100EE000FB7308E00A23FB7305E00623FB7302E0B3
:100EF0000123FB7300BF52E02B4BD3F8883003F083
:100F00000703022B06D0042B07D0012B08D10323A3
:100F1000FB7308E00223FB7305E00A23FB7302E086
:100F20000123FB7300BF3AE01F4B1B6F03F001036B
:100F3000002B04D0012B05D10923FB7305E0072307
:100F4000FB7302E00123FB7300BF28E0164BD3F8CC
:100F50005C3103F03003102B0CD0102B02D8002B87
:100F600005D010E0202B08D0302B09D00BE0012356
:100F7000FB730BE00723FB7308E00423FB7305E01E
:100F80000823FB7302E00123FB7300BF07E000238B
:100F9000FB7341F617510548FFF7D8F900BFFB7BFB
:100FA00018461037BD4680BD00400E40305000004E
:100FB00080B58AB000AF78600B46FB7003237B627C
:100FC000032387F823300023BB6100237B617B6808
:100FD000112B19D1FB78042B03D1FFF777F9786136
:100FE0000BE0FB78052B08D100F0F4F90246BA4B70
:100FF0009A4202D900F0EEF978617B69002B03D0A8
:101000000021786901F02AF87B6803F00F033B6147
:101010003B69013B072B00F2558101A252F823F0F6
:10102000411000004B1100007D110000C5120000AE
:101030005F1100001D120000C512000047120000E1
:10104000FB78023B0A2B49D801A252F823F000BFDB
:101050007D1000008910000095100000A71000000E
:10106000DD100000DD100000DD100000DD100000CC
:10107000D1100000B9100000C510000004237B62ED
:10108000002387F823302FE003237B62012387F8B6
:10109000233029E002237B62022387F823308F4824
:1010A000FFF7DCF920E001237B62032387F823307C
:1010B0008A48FFF7D3F917E005237B62032387F8FB
:1010C000233011E007237B62062387F823300BE0EF
:1010D00041F6D8518248FFF739F9F9E041F6DD5180
:1010E0007F48FFF733F9F3E097F82330062B06D05B
:1010F00097F8233001220121184600F0B5FAFFF7D6
:10110000C3FAFFF7E9FB7B69002B01D0FFF780F9F9
:10111000744A7B6A5367FFF76BF8F860FFF792F841
:1011200003461846FFF79AF9FFF78AF9034619466E
:10113000F868FFF7CBFA7B69002B03D1012100206F
:1011400000F08CFFFFF7CFFBC2E0674BBB61FB7881
:10115000062B04D141F61C616148FFF7F7F8BB6923
:10116000002B01D0BB6900E0604BBB61FB78062B14
:1011700004D141F62C615A48FFF7E8F8BB69002B0F
:1011800001D0BB6900E05A4BBB61FB78013B092BE6
:101190003AD801A252F823F0C1110000C711000093
:1011A000D71100000912000009120000E711000029
:1011B00009120000091200000912000003120000C9
:1011C0000023FB6126E001220121002000F04CFAFF
:1011D0000223FB611EE001220121012000F044FAFC
:1011E0000123FB6116E0FFF72DF803461846FFF7D1
:1011F00035F9012202213F48FFF7C4F80323FB61C0
:1012000008E00423FB6105E041F657613448FFF72D
:101210009DF85DE0BB69FA691A6059E0FB78072B1D
:1012200002D0092B04D007E02E4B00221A6709E0F8
:101230002C4B01221A6705E041F6E1612848FFF7CF
:1012400085F845E044E0FB78013B072B28D801A254
:1012500052F823F075120000A1120000A112000044
:101260008B120000A1120000A11200007B120000EE
:101270009B1200000023FB6118E0012201210420E1
:1012800000F0F2F90123FB6110E0012201210220AC
:1012900000F0EAF90223FB6108E00323FB6105E0AB
:1012A00041F63F710E48FFF751F811E00D4BD3F8AE
:1012B0005C3123F03002FB691B010A491343C1F87A
:1012C0005C3105E042F216010548FFF73FF800BF28
:1012D0002837BD4680BD00BF002D31010148E8011F
:1012E0003050000000400E4080400E4088400E40CC
:1012F00084400E40B0400E4080B483B000AF7860B0
:101300007B68294A93422FD0274A934210D8274A14
:10131000934221D0254A934203D8254A93421BD0B9
:101320003AE0244A934217D0234A934218D033E03C
:10133000224A934224D0214A934206D8204A93421B
:1013400016D0204A934217D026E01F4A93421BD062
:101350001E4A93421CD01FE01D4BD3F880301CE086
:101360001B4BD3F88C3018E0194BD3F8983014E0AD
:10137000174BD3F89C3010E0154BD3F8A0300CE09D
:10138000134BD3F8A83008E0114BD3F8AC3004E08D
:101390000F4BD3F8B03000E0002318460C37BD46A1
:1013A0005DF8047B704700BF405DC60080841E006E
:1013B00040420F0000093D00C0CF6A0080BA8C0196
:1013C0000024F400C0EA21010048E80180D543026E
:1013D000B081E00F80B400AF034B1B681846BD46D8
:1013E0005DF8047B704700BF0C00002080B586B01C
:1013F00000AF78607868FFF77FFF78617B69002B2A
:1014000003D07B69B3F1FF3F04D142F2E1114E48B2
:10141000FEF79CFF4D4B1B683B614C4A7B68136099
:101420001120FFF7E1FC0346052B03D1FFF72CF950
:10143000FFF752FA00BF18214548FEF7C1FF0346E7
:10144000002BF8D17B69B3F1FF3F04D142F2F211D6
:101450003D48FEF77BFF7B683E4A93420DD03E4AF3
:10146000934211D03D4A934200D012E07B6923F0B1
:10147000C06343F080637B610BE07B6923F0C06352
:1014800043F000737B6104E07B6923F0C0637B6100
:1014900000BF1120FFF7A8FC0346052B02D1786896
:1014A000FEF7DCFF7A683B699A4203D9012178682C
:1014B00000F0D4FD2A4A7B6913611120FFF794FCE8
:1014C0000346052B26D1FEF793FEF860FA687B6889
:1014D0009A4204D942F21E211B48FEF737FF1B4BEC
:1014E0001B68FA689A4204D942F21F211648FEF797
:1014F0002DFF164B1B687A689A4204D042F22021D5
:101500001148FEF723FFFEF79BFF03461946F868D4
:10151000FFF7DCF8FEF796FE03461846FEF79EFF3F
:101520007A683B699A4203D80121002000F096FDB9
:101530001120FFF759FC0346052B01D1FFF7D3F922
:1015400000BF1837BD4680BD305000000C000020A1
:1015500040410E4080841E0000093D0040420F00C3
:1015600000400E4090B585B000AF78601120FFF7C5
:101570003BFC0346042B04D142F2FF213748FEF71F
:10158000E5FE01220021022000F06EF87B685B7806
:10159000002B07D17B689B78002B03D17B68DB781D
:1015A000002B04D042F23D312C48FEF7CFFE002341
:1015B000FB607B681B7C012B04D142F2423127483F
:1015C000FEF7C4FE7B681B7C022B01D10123FB606C
:1015D000234B5B6A23F001022149FB6813434B62F2
:1015E0007B681B781A4608211E48FEF7CBFE7B68F5
:1015F0009B88DB027A68527A1146194A0B43D36200
:10160000174B1B6B03F07F627B68DB88DB021343A5
:101610007A68927A1A437B681B7ADB0142EA0304F8
:101620007B681B7A1846FFF771F803460C4A234380
:1016300013637B685B7B1A037B689B7B1B011343F3
:101640007A68D27B1A437B681B7B1B0404491343D3
:101650004B6300BF1437BD4690BD00BF3050000043
:1016600000400E4024400E4080B588B000AF0346D5
:10167000FB710B46BB7113467B71FB79042B3CD885
:1016800001A252F823F000BFE5160000D3160000B7
:10169000AF1600009D160000C116000001237B61FB
:1016A00002233B610123FB610023BB612BE0042388
:1016B0007B6108233B610323FB610223BB6122E0C2
:1016C00010237B6120233B610523FB610423BB6165
:1016D00019E040237B6180233B610723FB610623E4
:1016E000BB6110E04FF480737B614FF400733B618A
:1016F0000923FB610823BB6105E042F264414548D0
:10170000FEF724FE83E0BB79002B64D00023FB733B
:10171000FB79022B1AD1FFF715F80346002B15D1E0
:101720003D4BDB6B03F48063002B04D142F2734129
:101730003848FEF70BFE0123FB73384B5B6A03F05E
:101740000103012B02D10120FFF70AF8334A7B691C
:10175000136600BFB9693248FEF732FE0346002B1C
:10176000F8D07B79002B52D000BFF9692C48FEF7E6
:1017700027FE0346002BF8D0FB79022B47D1FB7BD9
:10178000002B44D0254B5B6A03F00103012B05D1EC
:1017900001222021022000F087F903E0002102202D
:1017A00000F028F9022000F03DF8B8600122002185
:1017B0000220FFF759FFB968022000F071F8174ABC
:1017C0007B69136600BFF9691548FEF7F9FD03460A
:1017D000002BF8D01BE0114A3B69136600BF0F4B8A
:1017E000D3F890300121BA6901FA02F21340002BBC
:1017F000F5D17B79002B0AD000BF084BD3F890308D
:101800000121FA6901FA02F21340002BF5D12037C9
:10181000BD4680BD3050000000300E4000400E40FC
:1018200090400E4080B584B000AF0346FB71FB7959
:10183000013B032B23D801A252F823F04D180000DE
:10184000711800005918000065180000124B1B6A3F
:10185000C3F30803FB601AE00F4B1B6903F07F031F
:10186000FB6014E00C4B9B6903F07F03FB600EE010
:10187000094BD3F89C30C3F30A03FB6007E0002355
:10188000FB6042F2F0410548FEF760FD00BFFB68D7
:1018900018461037BD4680BD00400E403050000055
:1018A00080B584B000AF03463960FB71FB79013B22
:1018B000032B00F28C8001A252F823F0CD18000017
:1018C000811900000D190000471900003B68B3F5AD
:1018D000007F04D342F216514248FEF737FD3B68C1
:1018E000C3F308033B6000BF1A213F48FEF768FDC1
:1018F0000346002BF8D13D4B1B6A23F4FF7323F002
:1019000001033A493A6813430B6266E03B687F2B58
:1019100004D942F223513348FEF718FD3B6803F027
:101920007F033B6000BF18212F48FEF749FD0346A7
:10193000002BF8D12D4B1B6923F07F022B493B680C
:1019400013430B6149E03B687F2B04D942F23E51BF
:101950002448FEF7FBFC3B6803F07F033B6000BFBD
:1019600019212148FEF72CFD0346002BF8D11F4B0F
:101970009B6923F07F021D493B6813438B612CE078
:101980001A4BD3F8903003F00403002B04D042F23A
:101990004D511448FEF7DAFC144B5B6A23F0300318
:1019A000124A43F0100353623B68DB0903F00F0354
:1019B0001846FEF7ABFEF8600C4B1A6B0C4B13404D
:1019C0003A681A430949FB6813430B6305E042F286
:1019D00067510448FEF7BAFC00BF00BF1037BD4690
:1019E00080BD00BF3050000040410E4000400E401E
:1019F00000F8FF0F80B584B000AF03460A46FB71C4
:101A00001346BB71FB79022B04D042F27F5123486D
:101A1000FEF79CFCFEF796FE0346002B03D14FF425
:101A20004003FB601BE0BB79202B04D0302B0AD095
:101A3000002B04D00BE04FF40003FB600FE04FF4E9
:101A40004003FB600BE04FF44003FB6007E0144BE6
:101A5000FB6042F29A511148FEF778FC00BF00BFCC
:101A6000104BD3F89020FB681340FA689A42F7D1E4
:101A7000FB6803F48003002B0AD00A4BD3F8A03094
:101A800003F48063002B14BF01230023DBB200E0CA
:101A9000012318461037BD4680BD00BF30500000FE
:101AA000FF33E10700400E4080B582B000AF03462F
:101AB000FB710B46BB7113467B71FB79022B15D171
:101AC000BB79002B07D00F4B4FF48062C3F8A820DE
:101AD0000C4ABB7953667B79002B0DD0BA79FB7920
:101AE00011461846FFF786FF034607E042F2D05141
:101AF0000548FEF72BFC00E000BF0123184608371D
:101B0000BD4680BD00400E403050000080B483B020
:101B100000AFEFF310833B603B687B6072B67B687D
:101B200018460C37BD465DF8047B704780B483B01F
:101B300000AF78607B68002B00D162B600BF0C3725
:101B4000BD465DF8047B704780B500AFFEF750FBE3
:101B500000BF80BD80B586B000AFF860B9607A6024
:101B6000BB681F2B03D991210848FEF7EFFBFB68E8
:101B700003F10473DA00BB6813449B007B617B694B
:101B80007A681A6000BF1837BD4680BD6C500000EF
:101B900080B485B000AF786039607B6803F104736E
:101BA000DA003B6813449B00FB60FB681B68184627
:101BB0001437BD465DF8047B7047000080B400AF69
:101BC000064B1B6803F04003002B01D1012300E00A
:101BD00000231846BD465DF8047B70473C300E403C
:101BE00080B500AFFFF7EAFF034683F00103DBB2E5
:101BF000002B08D100BF12210448FFF7C9FF03469C
:101C0000002BF8D100E000BF80BD00BF04300E40C3
:101C100080B500AFFFF7E4FF034B5B681B0C03F0DC
:101C20000303DBB2184680BD00300E4080B483B0A1
:101C300000AF7860044A7B68D36200BF0C37BD46B2
:101C40005DF8047B704700BF00300E4080B400AFE9
:101C5000034B5B6A1846BD465DF8047B704700BFC6
:101C600000300E4080B400AF034B00225A6300BF27
:101C7000BD465DF8047B704700300E4080B400AF75
:101C8000044B4AF6E8525A6300BFBD465DF8047B38
:101C9000704700BF00300E4080B400AF044B0022FC
:101CA000C3F8802100BFBD465DF8047B704700BFCC
:101CB00000400E4080B400AF044B45F60E02C3F85E
:101CC000802100BFBD465DF8047B704700400E4098
:101CD00080B483B000AF0346FB71FB79C3F102030C
:101CE000102202FA03F318460C37BD465DF8047B58
:101CF0007047000090B585B000AF0346FB71FB79DB
:101D0000002B1BD14A4BD3F890304A4A1360112064
:101D1000FFF76AF803461A46474B1A70FFF760FF51
:101D2000464B5B681B0CDBB203F00303DAB2444B97
:101D30001A703F4B1B69434A136075E0FFF73EFF83
:101D40000346002B07D03E4B1B783C4C1846FFF750
:101D5000BFFF03462361364BD3F8803103F0010304
:101D6000FB60FFF7A7FF0023BB60324B1B6803F04B
:101D70000103BA681343BB602E4B1B6803F01003CA
:101D8000BA681343BB602B4B1B6803F04003BA686F
:101D90001343BB60274B1B6803F00403BA6813436B
:101DA000BB60244B1B6803F48073BA681343BB60A9
:101DB0001F4ABB681366FFF713FF204B1B6803F035
:101DC0001003002B18D000BF194BD3F8403103F09B
:101DD0008073002BF8D1164A1A4B1B681361164BFF
:101DE0001B78052B08D1184B1C68FFF711FF034621
:101DF00019462046FEF76AFC0F4B1B78052B05D0D1
:101E00000D4B1B7819461120FFF7D2F8094B1B68C0
:101E100003F00103002B02D1054B02221A66FB6876
:101E2000002B01D0FFF738FF00BF1437BD4690BD2F
:101E300000400E40D4000020D800002000300E40AA
:101E4000D9000020DC0000200C00002080B582B00A
:101E500000AFFFF7B3FE034683F00103DBB2002BB4
:101E60001FD1FFF7BDFE114B1B681B0A03F00303D4
:101E70007B600E4B5B681B0C03F003033B607A68CE
:101E80003B689A4206D9094B1B68084A43F0100385
:101E9000136007E0054B1B68044A23F0100313602E
:101EA00000E000BF0837BD4680BD00BF00300E40D7
:101EB00080B483B000AF0C4B1B6803F01003002B01
:101EC0000BD00A4B1B691B0C03F01F037B607B6864
:101ED000082B02D1064B074A1A6000BF0C37BD46DB
:101EE0005DF8047B704700BF00300E4000400E409C
:101EF0000C000020C0EA210180B400AF00BFBD4645
:101F00005DF8047B704780B400AF00BFBD465DF84C
:101F1000047B704780B584B000AF0346FB71FB794A
:101F2000002B02D00020FFF7E5FEFFF78FFF1A4BD2
:101F30001B69194A43F004031361FFF7DDFF174BD8
:101F40001B6803F01003002B08D0FFF7DFFDF860DB
:101F500002F0D2FFF868FFF7E9FD00E030BFFFF7BD
:101F6000D2FFFB79002B03D00120FFF7C3FE01E075
:101F7000FFF79EFF0A4B1B68094A23F000431360DA
:101F8000FB7983F00103DBB2002B01D0FFF7DCFD0E
:101F900000BF1037BD4680BD00ED00E000300E40B0
:101FA0004C310E4080B584B000AF0346FB71FB7925
:101FB000002B02D00020FFF79DFEFFF747FF234BC9
:101FC000D3F8803103F00103FB60FFF773FE1F4B72
:101FD0004FF420721A66FB68002B01D0FFF75CFEFD
:101FE0001B4B1B691A4A43F004031361FFF784FF7C
:101FF000184B1B6803F01003002B08D0FFF786FD79
:10200000B86002F079FFB868FFF790FD00E030BFDC
:10201000FFF779FFFB79002B03D00120FFF76AFE61
:1020200001E0FFF745FF0C4B1B680B4A23F0004310
:102030001360FB7983F00103DBB2002B01D0FFF7C3
:1020400083FD00BF1037BD4680BD00BF00400E407D
:1020500000ED00E000300E404C310E4080B584B001
:1020600000AF78600B46FB70FFF7A8FD034683F0D6
:102070000103DBB2002B28D17B68002B0FD1154B5D
:10208000D3F800311B0A03F01F030133BB60FEF7D6
:10209000D9F80246BB6802FB03F3FB6001E07B68F2
:1020A000FB600D4B1B78002B09D0FB680B4A934259
:1020B00005D8FB781946022000F012F806E0FB78FC
:1020C0001946002000F00CF800E000BF1037BD46B4
:1020D00080BD00BF00400E40D0000020002D310127
:1020E00090B587B000AF03460A46FB711346BB713B
:1020F000FFF764FD034683F00103DBB2002B3AD106
:10210000FFF786FD03461A46FB79934235D01D4BF7
:10211000D3F800311B0A03F01F0301337B61FEF784
:1021200091F838613B697A6902FB03F3FB60FB7944
:10213000022B0CD1FB68144A934204D940F2DC51C3
:102140001248FEF703F902213869FEF7BFFA104C76
:10215000FB791846FFF7BCFD03462361BB79002BD2
:1021600001D0FFF73DFDFB79002B07D10021386935
:10217000FEF7ACFA02E000BF00E000BF1C37BD462E
:1021800090BD00BF00400E40002D3101D050000036
:1021900000300E4080B582B000AF78600E4B1B68F7
:1021A00023F440727B685B781B020B4913430B607E
:1021B0007B685B78022B0AD1084B5B6A03F0005303
:1021C000002B04D04FF4C3610548FEF7BFF800BFF1
:1021D0000837BD4680BD00BF00300E4000400E40B5
:1021E000D050000080B400AF01231846BD465DF812
:1021F000047B704780B582B000AF0C4BDB6E0B4A9E
:1022000043F08073D36600210948FFF7C1FC786072
:102210007B68002B03D0042000F04EFD02E000207C
:1022200000F04AFD00BF0837BD4680BD00300E40BB
:102230004C300E4080B58AB000AF01237B627B6AD0
:102240001B053B62404BDB6C1B0A03F00F03FB6179
:102250003E4B1B881A463D4B1B8828335B081344B2
:1022600003F12801FB695A1C13469B001344B1FB80
:10227000F3F3013BBB61BB697B6107233B613A69B7
:102280007B69934228BF1346BB61BB691B06BB61D8
:10229000BB6923F0E063002B04D040F634012C48E6
:1022A000FEF754F83B6A23F4E003002B04D040F619
:1022B00035012748FEF74AF8234BDB6C23F0EE622A
:1022C000B9693B6A0B4320491343CB64214BB3F9F3
:1022D0000030002B33DB1F4BB3F90030FB81FA8950
:1022E000FB8928335B08134403F12802FB6901339F
:1022F0005900FB6901335B080B44B2FBF3F3BB608D
:10230000BB687B6007233B603A687B68934228BFC9
:102310001346BB60BB681B01BB60BB6823F0700346
:10232000002B04D040F64D010948FEF70FF8064B8C
:102330001B6D23F070020449BB6813430B6500BF9B
:102340002837BD4680BD00BF00300E40C8000020C9
:10235000D0500000CC00002080B483B000AF786083
:102360000B467B807B689AB2054B1A80054A7B88B6
:10237000138000BF0C37BD465DF8047B704700BF7B
:10238000C8000020CC00002080B582B000AF03461A
:10239000FB71FB79002B02D0012B04D007E0094B25
:1023A000094A9A6509E0074B084A9A6505E040F634
:1023B00079010748FDF7CAFF00BF00BF0837BD46D7
:1023C00080BD00BF00300E4077402057372110B746
:1023D000D050000080B584B000AF0346FB710B46BF
:1023E000BB7113467B71334BD3F88031FB60BB79F3
:1023F000032B1DD801A252F823F000BF0D240000CA
:10240000152400001F24000029240000FB68DBB213
:10241000FB6014E0FB681B0ADBB2FB600FE0FB68AB
:102420001B0CDBB2FB600AE0FB681B0EFB6006E0E6
:1024300040F6BD012048FDF789FF002336E07B7997
:10244000002B16D1FB681B03FB60FB6823F4704371
:10245000002B06D040F6C8011748FDF777FF002390
:1024600024E0164BDB6E23F470421449FB681343DF
:10247000CB667B79012B18D1FB681B03FB60FB68E3
:1024800023F47043002B06D040F6D4010A48FDF730
:102490005DFF00230AE0094BD3F8EC3023F47042CF
:1024A0000649FB681343C1F8EC3001231846103786
:1024B000BD4680BDB081E00FD050000000300E401E
:1024C00080B588B000AFF860B96011461A460B4677
:1024D000FB711346BB710023FB610023BB61BB7919
:1024E0001B02FA79002A01D0012200E000221343E6
:1024F0007B617B6940F2011293422AD0B3F5817F60
:1025000007D2012B19D0012B47D3B3F5807F50D0D0
:1025100073E040F20122934227D040F2012293421D
:1025200003D8B3F5007F50D067E0B3F5407F58D0B3
:1025300040F20132934224D05FE0384BD3F874313B
:10254000FB61FB691B0ADBB2BB61FB69DBB2FB61B0
:1025500059E0324BD3F87431FB61FB691B0EBB6150
:10256000FB691B0CDBB2FB614DE02C4BD3F87831DF
:10257000FB61FB691B0ADBB2BB61FB69DBB2FB6180
:1025800041E0264BD3F87831FB61FB691B0EBB6140
:10259000FB691B0CDBB2FB6135E0204BD3F86C31DF
:1025A000FB61FB691B0ADBB2BB61FB69DBB2FB6150
:1025B00029E01A4BD3F86C31FB61FB691B0EBB6140
:1025C000FB691B0CDBB2FB611DE0144BD3F87031CF
:1025D000FB61FB691B0ADBB2BB61FB69DBB2FB6120
:1025E00011E00E4BD3F87031FB61FB691B0EBB6130
:1025F000FB691B0CDBB2FB6105E040F639110848B2
:10260000FDF7A4FE00BFFB68FA691A60BB68BA69EF
:102610001A6000BF2037BD4680BD00BFB081E00F0B
:10262000D050000080B584B000AF0346FB713E4B34
:102630005B6B012B0CBF01230023FB73FFF71EFB19
:1026400000BF394B9B6F03F00103002BF9D1364BD0
:102650001B6C03F00303BB60BB68002B04D001229A
:102660000D213248FFF776FABB68DBB2FA799A425D
:1026700008D1FB79002B53D100220D212B48FFF705
:1026800069FA4DE0BB68032B02D0BB68002B20D158
:10269000FB79022B02D0FB79012B1AD14FF40020D9
:1026A000FFF7C4FA00BF204B9B6F03F00103002B20
:1026B000F9D11D4B1B6C23F003031B4A43F00103AC
:1026C000136400BFFFF7C2FA034603F40023002B94
:1026D000F8D000BF144B9B6F03F00103002BF9D11E
:1026E000114B1B6C23F00302FB790F4913430B645E
:1026F00000BF0D4B9B6F03F00103002BF9D1FB7959
:10270000002B14BF01230023DBB21A460D2107481A
:10271000FFF720FAFB7B002B03D0FFF7A3FA00E0C2
:1027200000BF1037BD4680BD00300E4054300E4013
:1027300080B584B000AF78606B4B02229A636A4B1D
:102740009B6B03F00F03022B06D040F6F61167488F
:10275000FDF7FCFD0023C3E0FFF744FD7B681B8908
:10276000C82B04D94FF420616048FDF7EFFD7B686A
:102770009A887B681B899A4204D940F601215B48FC
:10278000FDF7E4FD7B68B3F90C30C82B04DD40F69F
:1027900002215648FDF7DAFD7B685B78012B09D1F1
:1027A0007B689B88C82B12D940F606214F48FDF75D
:1027B000CDFD0CE07B685B78022B08D17B689B88A1
:1027C0000A2B04D940F60B214848FDF7BFFD7B6872
:1027D000DB8842F21072934204D940F61321434839
:1027E000FDF7B4FD7B68DB884A2B02D80023FB6031
:1027F00015E07B68DB88B3F5FA7F03D24FF0805396
:10280000FB600CE07B68DB8840F6C312934203D880
:102810004FF00053FB6002E04FF04053FB60324B3F
:10282000DB6C23F0405323F001037A68B2F90C20EB
:10283000002A01DB012100E00021FA680A432A494D
:102840001343CB64284BD3F8EC30274A43F440734E
:10285000C2F8EC307B689A88254B1A80FFF7CAFCD7
:102860007B681B891A467B68B3F90C301946104601
:10287000FFF772FD7B689B88184600F0A9F97B681A
:102880009B7B1846FFF780FD7B685B880122012156
:10289000184600F031F8034683F00103DBB2002B49
:1028A00006D040F64A211148FDF750FD002317E0FD
:1028B0000D4BDB6B0C4A43F48063D3637B685B781E
:1028C0001846FFF7AFFE7B689B7A202B01D10123CE
:1028D00000E000231A4605210648FFF73BF90123D3
:1028E00018461037BD4680BD00300E40D050000065
:1028F000CA0000203C300E4090B595B000AF786023
:102900000B46FB701346BB700023FB6400237B6403
:1029100007F1240300221A605A609A6007F1180335
:1029200000221A605A609A6007F10C0300221A60B4
:102930005A609A6007F1080300210A461A800A4685
:102940009A707B68B3F5E16F06D37B6840F6B832C6
:10295000934201D8012300E0002387F8433097F821
:10296000433003F0010387F8433097F8433083F096
:102970000103DBB2002B06D040F699219148FDF708
:10298000E5FC002319E17B68B3F5E16F8CBF0123FF
:10299000002387F8423097F84230002B0AD04FF4DA
:1029A000E163FB6440F6B8337B647A6CFB6CD31A4A
:1029B000BB6409E04FF49663FB644FF4E1637B640E
:1029C0007A6CFB6CD31ABB6497F84230002B0BD0A7
:1029D0007D4BD3F868313B623B6A1B0E7B613B6ADF
:1029E0001B0CDBB23B620AE0774BD3F868313B62E9
:1029F0003B6A1B0ADBB27B613B6ADBB23B62734B17
:102A0000DB6C1B0FDBB203F00303DBB23B723B7AE0
:102A100097F8422007F10C0107F11800FFF750FD6D
:102A20006A4BD3F8EC301B0ADBB203F00303DBB2D2
:102A30007B727C7A97F8422007F10C03191D07F18D
:102A40001803181D2346FFF73BFD7A68FB6CD31A69
:102A500079693A6A8A1A02FB03F2BB6CB2FBF3F3A0
:102A6000FB62FA6A3B6A1344FB627A68FB6CD31A16
:102A7000F968BA698A1A02FB03F2BB6CB2FBF3F382
:102A80007B627A6ABB6913447B627A68FB6CD31AF7
:102A90003969FA698A1A02FB03F2BB6CB2FBF3F3E1
:102AA000BB62BA6AFB691344BB62FA6A7B699A42E9
:102AB00013D8FA6A3B6A9A420FD3BA6A3B699A42C0
:102AC0000BD8BA6AFB699A4207D37A6AFB689A42C2
:102AD00003D87A6ABB699A4206D240F6E7213948A0
:102AE000FDF734FC002368E0BB78002B12D0374B95
:102AF000DB6D23F4FE4323F00203FA6A1202134350
:102B000097F84220002A01D0022200E000222F493B
:102B10001343CB65FB78002B4ED0397A97F84230BF
:102B200000221846FFF756FC034683F00103DBB290
:102B3000002B06D040F6F6212248FDF707FC0023C3
:102B40003BE0797A97F8423001221846FFF742FCC1
:102B5000034683F00103DBB2002B06D040F6FE21D2
:102B60001848FDF7F3FB002327E07B6AFB63BB6A91
:102B7000BB63BA6BFB6B934238BF13467B627B6AC5
:102B80007B63E7233B633A6B7B6B934228BF13461F
:102B90007B620E4B5B6E23F4FF7323F001037A6AB2
:102BA0005200134397F84220002A01D0012200E08E
:102BB0000022064913434B66012318465437BD468D
:102BC00090BD00BFD0500000B081E00F00300E403B
:102BD00080B584B000AF78600023FB60344B1B6F7E
:102BE00003F00703BB60324BDB6C03F00103002BE7
:102BF00014D0BB68012B11D97B68132B02D8042396
:102C0000FB603DE07B68132B05D97B68272B02D83E
:102C10000823FB6034E01023FB6031E0244BDB6CC5
:102C200003F00103002B14D1BB68012B11D87B6882
:102C3000092B02D80423FB6022E07B68092B05D90D
:102C40007B68132B02D80823FB6019E01023FB607C
:102C500016E0174BDB6C03F00103002B0BD0BB68B5
:102C6000012B08D87B68272B02D80823FB6007E0DC
:102C70001023FB6004E040F63C310E48FDF766FB94
:102C8000FB68013BFB60FB681A02FB681B031343F4
:102C9000FB60074BDB6C23F47F420549FB68134361
:102CA000CB64FFF7C7FA00BF1037BD4680BD00BF39
:102CB00000300E40D050000080B584B000AF034615
:102CC000FB7100211148FEF763FFF860FB68002BE1
:102CD00002D1FB79012B07D9FB68002B04D140F608
:102CE0005B310B48FDF732FB0A4B1B6F23F00702E9
:102CF000FB79084913430B67074B1B881846FFF7FE
:102D000067FF00BF1037BD4680BD00BF4C300E408E
:102D1000D050000000300E40CA00002080B586B0C0
:102D200000AFF860B9607A60BB681F2B03D99121AE
:102D30000848FDF70BFBFB6803F10473DA00BB687E
:102D400013449B007B617B697A681A6000BF183767
:102D5000BD4680BDE450000080B485B000AF78600F
:102D600039607B6803F1C063FB60FB683A681A60F6
:102D700000BF1437BD465DF8047B704780B485B052
:102D800000AF786039607B6803F18063FB60FB68AB
:102D90003A681A6000BF1437BD465DF8047B70477F
:102DA00080B586B000AFF860B9607A60FEF7AEFE1D
:102DB0007861FB681A68BB68DB431A407968BB68B6
:102DC0000B401A43FB681A607869FEF7AFFE00BF3C
:102DD0001837BD4680BD000080B483B000AF786076
:102DE000044A7B68C2F8243400BF0C37BD465DF846
:102DF000047B704700A0004080B582B000AF03465E
:102E00003960FB71FB79002B38D0FB79012B32D074
:102E1000FB79022B2CD0FB79032B26D0FB79042BDA
:102E200021D0FB79052B1BD0FB79062B16D0FB7923
:102E3000072B11D0FB79082B0CD0FB79092B06D07E
:102E4000FB790A2B01D107231AE0002318E04FF485
:102E5000404315E00F2313E0002311E000230FE0AF
:102E60004FF6FF730CE000230AE04FF47F4307E0C6
:102E700040F6FF7304E04FF6C07301E040F2FF3309
:102E80003A68D34003F00103002B04D14FF4797169
:102E90000C48FDF75BFAFA7913465B0013441B01FB
:102EA0000C3303F1804303F5204301213A6801FA12
:102EB00002F211461846FFF761FF00BF0837BD4612
:102EC00080BD00BF4851000080B582B000AF03460E
:102ED0003960FB71FB79002B38D0FB79012B32D0A4
:102EE000FB79022B2CD0FB79032B26D0FB79042B0A
:102EF00021D0FB79052B1BD0FB79062B16D0FB7953
:102F0000072B11D0FB79082B0CD0FB79092B06D0AD
:102F1000FB790A2B01D107231AE0002318E04FF4B4
:102F2000404315E00F2313E0002311E000230FE0DE
:102F30004FF6FF730CE000230AE04FF47F4307E0F5
:102F400040F6FF7304E04FF6C07301E040F2FF3338
:102F50003A68D34003F00103002B04D140F213413F
:102F60000C48FDF7F3F9FA7913465B0013441B0193
:102F70000C3303F1804303F5204301213A6801FA41
:102F800002F211461846FFF7E7FE00BF0837BD46BC
:102F900080BD00BF4851000080B582B000AF03463D
:102FA0003960FB71FB79002B1DD0FB79012B1AD006
:102FB000FB79022B17D0FB79032B14D0FB79042B60
:102FC00016D0FB79052B0ED0FB79062B10D0FB79A0
:102FD000072B0DD0FB79082B05D0FB79092B02D0EC
:102FE000FB790A2B04D13B6823F00113002B03D09B
:102FF0007D210B48FDF7AAF9FA7913465B001344CB
:103000001B0103F1804303F520433A684FF001119F
:103010001846FFF7C5FE00BF0837BD4680BD00BF9C
:10302000AC51000080B586B000AFB9607A601A4636
:103030000346FB731346BB7300237B61FB7B002BB2
:1030400038D0FB7B012B32D0FB7B022B2CD0FB7BBF
:10305000032B26D0FB7B042B21D0FB7B052B1BD025
:10306000FB7B062B16D0FB7B072B11D0FB7B082BA1
:103070000CD0FB7B092B06D0FB7B0A2B01D107234D
:103080001AE0002318E04FF4404315E00F2313E04B
:10309000002311E000230FE04FF6FF730CE0002344
:1030A0000AE04FF47F4307E040F6FF7304E04FF679
:1030B000C07301E040F2FF33BA68D34003F001036C
:1030C000002B03D1BF213A48FDF740F97A68BB686D
:1030D000534023F00303002B03D0C1213448FDF7F4
:1030E00035F97B68072B0ED87B689B000F2202FA0C
:1030F00003F1FA7B7B689B0002FA03F31A462D4822
:10310000FFF74EFE10E07B68083B7B617B699B000C
:103110000F2202FA03F1FA7B7B699B0002FA03F3A8
:103120001A462548FFF73CFE7B68072B10D87B68C2
:103130009B00032202FA03F1BB6803F003027B68E1
:103140009B0002FA03F31A461C48FFF729FE0FE022
:103150007B699B00032202FA03F1BB6803F00302C0
:103160007B699B0002FA03F31A461548FFF718FE25
:10317000BB7B1A4679681348FFF7D0FD97F82030DB
:103180001A4679681048FFF7C9FD01227B6802FAE8
:1031900003F31846FFF720FE97F824301A467968A3
:1031A0000A48FFF7BBFD00BF1837BD4680BD00BF12
:1031B000AC51000000A4004004A4004008A400405A
:1031C0000CA4004010A4004014A4004028A4004017
:1031D00080B584B000AFB9607B600346FB731346D3
:1031E000BB73FB7B002B38D0FB7B012B32D0FB7BEE
:1031F000022B2CD0FB7B032B26D0FB7B042B21D076
:10320000FB7B052B1BD0FB7B062B16D0FB7B072BF8
:1032100011D0FB7B082B0CD0FB7B092B06D0FB7B52
:103220000A2B01D107231AE0002318E04FF4404392
:1032300015E00F2313E0002311E000230FE04FF609
:10324000FF730CE000230AE04FF47F4307E040F6F1
:10325000FF7304E04FF6C07301E040F2FF33BA6839
:10326000D34003F00103002B04D140F21D11394873
:10327000FDF76CF8BB7B002B0DD07B68002B05D0D5
:10328000FB7BB9681846FFF71FFE04E0FB7BB968BB
:103290001846FFF7B1FDBB68072B20D82E49FA7BF3
:1032A00013465B0013441B010B4404331A68BB68CC
:1032B0009B000F2101FA03F3DB431340B97BBA688B
:1032C000920001FA02F211462348FA7B1943134691
:1032D0005B0013441B0103440433196025E01E49BD
:1032E000FA7B13465B0013441B010B4408331A6836
:1032F000BB6803F18043083B9B000F2101FA03F3F5
:10330000DB4302EA0301BA7BBB6803F18043083B5D
:103310009B0002FA03F31048FA7B194313465B0043
:1033200013441B01034408331960BB7B002B0DD1F0
:103330007B68002B05D0FB7BB9681846FFF7C4FDFE
:1033400004E0FB7BB9681846FFF756FD00BF103755
:10335000BD4680BDAC51000000A0004080B483B0E9
:1033600000AF786039607B683A68DA6300BF0C3779
:10337000BD465DF8047B704780B586B000AFF8604D
:10338000B9607A60BB681F2B03D991210848FCF70C
:10339000DDFFFB6803F10473DA00BB6813449B0094
:1033A0007B617B697A681A6000BF1837BD4680BDB3
:1033B000C051000080B586B000AFF860B9607A6097
:1033C000FEF7A4FB7861FB681A68BB68DB431A4010
:1033D0007968BB680B401A43FB681A607869FEF78E
:1033E000A5FB00BF1837BD4680BD000080B588B082
:1033F00000AFF860B9607A60FB707B68002B04D185
:1034000040F20F115448FCF7A1FF7B68002B00F03D
:103410009E80FB7803F00303FB70FB681B6823F4BA
:103420004072FB681A60F868FB781B021A464FF47A
:103430004071FFF7BFFFBB68002B16D1FB68474AFE
:10344000934204D14648FDF7CFFAB8600DE0FB681F
:10345000444A934204D14448FDF7C6FAB86004E0F8
:1034600040F229113C48FCF771FF4FF0FF33FB613C
:10347000FB681B6803F00203002B10D0FB78012BC4
:1034800007D0022B08D0002B00D019E0374BFB618E
:1034900016E0374BFB6113E0364BFB6110E0FB7825
:1034A000012B07D0022B08D0002B00D008E02F4BB7
:1034B000FB6105E0304BFB6102E0304BFB6100BF7C
:1034C000BA68FB699A4204D84FF4AF712248FCF7FE
:1034D0003DFFFB782A4AD35C7B617B697A6802FBFB
:1034E00003F33B613B69002B05D140F26F111A4891
:1034F000FCF72CFF2CE07B68DB00BA68D21A3B6932
:1035000013445A1E3B69B2FBF3F3013BBB61BB6939
:10351000002B04DA40F275110F48FCF717FFBB6966
:10352000B3F5007F04D34FF4BB710B48FCF70EFFDB
:10353000FB681B6803F00203002B04D0BB69002B5F
:1035400001D10123BB61BA69FB681A6100E000BFC9
:103550002037BD4680BD00BF2452000000C000409F
:103560000082040000C400400092040080841E0019
:10357000404B4C00809FD50040548900002D310104
:103580003852000080B582B000AF78600B46FB7007
:103590007B680B4A934208D07B680A4A934204D066
:1035A00040F28F110848FCF7D1FE7B68FA780021C1
:1035B0001846FFF7E1FE00BF0837BD4680BD00BFDB
:1035C00000C0004000C400402452000080B582B01A
:1035D00000AF786039607B68174A934208D07B68F7
:1035E000164A934204D04FF4D2711548FCF7AEFE50
:1035F0007B6800221A6413497868FFF7AFFE786889
:103600003B685B7883F00103DBB21A460121FFF7C8
:10361000B3FE3B6859683B689A683B681B7B7868D7
:10362000FFF7E4FE3B681B7819467868FFF7AAFFAE
:1036300000BF0837BD4680BD00C0004000C4004048
:1036400024520000FFFF070080B483B000AF786011
:10365000396000BF7B685A6B3B681340002BF9D17F
:1036600000BF0C37BD465DF8047B704780B582B063
:1036700000AF78600B46FB707B680D4A934204D024
:1036800040F20D110B48FCF761FE02217868FFF74C
:10369000DBFFFB78002B03D07B6801225A6002E03D
:1036A0007B6802225A6000BF0837BD4680BD00BF5C
:1036B000006004403C52000080B584B000AF7860E8
:1036C00039600023FB607B683D4A934204D04FF48D
:1036D000B5713C48FCF73AFE3B681B7883F0010368
:1036E000DBB2002B0CD07B689B6803F00103002B3E
:1036F00006D002217868FFF7A7FF7B6802225A6094
:103700003B685B78002B03D0FB6843F48053FB607D
:103710003B689B78002B03D13B68DB68002B0BD008
:10372000FB6843F40073FB603B68DB68002B03D04D
:103730003B68DA687B681A613B68DB78002B03D052
:10374000FB6843F48073FB603B681B79002B03D05C
:10375000FB6843F04003FB603B685B79002B03D0C0
:10376000FB6843F08003FB603B689B799B001A4633
:10377000FB681343FB603B68DB791B011A46FB685F
:103780001343FB603B681B7A1A46FB681343FB60DC
:103790007B68FA681A603B681B78002B0CD07B684A
:1037A0009B6803F00103002B06D102217868FFF724
:1037B0004BFF7B6801225A6000BF1037BD4680BDB9
:1037C000006004403C52000080B483B000AF7860D9
:1037D0007B680D4A93420BD07B680C4A934207D01A
:1037E0007B680B4A934203D07B680A4A934201D11B
:1037F000012300E0002303F00103DBB218460C377D
:10380000BD465DF8047B70470080014000840140A4
:1038100000A0014000A4014080B584B000AF7860F2
:1038200039607868FFF7D0FF0346002B03D19A2157
:103830003748FCF78BFD0023FB603B681B7883F067
:103840000103DBB2002B02D07B6802225A607B6846
:1038500000225A623B689B781A063B68DB781B049F
:103860001A433B689B799B021A433B68DB791B0236
:1038700013433A68127A13433A685278002A01D007
:10388000402200E0002213433A68527A002A01D015
:10389000802200E0002213433A68927A002A01D085
:1038A000202200E0002213433A68D27A002A01D095
:1038B000102200E0002213433A68127B002A01D054
:1038C000082200E000221343FB603B681B79002BB9
:1038D00002D04FF4005200E000223B685B79002BDD
:1038E00002D04FF0805300E000231343FA681343E3
:1038F000FB607B68FA681A603B681B78002B02D07B
:103900007B6801225A6000BF1037BD4680BD00BFF2
:10391000BC52000080B483B000AF78607B680D4A71
:1039200093420BD07B680C4A934207D07B680B4ACA
:10393000934203D07B680A4A934201D1012300E0FD
:10394000002303F00103DBB218460C37BD465DF8D7
:10395000047B7047008001400084014000A00140CA
:1039600000A4014080B582B000AF78600B46FB70C8
:103970007868FFF7CFFF0346002B04D14FF4517155
:103980000848FCF7E3FCFB78002B03D07B6801229E
:103990005A6002E07B6802225A6000BF0837BD46C9
:1039A00080BD00BFD052000080B588B000AF786005
:1039B0002148FDF719F8F861FB69204AA2FB0323AF
:1039C0009B097A6802FB03F39B0ABB6101211C4837
:1039D000FCF79EFF07F1080300221A605A609A6004
:1039E0001A7301233B720123FB7400233B720123F2
:1039F0003B740A23BB7200237B7207F1080319464C
:103A00001048FFF709FF0F4ABB69536201210D48B7
:103A1000FFF7A8FF00BF0B4B5B6A002BFBD1002117
:103A20000848FFF79FFF00210548FCF771FF00BF22
:103A30002037BD4680BD00BF40410500D34D621018
:103A4000000204000080014080B588B000AF502023
:103A5000FFF7AAFF01233B7101237B710023BB60A9
:103A60000A4BFB6001233B744FF470637B610123BD
:103A70003B770F23BB6101237B773B1D194604482D
:103A800000F034FB00BF2037BD4680BDDDFB0500E4
:103A900000C0004080B588B006AF78607B680493B2
:103AA0000123039300230293002301930123009336
:103AB000F5230C4A40210C4800F0D0FB7B680493AE
:103AC0000123039300230293002301930123009316
:103AD000F323064A4021044800F0C0FB00BF08372A
:103AE000BD4680BDE000002000C00040E400002092
:103AF00080B483B000AF0A4B1A6813465B019B1A6F
:103B00009B0013441B0C063B7B60054B00221A6094
:103B10007B6818460C37BD465DF8047B704700BFD4
:103B2000E000002080B483B000AF0A4B1B68B022D5
:103B300002FB03F31B0C2F3B7B607B6820337B6015
:103B4000044B00221A607B6818460C37BD465DF8AE
:103B5000047B7047E400002080B485B000AF78603B
:103B600039607B6803F1C063FB60FB683A681A60E8
:103B700000BF1437BD465DF8047B704780B485B044
:103B800000AF786039607B6803F18063FB60FB689D
:103B90003A681A6000BF1437BD465DF8047B704771
:103BA00080B582B000AF03463960FB71FB79002B12
:103BB00038D0FB79012B32D0FB79022B2CD0FB794A
:103BC000032B26D0FB79042B21D0FB79052B1BD0AE
:103BD000FB79062B16D0FB79072B11D0FB79082B2C
:103BE0000CD0FB79092B06D0FB790A2B01D10723D6
:103BF0001AE0002318E04FF4404315E00F2313E0D0
:103C0000002311E000230FE04FF6FF730CE00023C8
:103C10000AE04FF47F4307E040F6FF7304E04FF6FD
:103C2000C07301E040F2FF333A68D34003F0010370
:103C3000002B04D14FF479710C48FCF787FBFA791B
:103C400013465B0013441B010C3303F1804303F55F
:103C5000204301213A6801FA02F211461846FFF7A3
:103C60008DFF00BF0837BD4680BD00BF3853000040
:103C700080B582B000AF03463960FB71FB79002B41
:103C800038D0FB79012B32D0FB79022B2CD0FB7979
:103C9000032B26D0FB79042B21D0FB79052B1BD0DD
:103CA000FB79062B16D0FB79072B11D0FB79082B5B
:103CB0000CD0FB79092B06D0FB790A2B01D1072305
:103CC0001AE0002318E04FF4404315E00F2313E0FF
:103CD000002311E000230FE04FF6FF730CE00023F8
:103CE0000AE04FF47F4307E040F6FF7304E04FF62D
:103CF000C07301E040F2FF333A68D34003F00103A0
:103D0000002B04D140F213410C48FCF71FFBFA7959
:103D100013465B0013441B010C3303F1804303F58E
:103D2000204301213A6801FA02F211461846FFF7D2
:103D300013FF00BF0837BD4680BD00BF38530000E9
:103D400080B500AF00F018FF00F000FE00F0C6F8EC
:103D500000F002F9FFF778FE00F044FE4FF4E05364
:103D60001C220549054800F00DF80121044800F027
:103D7000B9FD00BF80BD00BF6F12033B0000404093
:103D80000060044080B590B000AFF860B9607A6020
:103D90003B607B687B613B68BB61FB683B62BB68E7
:103DA0007B6200237B7400233B7700237B77002317
:103DB0003B74002387F828300123FB62012387F836
:103DC000303002237B63012387F838300423FB6300
:103DD00007F110031946034800F05AFC00BF4037B2
:103DE000BD4680BD0060044080B500AF4FF4B070A8
:103DF000FFF750FE00F01AFE00BF80BD80B500AF97
:103E000000F0E4FD034603F00203002B03D08821F9
:103E10000248FCF79BFA00BF80BD00BF9C53000026
:103E200080B500AF00F0D2FD034603F00103002B84
:103E300003D08F210248FCF789FA00BF80BD00BF84
:103E40009C53000080B582B000AF00F0BFFD034678
:103E500003F4B073002B03D0DB210C48FCF776FA97
:103E6000FFF746FE7860FFF75DFE38607B681E2B2B
:103E700004D905210520FFF7FBFE03E005210520FD
:103E8000FFF78EFE00BF0837BD4680BD9C53000083
:103E900080B582B000AF00F099FD034603F4C07313
:103EA000002B03D0FF210C48FCF750FA00F024FE51
:103EB000786000F037FE38607B681E2B04D904213F
:103EC0000520FFF7D5FE03E004210520FFF768FE7B
:103ED00000BF0837BD4680BD9C53000080B500AFD1
:103EE00001210B48FCF714FD002200210120FDF701
:103EF000BBFB002200210020FDF7B6FB0A2105488C
:103F0000FDF756F801210448FCF702FD00BF80BD13
:103F10004041050002001E0030253E0080B483B001
:103F200000AF0346FB7197F90730002B0BDBFB79E1
:103F300003F01F02074997F907305B09012000FAD7
:103F400002F241F8232000BF0C37BD465DF8047B28
:103F5000704700BF00E100E080B582B002AF0121F0
:103F60003648FCF7D5FC00210520FFF715F80023A3
:103F7000042204210520FFF72BF900210520FFF77B
:103F80000BF80023042205210520FFF721F9012366
:103F9000012206210520FFF71BF901230122072139
:103FA0000520FFF715F90123019301230093002356
:103FB000062206210520FFF735F80123019301238E
:103FC00000930023072207210520FFF72BF812207A
:103FD000FFF7A4FF0A20FFF7A1FF012304220A2113
:103FE0000120FFF7F5F84FF001110120FEF7D4FF93
:103FF000012308220B210220FFF7EAF801230822FF
:104000000A210220FFF7E4F80123042207210120FE
:10401000FFF7DEF84FF001110120FEF7BDFF01238D
:10402000082206210120FFF7D3F8012308220721E7
:104030000120FFF7CDF800BFBD4680BD00350A0066
:1040400080B582B000AF0A4BD3F81C24084BD3F8DC
:10405000283413407B60064A7B68C2F82434054B41
:104060001B68184600F084FC00BF0837BD4680BDC1
:1040700000A000401800002080B582B000AF0A4BBD
:10408000D3F81C24084BD3F8283413407B60064A2D
:104090007B68C2F82434054B1B68184600F068FCA6
:1040A00000BF0837BD4680BD00A0004014000020BE
:1040B00080B483B000AF0346FB7197F90730002B43
:1040C0000BDBFB7903F01F02074997F907305B0907
:1040D000012000FA02F241F8232000BF0C37BD4650
:1040E0005DF8047B704700BF00E100E080B586B05A
:1040F00000AF786039607B68394A934203D101216F
:104100003848FCF705FC7B68374A934203D101210C
:104110003648FCF7FDFB7B685B6B03F00103002B6B
:1041200010D17B6801229A637B685B6B03F001030B
:10413000002B03D145212E48FCF708F97B680122AA
:10414000DA630CE07B680122DA637B685B6B03F067
:104150000103002B03D04C212548FCF7F7F83B68FE
:104160001B783B723B685B787B723B685B68FB60EB
:104170003B689B683B613B681B7B3B7507F1080311
:1041800019467868FFF722FA3B681B7E5B003A68A5
:10419000527E1A437B685A643B681A693B685B69C4
:1041A0001A437B689A647B68124ADA637B684FF42F
:1041B000F0721A647B680A4A934202D11120FFF719
:1041C00077FF7B68084A934202D12A20FFF770FFED
:1041D000786800F011F800BF1837BD4680BD00BFF9
:1041E00000C000400082040000C4004000920400AF
:1041F000B8530000C001020080B485B000AF786001
:104200007B6820225A607B681B6CFB607B681A6CA1
:10421000FB68DB431A407B681A647B685A6B7B68D7
:10422000DA637B6840225A607B6803225A6000BFD1
:104230007B685B6B03F48073002BF9D07B685A6B4F
:104240007B68DA637B6820225A607B68FA681A64AC
:1042500000BF1437BD465DF8047B704780B586B05B
:1042600000AFF860B9607A603B60022000F0A2FC09
:10427000FB683A4A93422DD1394B7B6100BF7B6981
:104280001B7F002BFBD17B691B7803F0E003002B25
:1042900003D0F5213348FCF759F87B69FA685A6076
:1042A0007B69BA689A607B697A681A617B693A6847
:1042B000DA607B693A6B1A627B693A6A5A617B6998
:1042C0007A6A9A617B6997F828201A777B6997F850
:1042D0002C205A77FB68244A93422ED1234B7B61D2
:1042E00000BF7B691B7F002BFBD17B691B7803F030
:1042F000E003002B04D04FF486711A48FCF726F82F
:104300007B69FA685A607B69BA689A607B697A68E7
:104310001A617B693A68DA607B693A6B1A627B6979
:104320003A6A5A617B697A6A9A617B6997F82820B0
:104330001A777B6997F82C205A777B6901221A77C4
:10434000FB6801225A607B6900221A70BB685A0020
:10435000FB68DA6200BF1837BD4680BD00C0004070
:10436000E8000020B853000000C400400C01002009
:1043700080B582B000AF164B1A6C154B5B6B1340C7
:104380007B60134A7B68D3637B6803F04003002B98
:1043900002D0104800F054F87B6803F08003002B33
:1043A00002D00C4800F0D0F87B6803F02003002B0B
:1043B00002D0084800F0EAF87B6803F48073002B11
:1043C00002D0044800F022F900BF0837BD4680BD86
:1043D00000C00040E800002080B582B000AF164B5E
:1043E0001A6C154B5B6B13407B60134A7B68D3637D
:1043F0007B6803F04003002B02D0104800F020F847
:104400007B6803F08003002B02D00C4800F09CF87E
:104410007B6803F02003002B02D0084800F0B6F8B8
:104420007B6803F48073002B02D0044800F0EEF8A0
:1044300000BF0837BD4680BD00C400400C0100200D
:1044400080B582B000AF78607B681B78052B6ED892
:1044500001A252F823F000BF71440000C5440000DF
:10446000E5440000ED4400001B4500002545000028
:104470007B685B7F002B17D07B68D9687B689B6962
:10448000DA007B685B6821FA02F2DA627B689B697A
:10449000002B03D17B6801221A704FE07B689B6977
:1044A0005A1E7B689A6149E07B6803221A707B6818
:1044B000D9687B689B69DA007B685B6821FA02F245
:1044C000DA623BE07B6802221A707B685B6801223B
:1044D0005A607B689B685A007B685B6842F0010207
:1044E000DA622BE07B6804221A7027E07B689B6904
:1044F0005A1E7B689A617B68D9687B689B69DA0081
:104500007B685B6821FA02F2DA627B689B69002BA8
:1045100013D17B6805221A700FE07B681B690022AB
:104520001A600BE07B685B6802225A6006E040F28A
:10453000E5110448FBF70AFF00E000BF00BF0837A1
:10454000BD4680BDB853000080B582B000AF786032
:104550007B681B78022B0CD17B685B6801225A6058
:104560007B689B685A007B685B6842F00102DA62F4
:1045700005E040F203210448FBF7E8FE00BF00BF5E
:104580000837BD4680BD00BFB853000080B582B07B
:1045900000AF78607B681B78042B2AD17B685B684E
:1045A000D9697B681B691A687B681B690A431A60B2
:1045B0007B685B69002B10D07B681B691A687B687D
:1045C0001B6912021A607B685B6804225A607B6870
:1045D0005B695A1E7B685A6111E07B6805221A707C
:1045E0007B685B6808225A607B685B6802225A60BD
:1045F00005E040F22D210448FBF7A8FE00BF00BFF4
:104600000837BD4680BD00BFB853000080B582B0FA
:1046100000AF78607B681B78052B0ED17B68052284
:104620001A707B6800221A77022000F0E9FA7B6892
:104630001B6A184600F09CF905E04FF41871044815
:10464000FBF784FE00BF00BF0837BD4680BD00BF3A
:10465000B853000080B483B000AF0346FB7197F9F4
:104660000730002B0BDBFB7903F01F02074997F99A
:1046700007305B09012000FA02F241F8232000BF55
:104680000C37BD465DF8047B704700BF00E100E0D9
:1046900080B588B000AF786039603B68DB695F4AFD
:1046A00013603B685B6A5E4A13603B68DB6A5D4A85
:1046B00013607B685C4A934203D101215B48FCF79D
:1046C00027F90021786800F00DF97B6801225A6013
:1046D00000BF7B685B6B002BFBD17B689B6803F0A2
:1046E0000103002B03D163215148FBF72FFE7B68A8
:1046F00002225A6000BF7B685B6B002BFBD17B689A
:104700000022DA600023FB720123BB723B681B7836
:104710007B723B685B783B7200233B7300237B73A7
:1047200000233B740323BB730323FB7307F10803CC
:1047300019467868FEF7C0FF00BF7B685B6B002BF3
:10474000FBD13B68D3ED047A9FED3A7A67EE877A26
:10475000FCEEE77A17EE903AFB613B68D3ED057A01
:104760009FED347A67EE877AFCEEE77A17EE903A9F
:10477000BB617B68FA691A617B68BA695A613B68F8
:104780005A683B689B681A437B685A643B681B7B8A
:104790001A463B685B7B5B001A437B681A647B6844
:1047A00003229A617B680322DA617B6807229A629E
:1047B0007B68DB6A3A68127E1A437B68DA627B6840
:1047C000DA6A3B6893F820305B001A437B68DA6250
:1047D0007B68DA6A3B6893F828309B001A437B6851
:1047E000DA623B68DB690D4A13603B685B6A0C4A1E
:1047F00013603B68DB6A0B4A13607B689B6803F0BD
:104800000103002B02D0042000F0D4F91B20FFF795
:1048100021FF00BF2037BD4680BD00BF3001002012
:10482000340100203801002000600440800616009A
:10483000D453000000007A4480B582B000AF244B0E
:104840001A6A234BDB6A13407B60214A7B689362C0
:104850007B6803F00103002B0ED01E4B1B6818462B
:1048600000F086F81A4B1B6A03F00103002B03D0FB
:10487000CB211948FBF76AFD7B6803F00203002B8C
:104880000ED0164B1B68184600F072F8104B1B6ACE
:1048900003F00203002B03D0D1210F48FBF756FD94
:1048A0007B6803F00403002B0ED00D4B1B681846E9
:1048B00000F05EF8064B1B6A03F00403002B03D0E4
:1048C000D7210548FBF742FD00BF0837BD4680BD34
:1048D0000060044030010020D45300003401002067
:1048E0003801002080B582B000AF78600B46FB70C5
:1048F0007B689B6803F00103002B0AD1FB78002B37
:1049000007D0042000F056F900BF7B685B6B002BDA
:10491000FBD17B689B6803F00103002B0DD0FB7873
:1049200083F00103DBB2002B07D0042000F068F90C
:1049300000BF7B685B6B002BFBD1FB781946786866
:10494000FEF794FE00BF0837BD4680BD80B582B03B
:1049500000AFFDF7DBF87860044B00221A6078683E
:10496000FDF7E4F800BF0837BD4680BD3C010020DC
:1049700080B584B000AF7860FDF7C8F8F860064BEA
:104980001A687B681343044A1360F868FDF7CEF891
:1049900000BF1037BD4680BD3C01002080B584B00B
:1049A00000AF7860FDF7B2F8F8607B68DA43064B39
:1049B0001B681340044A1360F868FDF7B7F800BF9E
:1049C0001037BD4680BD00BF3C01002080B400AF61
:1049D000034B1B681846BD465DF8047B704700BF5B
:1049E0003C01002080B588B000AF01233B7101235A
:1049F0007B710023BB600B4BFB6001233B744FF4C6
:104A0000C0637B6101233B770623BB6101237B7776
:104A10003B1D19460448FFF769FB00BF2037BD4620
:104A200080BD00BFDDFB050000C4004080B586B03E
:104A300006AF2E4B00221A602D4B00221A60022076
:104A4000FEF7B2FF00230493002303930023029395
:104A5000012301930023009343F21753234A70214B
:104A60002448FFF7FBFB0220FEF79EFF0023049380
:104A70000123039300230293012301930123009355
:104A800045F6E003194A70211A48FFF7E7FB0220B8
:104A9000FEF78AFF0023049301230393002302936C
:104AA000012301930123009347F66603104A702106
:104AB0001048FFF7D3FB0220FEF776FF4FF4C073D8
:104AC0000493002303930023029301230193002303
:104AD00000934BF29803054A70210648FFF7BEFB8E
:104AE0000220FEF761FF00BFBD4680BD40010020EF
:104AF0004401002000C4004080B483B000AF084BE4
:104B00001B68642202FB03F31B0C7B60044B002236
:104B10001A607B6818460C37BD465DF8047B704709
:104B20004001002080B483B000AF0A4B1B68AF2265
:104B300002FB03F31B0C2D3B7B60064B00221A602B
:104B40007B6820337B607B6818460C37BD465DF878
:104B5000047B70474401002080B400AF054B1B6903
:104B6000044A23F00403136130BF00BFBD465DF863
:104B7000047B704700ED00E080B582B000AFFCF729
:104B8000C5FF386000237B6007E0094A7B6800218D
:104B900042F823107B6801337B607B68042BF4DDD3
:104BA0003868FCF7C3FF00BF0837BD4680BD00BFB3
:104BB0004801002080B584B000AF7860FCF7A6FF04
:104BC000F8600D4A7B6852F823305A1C0A497B680A
:104BD00041F82320084A7B6852F82330042B03DD78
:104BE0005D210648FBF7B2FBF868FCF79FFF00BFAA
:104BF0001037BD4680BD00BF48010020F4530000BF
:104C000080B584B000AF7860FCF780FFF8600D4A93
:104C10007B6852F823305A1E0A497B6841F82320EA
:104C2000084A7B6852F82330002B03DA7A210648C1
:104C3000FBF78CFBF868FCF779FF00BF1037BD4627
:104C400080BD00BF48010020F453000080B582B051
:104C500000AFFCF75BFF7860104B1B68002B15DC86
:104C60000E4B5B68002B11DC0C4B9B68002B02DDAC
:104C7000FFF772FF0AE0094BDB68002B03DD012020
:104C8000FDF748F902E00120FDF78CF97868FCF7A0
:104C90004DFF00BF0837BD4680BD00BF4801002062
:104CA00080B400AF044BDB6C1B0EDBB21846BD4674
:104CB0005DF8047B704700BFB081E00F80B582B023
:104CC00000AF194B01225A64FFF7EAFF0346FB715C
:104CD000FB79002B0CD1154B4AF6E8521A60144BA5
:104CE0001B68134A43F004031360104B00221A6040
:104CF000FB79012B05D80F4B1B680E4A43F4005378
:104D000013600D4B1B6A23F444130B4A43F48813BE
:104D100013620A4B1B68094A43F4F843136000BF4F
:104D20000837BD4680BD00BF00000E4090310E40E8
:104D300098310E4064310E4000400E40A4310E40C8
:104D4000B0B58CB000AF414B07F11C040FCB84E829
:104D50000F003F4B07F108041D460FCD0FC42B6811
:104D60002380FFF7ABFF00233B7100237B7107F12A
:104D70001C031846FDF7DCFC02237B713B1D184623
:104D8000FDF708FA07F108031846FCF7EBFB31487A
:104D9000FCF72CFB012201210320FCF765FC052117
:104DA0001120FCF705F9002200210220FCF75CFC31
:104DB000FEF7C6FFFCF7AAFEF862FFF707FE034600
:104DC000002B01D1FFF742FFF86AFCF7AFFEFFF7B7
:104DD000FDFD034603F00103002B04D00120FFF783
:104DE000DDFDFFF71DF8FFF7F1FD034603F00203B9
:104DF000002B04D00220FFF7D1FDFEF7FFFFFFF7E5
:104E0000E5FD034603F00403002B04D00420FFF764
:104E1000C5FDFEF7E9FFFFF7D9FD034603F4B073C4
:104E2000002B05D04FF4B070FFF7B8FDFFF70AF87C
:104E3000FFF7CCFD034603F4C073002BBAD04FF448
:104E4000C070FFF7ABFDFFF723F8B3E71C54000079
:104E50002C5400000048E80108B5074B044613B184
:104E60000021AFF30080054B1868836A03B19847AF
:104E7000204600F031F800BF000000004054000060
:104E800070B50D4E0D4CA41BA4100025A54209D1F0
:104E90000B4E0C4C00F022F8A41BA4100025A542D8
:104EA00005D170BD56F8253098470135EEE756F824
:104EB000253098470135F2E7A4000020A400002027
:104EC000A4000020A800002002440346934200D121
:104ED000704703F8011BF9E7FEE700BFF8B500BF14
:104EE000F8BC08BC9E467047F8B500BFF8BC08BCCB
:104EF0009E467047000000005FF800F07D00002033
:104F0000633A5C73696C69636F6E6C6162735C7346
:104F1000696D706C696369747973747564696F5CC9
:104F200076355C646576656C6F7065725C73646B16
:104F3000735C6765636B6F5F73646B5F73756974D4
:104F4000655C76332E325C706C6174666F726D5C7A
:104F5000656D6C69625C696E635C656D5F636F6DE6
:104F60006D6F6E2E68000000633A5C73696C696354
:104F70006F6E6C6162735C73696D706C6963697488
:104F80007973747564696F5C76355C646576656C9D
:104F90006F7065725C73646B735C6765636B6F5F86
:104FA00073646B5F73756974655C76332E325C7005
:104FB0006C6174666F726D5C656D6C69625C696E64
:104FC000635C656D5F6275732E680000633A5C73A5
:104FD000696C69636F6E6C6162735C73696D706C30
:104FE000696369747973747564696F5C76355C6440
:104FF0006576656C6F7065725C73646B735C676516
:10500000636B6F5F73646B5F73756974655C763334
:105010002E325C706C6174666F726D5C656D6C696C
:10502000625C696E635C656D5F636D752E68000020
:105030002E2E2F656D6C69622F656D5F636D752E09
:105040006300000040787D0100000000005A620209
:1050500000010000C0CF6A0002000000809FD50060
:1050600002010000002D310102020000633A5C736E
:10507000696C69636F6E6C6162735C73696D706C8F
:10508000696369747973747564696F5C76355C649F
:105090006576656C6F7065725C73646B735C676575
:1050A000636B6F5F73646B5F73756974655C763394
:1050B0002E325C706C6174666F726D5C656D6C69CC
:1050C000625C696E635C656D5F6275732E6800007B
:1050D0002E2E2F656D6C69622F656D5F656D752E67
:1050E00063000000633A5C73696C69636F6E6C61A6
:1050F00062735C73696D706C6963697479737475DC
:1051000064696F5C76355C646576656C6F7065723A
:105110005C73646B735C6765636B6F5F73646B5F19
:1051200073756974655C76332E325C706C6174667D
:105130006F726D5C656D6C69625C696E635C656DF8
:105140005F6275732E680000633A5C73696C696313
:105150006F6E6C6162735C73696D706C69636974A6
:105160007973747564696F5C76355C646576656CBB
:105170006F7065725C73646B735C6765636B6F5FA4
:1051800073646B5F73756974655C76332E325C7023
:105190006C6174666F726D5C656D6C69625C696E82
:1051A000635C656D5F6770696F2E68002E2E2F65DA
:1051B0006D6C69622F656D5F6770696F2E630000AB
:1051C000633A5C73696C69636F6E6C6162735C7384
:1051D000696D706C696369747973747564696F5C07
:1051E00076355C646576656C6F7065725C73646B54
:1051F000735C6765636B6F5F73646B5F7375697412
:10520000655C76332E325C706C6174666F726D5CB7
:10521000656D6C69625C696E635C656D5F62757318
:105220002E6800002E2E2F656D6C69622F656D5FF4
:105230006932632E63000000080911082E2E2F65C5
:105240006D6C69622F656D5F6C6574696D65722E3A
:1052500063000000633A5C73696C69636F6E6C6134
:1052600062735C73696D706C69636974797374756A
:1052700064696F5C76355C646576656C6F706572C9
:105280005C73646B735C6765636B6F5F73646B5FA8
:1052900073756974655C76332E325C706C6174660C
:1052A0006F726D5C656D6C69625C696E635C656D87
:1052B0005F74696D65722E68000000002E2E2F65E8
:1052C0006D6C69622F656D5F74696D65722E630028
:1052D000633A5C73696C69636F6E6C6162735C7373
:1052E000696D706C696369747973747564696F5CF6
:1052F00076355C646576656C6F7065725C73646B43
:10530000735C6765636B6F5F73646B5F7375697400
:10531000655C76332E325C706C6174666F726D5CA6
:10532000656D6C69625C696E635C656D5F74696D07
:1053300065722E6800000000633A5C73696C6963F3
:105340006F6E6C6162735C73696D706C69636974B4
:105350007973747564696F5C76355C646576656CC9
:105360006F7065725C73646B735C6765636B6F5FB2
:1053700073646B5F73756974655C76332E325C7031
:105380006C6174666F726D5C656D6C69625C696E90
:10539000635C656D5F6770696F2E68002E2E2F73DA
:1053A00072632F536F757263655F46696C65732F07
:1053B0006170702E630000002E2E2F7372632F53C6
:1053C0006F757263655F46696C65732F6932632E12
:1053D000630000002E2E2F7372632F536F7572635C
:1053E000655F46696C65732F6C6574696D65722EB7
:1053F000630000002E2E2F7372632F536F7572633C
:10540000655F46696C65732F736C6565705F726F5D
:105410007574696E65732E63000000000002080752
:1054200005000A00C8000000FFFF010001000000A5
:10543000A00068010A200706020A04070000000015
:085440001C0000200000000028
:0854480004ADFF7F010000002C
:10545000005A620200800000C0EA2101C0EA210176
:10546000C0EA210116000000080000000000000052
:10547000000000000000000000000000000000002C
:10548000000000000000000000000000000000001C
:10549000000000000000000000000000000000000C
:1054A00000000000000000000000000000000000FC
:1054B00000000000000000000000000000000000EC
:1054C00000000000000000000000000080B483B075
:1054D00000AF074B1B6843F000437B6030BF044ABA
:1054E0007B68136000BF0C37BD465DF8047B7047D6
:0C54F0004C310E40310100000D010000A5
:04000003000001C137
:00000001FF
