S01800004D535F436F757273655F50726F6A6563742E73333736
S113000000000420C1010000ED010000ED0100002A
S1130010ED010000ED010000ED010000ED01000024
S1130020ED010000ED010000ED010000ED01000014
S1130030ED010000EC010000ED010000ED01000005
S1130040ED010000ED010000ED010000ED010000F4
S1130050ED010000ED010000ED010000ED010000E4
S1130060ED010000ED0100003D1F0000ED01000066
S1130070ED010000ED010000ED010000ED010000C4
S1130080ED010000B9210000211F0000ED01000076
S1130090ED010000ED010000ED010000ED010000A4
S11300A0ED010000ED010000ED01000091220000CF
S11300B0ED010000ED010000ED010000ED01000084
S11300C0ED010000ED010000ED010000ED01000074
S11300D0ED010000ED010000ED010000ED01000064
S11300E0ED010000ED01000025220000ED010000FB
S11300F0ED010000ED010000ED010000ED01000044
S1130100ED010000ED010000ED01000010B5054C0B
S1130110237833B9044B13B10448AFF300800123AF
S1130120237010BD90000020000000001C29000076
S113013008B5034B1BB103490348AFF3008008BD66
S113014000000000940000201C290000154B002B27
S113015008BF134B9D46A3F5803A00218B460F46FA
S11301601348144A121A02F08DFB0F4B002B00D0D7
S113017098470E4B002B00D0984700200021040024
S11301800D000D48002802D00C48AFF3008002F0A7
S113019055FB2000290002F079FA02F03BFB00BF76
S11301A0000008000000042000000000000000001F
S11301B0900000203C01002000000000000000002E
S11301C0064880470649074A074B9A42BEBF51F882
S11301D0040B42F8040BF8E7FFF7B8FF81020000B4
S11301E0282900000000002090000020FEE700BF46
S11301F000487047005A6202114BD3F8943003F060
S11302000703023B032B18D8DFE803F00D02141098
S11302104FF400400A4BD3F80031C3F304230133F5
S1130220B0FBF3F07047074B1868F3E7064B186808
S11302304008EFE7054B1868ECE7034B1868E9E75B
S113024000400E4004000020080000200C000020A4
S113025008B5FFF7D1FF054B054AD3F80831C3F3BE
S113026008230133B0FBF3F0106008BD00400E40DA
S113027000000020014B1868704700BF04000020F4
S1130280044B054A9A60D3F8882042F47002C3F8FC
S11302908820704700ED00E0000000004FF40040AB
S11302A0704700BF4FF47A70704700BF014B186865
S11302B0704700BF0C00002010B4134B134A5B6856
S11302C00024C9B28C42234608D00133052B02F125
S11302D0080215D012F8084C8C42F6D152F80C4C96
S11302E08442F2D30A4A02EBC3035B791A06064935
S11302F05DF8044B4B6823F0407313434B60704725
S11303004FF04072F3E700BF00000E40D428000015
S1130310C8280000224B98423AD01AD9214B98425F
S11303203AD00CD8204B984225D003F5371303F567
S1130330D86398422AD11D4BD3F8A00070471C4BB8
S1130340984214D01B4B984220D1184BD3F8B000DC
S11303507047194B984215D011D9184B984211D0B7
S1130360174B984212D1114BD3F88C0070470F4BA6
S1130370D3F8AC0070470D4BD3F89C007047114B79
S1130380984203D1094BD3F880007047002070478E
S1130390064BD3F898007047044BD3F8A800704775
S11303A0405DC60080BA8C010024F400B081E00FE7
S11303B00048E80180D5430280841E0000093D0006
S11303C0C0CF6A0040420F0038B5074C41F6713384
S11303D0256C2364FFF70CFF0021FFF76DFF0DB1BF
S11303E00023236438BD00BF00000E400C4A0D4BAF
S11303F0D2F89010516A21F0300141F0100110B48C
S11304005162146BC0F3C311033123400F2928BF79
S11304100F21034343EA017313635DF8044B7047F0
S113042000400E4000F8FF0F38B5054C41F671331B
S1130430256C2364FFF740FF0DB10023236438BD0E
S113044000000E40C0F30323013B30B4092B0CD849
S1130450DFE803F00D110B0B152D190B2705164CB6
S1130460C0F3043020448000016030BC7047C0F306
S11304700430124CF6E7C0F30430114CF2E7C0F339
S11304800430104CEEE7104CC0F3043010250F4B31
S1130490D3F84421D207E5D4D3F840212A42FBD132
S11304A0E0E7C0F304300A4C4FF48035EFE7C0F3C3
S11304B00430084C0125EAE7800AF2100000F2102B
S11304C00006F2108005F2104007F21000400E40C2
S11304D08007F2100007F210C0F30313013B092B4D
S11304E053D8DFE803F00E141A2452522A303F0581
S11304F0304B984249D1304BD3F8300100F003001F
S113050070472D4BD3F80001C0F3042070472A4BE9
S1130510D3F81401C0F304207047274BD3F800012B
S1130520C0F30060431C0120984001387047224BFF
S1130530D3F80C01C0F3082070471F4BD3F808010F
S1130540C0F3082070471D4B984229D01C4B984299
S11305501BD1194BD3F820310120C3F30113984068
S113056001387047174B984211D003F5B01303F5C7
S11305708053984209D1104BD3F82801C0F30120CD
S1130580031D0120984001387047002070470A4B32
S1130590D3F828310120C3F3011398400138704780
S11305A0054BD3F82031012003F00F0398400138A4
S11305B0704700BFA009140000400E4080061600DA
S11305C080162E0090171A0000F00F00013807283B
S11305D047D8DFE800F0121D3346283E4604264B78
S11305E0D3F85C3103F03003202B40D0302B40D0C3
S11305F0102B0CBF0720012070471F4BD3F89430F9
S113060003F00703023B052B2FD81C4AD05C70472C
S1130610194BD3F8803003F00703013B032B22D896
S1130620174AD05C7047144BD3F8883003F00703A3
S1130630013B032B17D8134AD05C70470E4BD3F8F9
S1130640843003F00703013B032B0CD80E4AD05C23
S11306507047094B1B6F13F0010F14BF09200720CB
S11306607047002070470120704705207047042020
S113067070470820704700BF00400E40B8280000B3
S1130680C0280000C0280000C428000008B50146A6
S1130690FFF79AFF1E4B99422FD01E4B994226D04A
S11306A01D4B99421DD00138032803D8DFE800F020
S11306B01511042B002008BDFFF79EFD174BD3F83E
S11306C00031C3F300635A1C01239340B0FBF3F0E1
S11306D008BDBDE80840FFF7E9BDBDE80840FFF7E5
S11306E0DDBD0E4BD3F8800000F00700DBE70B4BB9
S11306F0D3F8880000F00700D5E7084BD3F884004E
S113070000F00700CFE7BDE80840FFF7CBBD00BF0E
S1130710030020000500240002001E0000400E40DB
S113072000F47813B3F5B01F10B500F0AB8019D9FD
S1130730B3F5101F00F0B8804DD9B3F5401F29D090
S11307406AD9B3F5481F3ED0B3F5781F4CD104469F
S1130750FFF752FD01462046FFF7BEFE0130B1FB14
S1130760F0F010BDB3F5202F29D04CD9B3F5602F8C
S11307701ED05ED9B3F5801F2AD0B3F5A01F33D1A4
S11307805548FFF783FF554BD3F8303103F003038B
S1130790D84010BD5248FFF779FF504BD3F82831A9
S11307A0C3F301231A1D01239340B0FBF3F010BDE2
S11307B04C48FFF709FF07280AD0092814D1BDE8DF
S11307C01040FFF719BD4848FFF7FEFE072870D117
S11307D0464B186810BDB3F5F01F60D0B3F5001F89
S11307E035D0B3F5D01F01D0002010BD3C48FFF731
S11307F04DFF3A4BD3F828210123C2F30112934051
S1130800B0FBF3F010BDB3F5003F30D0B3F5802F4B
S113081022D0002BE8D1D2E7B3F5381FE4D1344815
S1130820FFF734FF2D4BD3F82031C3F30113D84025
S113083010BDB3F5402FD7D1FFF7DEFC274BD3F81B
S11308401431C3F304230133B0FBF3F010BD244887
S1130850BDE81040FFF71ABFFFF7CEFC1F4BD3F8DB
S11308600C31C3F308230133B0FBF3F010BDFFF7E1
S1130870C3FC1A4BD3F80831C3F308230133B0FB8C
S1130880F3F010BD1A48FFF701FF144BD3F82021F1
S1130890012302F00F029340B0FBF3F010BD1448A3
S11308A0BDE81040FFF7F2BE0B48BDE81040FFF76B
S11308B0EDBE082805D0042896D1BDE81040FFF706
S11308C0D9BCFFF799FC054BD3F80031C3F30423DB
S11308D003FB000010BD00BF0500240000400E40D3
S11308E00300200006000E00B800320010000020B3
S11308F002001E002DE9F0410546FFF70BFD504BA9
S1130900074611201E681D60FFF75EFE052800F0F3
S11309108B804C4B1C68002CFCD14B4B9D4266D009
S11309204A4B9D4259D04A4B9D4220D01120FFF79B
S11309304BFE052824D1474B9D427DD946490120D1
S11309408D428CBF4FF000714FF08071434B444A8D
S11309501860D2F8003123F080730B43B542C2F81B
S113096000310FD90121284600F05EFD0AE027F08E
S1130970C06747F080671120FFF726FE052833D0B3
S1130980B542EFD8364B11201F61FFF71DFE052835
S113099032D0FFF731FC2F4B98421CD92E4B012447
S11309A098428CBF4FF000734FF080732B492C4A50
S11309B00C60D2F8000120F080701843B542C2F8F0
S11309C0000103D80121002000F02EFD1120BDE814
S11309D0F041FFF7F9BD0023E8E71120FFF7F4FD2C
S11309E0052827F0C067CBD100200146AEE727F0E9
S11309F0C06747F00077BEE7FFF72AFC194B1B6876
S1130A005B0614D5184B194F5968D7F8408041F646
S1130A107133C1F301413B64FFF74EFCB8F1000FA1
S1130A20B7D000233B64B4E7FFF7CEFC71E7104A6C
S1130A301368002BFCD1E5E72046214686E700BF7A
S1130A40080000206028C84380841E0000093D007F
S1130A5040420F000048E8010090D0034000C84322
S1130A6000400E403C300E4000300E4000000E406E
S1130A70C800C6430F4B5B6A13F0300F06D0202921
S1130A8014D0302902D009B10B4A01E04FF44002DE
S1130A900849D1F8903032EA0303FAD1530246BF31
S1130AA0D1F8A000C0F38020012070474FF4000269
S1130AB0EEE700BF00400E40FF33E107F8B504281D
S1130AC018D8DFE800F03018374D52003F4C1C4472
S1130AD0A40000213E4B1D662368002BFCD04AB1C4
S1130AE03A4C3444A4002368002BFCD0022801D1E2
S1130AF0002948D1F8BD8024402506230726002973
S1130B00E4D10120984032490C66D1F89030034278
S1130B10FBD1002AEED001222D49B240D1F8903009
S1130B201342FBD1F8BD4FF400744FF480750823D1
S1130B300926E4E7002944D0254B5C6A14F0300F01
S1130B4018D1244CE46B5C6AE40718D55D6A224C26
S1130B5025F0300545F010055D6203260425B9E74C
S1130B6001252E4602240023C9E72024102504234E
S1130B700526C4E7184C042503260021AAE7164CD1
S1130B8004250326A6E7124A114E516A11F0010109
S1130B901FBF20214FF48063C2F8A8305166FFF7CD
S1130BA069FFD6F89C70012200210220FFF786FF1E
S1130BB0C7F30A00FFF71AFC35662368002BFCD044
S1130BC0F8BD0420082403269DE700BF8004F2102A
S1130BD000400E4000300E400812C8431128F8B5FA
S1130BE00C460DD000F00F000138072807D8DFE8C5
S1130BF000F00C6466063F5B062904232B60F8BDF5
S1130C00042900F0908005295BD00025023C0A2CC1
S1130C10F5D801A353F824F03D0E0000050E0000A2
S1130C200B0E0000250E0000FF0B0000FF0B000060
S1130C30FF0B0000FF0B0000FF0B00007B0D00000A
S1130C40430E00004C1E072CD9D801A353F824F0FE
S1130C50770D0000FF0B0000FF0B0000690D000082
S1130C60FF0B0000FF0B00005B0D0000470D0000B0
S1130C707D4D013C092CC2D801A353F824F000BFD8
S1130C80230D0000150D0000070D0000FF0B0000F0
S1130C90FF0B0000D70C0000FF0B0000FF0B00004F
S1130CA0FF0B0000FB0B0000072900F0CF8009298F
S1130CB0A5D16E4B01221A67F8BD6D4DD9E76D4D74
S1130CC0D7E76D4A6D4B15689D429ED90021284691
S1130CD000F0AAFB9AE7FFF78FFA694B984229D8EC
S1130CE000231C466749614A0C60D2F8000101F5F3
S1130CF0AE51083120F0807018430124C2F800017D
S1130D0003230C607AE7012211461046FFF7D6FE52
S1130D10012373E7012211460020FFF7CFFE0223CF
S1130D206CE700236AE7FFF7A5FA054600283FF4BD
S1130D306CAFCBE7544B012498428CBF4FF0007347
S1130D404FF08073CEE73021484AD2F85C3123F06B
S1130D5030030B43C2F85C31F8BD01221146042074
S1130D60FFF7ACFE1021EFE7012211460220FFF746
S1130D70A5FE2021E8E70021E6E70320052401225F
S1130D801146FFF79BFEFFF71FFB1DB13F4B1B688E
S1130D905A0664D5354B5C67FFF75AFA0646FFF7E7
S1130DA02BFA374B98424ED9374B012498428CBFCB
S1130DB04FF000734FF0807332492C4A0C60D2F824
S1130DC00001324920F080701843C2F800010B681A
S1130DD05B063FD52E4B2F4C5968276C41F6713377
S1130DE03046C1F301412364FFF766FA0FB10023D3
S1130DF02364002D7FF403AF28460121BDE8F840A9
S1130E0000F012BB01200324B9E71E4B174A01214D
S1130E101960D2F80031022043F08073C2F8003127
S1130E200446ACE7174B114A01241C60D2F8003188
S1130E3043F08073C2F800310320A0E700200424AB
S1130E409DE707249FE700231C46B5E7074B0022D4
S1130E501A67F8BD104A1368002BFCD1BAE70E4A92
S1130E601368002BFCD195E788400E4000400E40EB
S1130E7080400E4084400E4008000020002D3101C7
S1130E800048E8014000C8430090D0033C300E40C5
S1130E9000300E4000000E40C800C64338B504467A
S1130EA01120FFF791FB012200210220FFF706FE2B
S1130EB0174A257C536A1749207823F00103022D31
S1130EC008BF43F0010353620860A388617AE58890
S1130ED041EAC321D162136B207AA17A03F07F63C4
S1130EE00B43C11C43EAC5230F2943EAC01328BF9F
S1130EF00F2143EA01731363A37B657BE07B217BB2
S1130F001B0143EA0533034343EA0143536338BDFA
S1130F1000400E40A004C843EFF3108072B670473F
S1130F2000B962B6704700BF42EA032340F20112DF
S1130F3093425BD0B3F5817F14D340F201229342F4
S1130F404BD030D9B3F5407F24D040F201329342E4
S1130F503ED12B4BD3F878311A0EC3F30743036009
S1130F600A607047012B2AD00BD3B3F5807F2FD1B1
S1130F70234BD3F86C311A0EC3F3074303600A60A2
S1130F8070471F4BD3F86C31C3F30722DBB2036005
S1130F900A6070471A4BD3F870311A0EC3F3074333
S1130FA003600A607047B3F5007F11D1144BD3F886
S1130FB07031C3F30722DBB203600A607047104B41
S1130FC0D3F87431C3F30722DBB203600A607047BD
S1130FD00022134603600A607047094BD3F8783146
S1130FE0C3F30722DBB203600A607047044BD3F8F3
S1130FF074311A0EC3F3074303600A60704700BFDD
S1131000B081E00F044B1B69C3F30443082B02D1E6
S1131010024B034A1A60704700400E40080000204B
S1131020C0EA2101154B0228D3F8803122D00328CD
S11310301ED0012814BFDBB2C3F307231B0323F420
S1131040704241B992B90E49CA6E22F470421343F8
S1131050CB66012070474AB90949D1F8EC2022F443
S113106070421343C1F8EC300120704700207047F0
S11310701B0EE3E7C3F30743E0E700BFB081E00FD3
S113108000300E400E4B1A6852060FD41B685B06E4
S113109011D50C4B19685A68C1F30121C2F30142FE
S11310A091421A6803D822F010021A60704742F085
S11310B010021A607047044A1368002BFCD1E8E759
S11310C03C300E4000300E40C800C6430F4A08B5FD
S11310D00F4BD2F890201A601120FFF775FA0D4BD0
S11310E00D4A1B6810705B060AD50C4B0C485B68F4
S11310F006490C4AC3F3014303700B69136008BD2E
S1131100094A1368002BFCD1EFE700BF00400E40F2
S1131110AC0000203C300E40B600002000300E40F1
S1131120BD000020B8000020C800C6432E4B1B6839
S11311305B0670B507D42D4B2D491A781023C2F1E4
S1131140020293400B612B4B2B4DD3F8804126496F
S113115045F60E02C3F88021286840F25512024079
S11311601A660B685E0604F0010426D5204B1B6842
S1131170D80617D51F4AD2F84031D901FBD41F4EE7
S11311801F4B31781B68136105291BD01120FFF711
S113119025FD2B68DB070CD51CB1164B0022C3F8C8
S11311A0802170BD154E31780529EFD12B68DB07FE
S11311B0F2D4104B02221A66EEE7124A1368002B8F
S11311C0FCD1D3E7084B104A1B6810685A0606D5B1
S11311D0074B5968C1F30141FFF726F9E3E7094AD0
S11311E01368002BFCD1F3E73C300E40BD00002017
S11311F000300E4000400E40AC000020B60000203D
S1131200B8000020C800C64308000020704700BF93
S1131210704700BF10B5044678BBFFF733FF184A88
S1131220136943F004031361FFF7F0FF154B1B68C8
S1131230DA061BD430BFFFF7EBFF7CB9114B1B68F8
S1131240DB0608D4104A136823F000431360BDE89A
S11312501040FEF7FDBFFFF7D5FEF3E7FFF766FF8B
S1131260094A136823F00043136010BDFFF754FECE
S113127001F01EFBFFF754FEDDE7FFF727FFCCE785
S113128000ED00E000300E404C310E4010B5044635
S113129000283ED1FFF7F6FE1F4BD3F880214FF410
S11312A0207145F60E00C3F880011966D10744BFCA
S11312B00022C3F88021194A136943F0040313611F
S11312C0FFF7A4FF164B1B68DA061BD430BFFFF7E9
S11312D09FFF7CB9124B1B68DB0608D4114A1368C4
S11312E023F000431360BDE81040FEF7B1BFFFF7E1
S11312F089FEF3E7FFF71AFF0A4A136823F0004355
S1131300136010BDFFF708FE01F0D2FAFFF708FEE4
S1131310DDE7FFF7DBFEBDE700400E4000ED00E037
S113132000300E404C310E40244B1A68520622D431
S11313301B682DE9F0415C061ED5214E7368C3F38A
S11313400143984215D01F4B0446D3F800310D4693
S1131350FEF752FFC4F102071023022C804603FA61
S113136007F71AD037611DB1144B1B685A061ED5F6
S11313706CB1BDE8F0817047134A1368002BFCD1AF
S11313800F4E7368C3F301439842DCD1F1E7214661
S11313904046BDE8F041FFF747B82146FFF744F85F
S11313A03761002DE5D0054B1B685B06E1D4064A86
S11313B01368002BFCD1002CDBD1E8E73C300E4055
S11313C000300E4000400E40C800C64340B1134BED
S11313D01B7813B1124B98421BD90020FFF7A4BF0E
S11313E010B5104B82B0D3F800410191FEF704FF11
S11313F00A4B01991B78C4F3042404FB000013B1C5
S1131400074B984208D9002002B0BDE81040FFF70E
S11314108BBF0220FFF788BF0220F5E7BC00002045
S1131420002D310100400E40034B1B685B0601D4C4
S1131430FFF7CCBF704700BF3C300E4006494278EE
S11314400B6823F4407343EA0223022A0B6004BFAF
S1131450024B5B6A704700BF00300E4000400E40F4
S1131460244A4AF6E85310B4546B5363936FDB0772
S1131470FCD4136C13F0030322D01F4A01218342CE
S113148011601AD0032B02D1431E012B1FD9194A14
S1131490936FDB07FCD4136C164923F00303034357
S11314A013648B6F13F00103FBD10030124A18BF91
S11314B00120012C106000D14B635DF8044B704790
S11314C00028E1D10C4B5DF8044B18607047094AC1
S11314D04FF40023D362936FD907FCD4136C0549EE
S11314E023F0030343F0010313644B6A1A03FCD58E
S11314F0CDE700BF00300E40B40AC6432DE9F04FDB
S1131500A0F5E16489B00023B4F5966FCDE9023308
S1131510CDE90433CDE9063370D8514BB0F5E16F12
S1131520D3F868318CBF4FF0010A4FF0000A69D13B
S1131530C3F30724DBB2079404934FF4167B4FF4F0
S11315409665DFF820910191D9F84C60C6F30176D5
S1131550044605A902A8334690465246FFF7E4FC28
S1131560D9F8EC70C7F3012752463B4606A903A8F5
S1131570FFF7DAFC049A0799651B8B1A05FB03F342
S1131580B3FBFBF3D3182CBF01220022994235D3BD
S1131590002A33D1069903980A1A05FB02F2B2FB1A
S11315A0FBF210EB020A2CBF01220022514525D385
S11315B022BB0299059A501A05FB00F5B5FBFBFB0B
S11315C011EB0B0B2CBF012100215A4516D3A9B9ED
S11315D0B8F1000F0ED0D9F85C2022F4FE4222F0BC
S11315E0020242EA0323B4F5E16F1E4A18BF43F036
S11315F00203D365019B7BB9012000E0002009B000
S1131600BDE8F08F1C0EC3F30743079404934FF413
S1131610966B4FF4E16594E730460021FFF702FD35
S11316200028EBD038460121FFF7FCFC0028E5D068
S11316300C4A536ED34538BFD34623F4FF73BBF132
S1131640E70F23F0010328BF4FF0E70BB4F5E16F78
S113165018BF43F0010343EA4B035366CFE700BFCF
S1131660B081E00F00300E403A4B1A6FD96CC907B5
S113167030B402F007020BD5012A57D9132852D9E6
S1131680143813288CBF4FF47F424FF4EE4207E026
S1131690D96CCD073BD4012A51D9DB6C6FF0FF0222
S11316A02C482D4DC36C2D4C23F47F431343C3644A
S11316B0C16C2B88C26CC1F303210131283301EBC7
S11316C0810503EB5303B3FBF5F3013B072B22F036
S11316D0EE6228BF072342F4801242EA0363B4F99E
S11316E00020C364002A10DB036D4C08283204EB8D
S11316F0410102EB520223F07004B2FBF1F3072B19
S113170028BF072344EA0313036530BC7047DB6C2E
S1131710DC0711D5012A0FD827288CBF4FF47F424C
S11317204FF4EE42BCE74FF44C52B9E7DA6CD10700
S113173005D5DB6CDB07EFD46FF0FF02B0E70928B7
S1131740F1D90A3809288CBF4FF47F424FF4EE4296
S1131750A6E700BF00300E40B2000020B400002015
S1131760F8B5404B02229A639B6B03F00F0393423C
S113177002D000252846F8BDC2888688B0F90C70CE
S11317804A2A5AD9B2F5FA7F68D340F6C3139A426B
S11317908CBF4FF040554FF000553249324ACB6C64
S11317A023F0405323F00103002FA8BF43F00103AB
S11317B02B43CB64D1F8EC3043F44073C1F8EC30E4
S11317C0CB6E0446294843F080730680CB661368C9
S11317D0002B34D113680B6F23F0070330460B67DB
S11317E0FFF742FF224B23492589B4F90C20A08836
S11317F01A800D80FFF738FFA37B5BB3012B02D166
S1131800184B1D4A9A65012211466088FFF776FE3F
S113181005460028ADD0134A6078D36B43F4806347
S1131820D363FFF71DFEA37A144AA3F12003B3FA8E
S113183083F35B0913602846F8BD0025ADE7136800
S11318400B6F23F0070343F0040330460B67FFF7E5
S11318500BFFC7E7034B0A4A9A65D4E74FF080555C
S11318609BE700BF00300E408009C643B000002053
S1131870B4000020B2000020372110B79407C643FB
S11318807740205700EB400038B5040104F1804450
S113189004F520440D46FFF73FFB21684D4005F059
S11318A001154D402560BDE83840FFF739BB00BF46
S11318B02DE9F047072A15460446984601F0030926
S11318C09DF820709DF8246032D8FFF725FB244A48
S11318D04FEA850A116804FA0AF40F234C4003FA0C
S11318E00AF31C404C401460FFF71AFBFFF714FB8B
S11318F01C4A116809FA0AF9032389EA010903FA5F
S11319000AF303EA09034B401360FFF709FB164986
S1131910164B29448900012202FA05F5C1F800801A
S1131920C1F88070C3F82454C1F80063BDE8F0879F
S1131930A2F108034FEA830AFFF7EEFA0C4A116892
S113194004FA0AF40F234C4003FA0AF31C404C40F7
S11319501460FFF7E5FAFFF7DFFA064AC9E700BFAC
S113196000A4004008A400408020851000A000408E
S113197004A400400CA40040F0B444004AB1271869
S1131980214D3F0101263D448E40A3B305F1C065BE
S11319902E6025182D0105F18045072905F5204500
S11319A019D88F006E684FF00F0C0CFA07FC26EA6A
S11319B00C0602FA07F73E436E6052B90444124A19
S11319C024010120224400FA01F1C3B902F180622A
S11319D01160F0BC704701F18046083EAF68B60064
S11319E04FF00F0C0CFA06FC27EA0C0702FA06F675
S11319F03E43AE60E1E705F180652E60C9E702F180
S1131A00C062F0BC116070470CA00040F8B50E46EF
S1131A100168054621F440710160144603F0030790
S1131A20FFF77AFA2A6882EA072303F440735340E3
S1131A302B60FFF775FA2EB9124B9D4218D0124B4A
S1131A409D421AD0114B2A68D95D04FB01F373B18E
S1131A506FEAC4042A681C44A119B1FBF3F193078B
S1131A6001F1FF3102D5002908BF01212961F8BD28
S1131A700748FEF755FE0646E4E70648FEF750FE23
S1131A800646DFE700C0004000C40040F028000024
S1131A90008204000092040070B500F10474E400B4
S1131AA04A78631C0D469B000021016482F0010208
S1131AB00649C1631A60AA681AB12B7B6968FFF7EB
S1131AC0A5FFA4002B78236070BD00BFFFFF0700B3
S1131AD0436B9B07FCD411B9022343607047012375
S1131AE04360704730B40C7814B98368DB0729D499
S1131AF04A788D78CB68002A14BF4FF480520022B4
S1131B0035BB53BBCB780BB142F480720B790BB16C
S1131B1042F040024B790BB142F08002CB798D79CF
S1131B20097A1B0143EA85030B43134303603CB169
S1131B308368DA0704D4436B9B07FCD40123436016
S1131B4030BC7047436B9D07FCD402234360CFE74E
S1131B5042F40072002BD5D001E042F4007203611C
S1131B60D0E700BF0A78F0B40AB902234360CB7807
S1131B708D780C7A4F78CE791B0443EA05638D790E
S1131B80234343EA85234C7A002F43EA06238E7AC3
S1131B9014BF40250025002CCC7A43EA050314BF6A
S1131BA080250025002E0E7B43EA050318BF20275D
S1131BB00D7908BF0027002C43EA07034C7914BFB2
S1131BC010210021002E43EA010314BF0821002143
S1131BD0002D43EA010314BF4FF400510021002CEF
S1131BE043EA010314BF4FF0805100210B4300214D
S1131BF0416203600AB101234360F0BC704700BF37
S1131C0070B5044684B01748174DFEF789FD174A8E
S1131C100346A2FB03239B091548012104FB03F49B
S1131C20FEF710FC002302930126CDE900338DF862
S1131C300C30A40A0A23694628468DF802308DF830
S1131C400B608DF80860FFF78DFF6C622B466E60A9
S1131C50596A0029FCD102225A600548FEF7F2FBBA
S1131C6004B070BD4041050000800140D34D6210B6
S1131C700002040070B5502088B00E4DFFF7C0FF7D
S1131C80002601230F220C488DF804304FF47064B1
S1131C9001A98DF805308DF810308DF81C308DF8C1
S1131CA01D30CDE90265CDE9054200F07FF908B0A9
S1131CB070BD00BFDDFB050000C00040F0B50E4E56
S1131CC00E4A87B001240025074604900394304649
S1131CD00094CDE90155F523402100F0C7F9CDE981
S1131CE00347CDE9015500943046F323044A4021CB
S1131CF000F0BCF907B0F0BD00C00040C0000020F7
S1131D00C4000020054B1868C0EB401200EB8200B1
S1131D10000C00221A600638704700BFC000002083
S1131D2070B51B4D8CB000F057FC1C2400F0A2FBD6
S1131D3000F062F800F080F8FFF79CFF00F0CAFBA7
S1131D40144B154A05934FF4E0510023284601949F
S1131D500291012404926946042202268DF801307E
S1131D608DF80C308DF80D308DF800308DF818306A
S1131D700B9207948DF820408DF82840099600F0C6
S1131D80E3FA2146284600F0ADFA0CB070BD00BF5E
S1131D90006004406F12033B0000404008B54FF45C
S1131DA0B070FFF78BFFBDE8084000F0B3BB00BF85
S1131DB000F08ABB00F088BB08B500F085FBFFF794
S1131DC0A1FF1E288CBF024B024B20221A6008BDC3
S1131DD0FCA00046FCA0004408B500F075FB00F030
S1131DE0EFFB1E288CBF024B024B10221A6008BD69
S1131DF0FCA00046FCA0004408B501210B48FEF7F6
S1131E0021FB002211460120FEF758FE0022114654
S1131E101046FEF753FE0A210548FEF7DFFE0121B6
S1131E200448BDE80840FEF70DBB00BF4041050073
S1131E3002001E0030253E0010B5012182B0364854
S1131E40FEF700FB00210520FFF71CFD04221146CC
S1131E5000230520FFF790FD00210520FFF712FD68
S1131E600521084600230422FFF786FD01231A46B4
S1131E7006210520FFF780FD01231A4607210520CE
S1131E800124FFF779FD06221146CDE90044002321
S1131E900520FFF70DFD07221146CDE9004400237C
S1131EA00520FFF705FD1D4A4FF480234FF48061A0
S1131EB0136020462346116004220A21FFF75CFDCB
S1131EC020464FF00111FFF7DDFC234608220B21C9
S1131ED00220FFF751FD234608220A210220FFF7C2
S1131EE04BFD2346204604220721FFF745FD2046EB
S1131EF04FF00111FFF7C6FC2346204608220621B5
S1131F00FFF73AFD234620460822072102B0BDE828
S1131F101040FFF731BD00BF00350A0000E100E0CA
S1131F20054BD3F81C24D3F828140A40C3F82424FE
S1131F30082000F0ABBA00BF00A00040054BD3F866
S1131F401C24D3F828140A40C3F82424162000F0D3
S1131F509DBA00BF00A0004042680169D36910B473
S1131F600C6823430B60446944B905240821022307
S1131F70047051605DF8044B536070471B020B60A2
S1131F8043695DF8044B0421013B51604361704790
S1131F9010B505220446002302700377022000F0E6
S1131FA03BFB206ABDE8104000F070BA70B5294BC5
S1131FB0984284B004460D463BD0274B98423DD00E
S1131FC0636B13F0010F4FF0010329D1A363626B1C
S1131FD0E363D5E901022B7869788DF800308DF838
S1131FE001102B7B01906946204602928DF80C303B
S1131FF0FFF752FDD5E904302E7E6A7E154942EA88
S11320004602626403434FF4F0721448A3648C42A2
S1132010E063226417D0104B9C4204D004B070BD1E
S1132020E363636BD5E70E4B4FF480625A6004B0F0
S113203070BD01210B48FEF705FAC1E701210A48EA
S1132040FEF700FABCE7064B4FF400321A6004B006
S113205070BD00BF00C0004000C40040C0010200C9
S113206000E100E000820400009204002DE9F8433E
S11320700446022098460D4691469DF828709DF826
S11320802C6000F0B9FA264B9C4235D0254B9C427B
S11320901FD0254A0121202311776360216C236C12
S11320A023EA01032364636BE3634020032360603A
S11320B06360636BDB05FCD5636BE36320236360C0
S11320C06D0001200023216460601370E562BDE8A7
S11320D0F8831649087F0028FDD10C9A0A62089AF1
S11320E0104B4A61099A8A618D60C1E903890F77AF
S11320F04E774B600D4ACDE70B490B7F002BFDD18A
S11321000C9A0A62089A064B4A61099A8A618D60A0
S1132110C1E903890F774E774B60034ABAE700BFE2
S113212000C0004000C40040C8000020EC000020B3
S1132130037830B4052B0FD8DFE803F01521320300
S11321402D108369C2684168013BDC00E240836171
S1132150CA620BB90523037030BC7047436802227E
S11321605A6030BC70478269C368447F4168D500B7
S1132170EB40CCB1CB62DAB901230370ECE7D0E9D0
S113218001235B00022443F0010301210470516028
S113219030BCD3627047036900221A6030BC7047B8
S11321A00423037030BC704703220270CB62D3E770
S11321B0013A8261D0E700BF184B10B51C6C5A6B12
S11321C014406106DC6313D4220604F0200303D513
S11321D0134A1178022913D01BB111480378042B38
S11321E017D0E30503D50E480378052B04D010BDA2
S11321F00B48FFF79DFFE7E7BDE81040FFF7C8BEB7
S1132200D2E901235B0043F0010301215160D36251
S113221010BDFFF7A1FEE305E9D5E4E700C00040E7
S1132220C8000020184B10B51C6C5A6B1440610692
S1132230DC6313D4220604F0200303D5134A117877
S1132240022913D01BB111480378042B17D0E305DE
S113225003D50E480378052B04D010BD0B48FFF7B7
S113226067FFE7E7BDE81040FFF792BED2E901231C
S11322705B0043F0010301215160D36210BDFFF7FD
S11322806BFEE305E9D5E4E700C40040EC00002060
S113229038B5104D2C6AEB6A1C40E107AC6212D4CD
S11322A0A20709D4630700D438BD0B4B186800F0AB
S11322B0EDF8084B1B6A38BD084B186800F0E6F8C7
S11322C0044B1B6AEEE7064B186800F0DFF82B6A34
S11322D0E6E700BF0060044018010020140100205C
S11322E01001002010B583680446D80782B011D4C9
S11322F0D9B9A368DB0707D50420019100F08CF954
S11323000199636B002BFCD1204602B0BDE810405C
S1132310FFF7DEBBA368DA07F6D50029ECD0204628
S113232002B0BDE81040FFF7D3BB0420019100F0D8
S113233063F90199636B002BFCD1A368204602B0BA
S1132340BDE81040FFF7C4BB2DE9F041DFF8208160
S1132350CA69414F414B424EC8F800204A6A3A606C
S11323609842CA6A326084B00D4604466ED0002199
S11323702046FFF7B7FF01236360636B002BFCD19A
S11323800223A2686360636B002BFCD101202978CF
S1132390E3608DF80330ADF804308DF808306A78C6
S11323A08DF8020003238DF80110204669468DF84C
S11323B000208DF806308DF80730FFF793FB636B30
S11323C0002BFCD195ED047AD5ED057ADFED256A75
S11323D0697B95F82000D5E9013227EE267A67EE6D
S11323E0A67A1A43BCEEC77A2B7B84ED047AFCEE02
S11323F0E77A43EA4103C4ED057A032162640722C4
S11324002364A161E161A262E26A2B7E95F828103F
S11324101343E362E26A42EA4002E262E36AEA697F
S1132420C8F8002043EA8103E362A368696AEA6AA0
S11324303960DB07326002D5042000F0DDF80A4B76
S11324404FF000621A6004B0BDE8F0810121074832
S1132450FDF7F8FF8BE700BF140100200060044083
S11324601801002000007A4400E100E08006160014
S11324701001002008B5FEF74FFD034B00221A603F
S1132480BDE80840FEF74CBD1C01002010B5044611
S1132490FEF742FD034A13682343BDE8104013606E
S11324A0FEF73EBD1C01002010B50446FEF734FDC6
S11324B0044A136823EA0403BDE810401360FEF7DE
S11324C02FBD00BF1C010020014B1868704700BFDE
S11324D01C01002070B50D4D0D4888B00123062263
S11324E000264FF4C06401A98DF804308DF805303E
S11324F08DF810308DF81C308DF81D30CDE9026553
S1132500CDE90542FFF752FD08B070BDDDFB0500C3
S113251000C400402DE9F041264F274EDFF89C808F
S113252086B00024012502203C60C8F80040FFF773
S113253067FB3A46304643F217537021CDE9034412
S1132540029400940195FFF791FD0220FFF758FBD8
S11325503A46304645F6E0037021CDE90354CDE90F
S113256001540095FFF782FD0220FFF749FB424624
S1132570304647F666037021CDE90354CDE9015492
S11325800095FFF773FD0220FFF73AFB4FF4C07389
S1132590304604930195CDE9024400943A464BF247
S11325A098037021FFF762FD022006B0BDE8F041F8
S11325B0FFF726BB2001002000C4004024010020B6
S11325C0044B19686420002200FB01F01A60000C1F
S11325D0704700BF2001002008B5FEF79DFC054BA5
S11325E00022C3E90022C3E902221A61BDE80840BF
S11325F0FEF796BC2801002010B50446FEF78CFCBB
S1132600044A52F82430013342F82430BDE8104023
S1132610FEF786BC2801002010B50446FEF77CFCBA
S1132620044A52F82430013B42F82430BDE81040FB
S1132630FEF776BC2801002010B5FEF76DFC114BA7
S11326401A68002A044604DD2046BDE81040FEF75F
S113265067BC5A68002AF7DC9A68002A06DD0A4A31
S1132660136923F00403136130BFEDE7DB68002B2B
S11326704FF0010002DDFEF7CDFDE5E7FEF706FEB3
S1132680E2E700BF2801002000ED00E0F0B5584C5F
S1132690584F94E80F008BB0103401AE86E80F0059
S11326A00FCC05AD0FC522682A80534B01227A64F2
S11326B0DB6C1B0E40F09780504951484AF6E852B3
S11326C00A60026842F0040202600B604D4A13681B
S11326D043F4005313604C494C4A0B6A23F44413EB
S11326E043F488130B62136843F4F8431360002423
S11326F0304602258DF800408DF80140FFF730F890
S113270068468DF80150FEF799FE05A8FEF7C6FB52
S11327103F48FEF7EFF8012211460320FEF7CEF9F9
S113272005211120FEF75AFA224621462846FEF7D3
S1132730C5F9FFF7F5FA18E02046FEF7F1FBFFF7BD
S1132740C3FEC10721D4FFF7BFFE820726D4FFF7DB
S1132750BBFE43072BD4FFF7B7FE10F4B07F30D194
S1132760FFF7B2FE10F4C07F36D1FEF7D5FB044666
S1132770FFF7AAFE0028DFD1FFF75EFF2046FEF731
S1132780CFFBFFF7A1FEC107DDD50120FFF78CFECB
S1132790FFF710FBFFF798FE8207D8D50220FFF75A
S11327A083FEFFF705FBFFF78FFE4307D3D5042015
S11327B0FFF77AFEFFF7F2FAFFF786FE10F4B07F18
S11327C0CED04FF4B070FFF76FFEFFF7F5FAFFF7C6
S11327D07BFE10F4C07FC8D04FF4C070FFF764FED6
S11327E0FFF7FAFAC1E7012B7FF475AF6EE700BF7C
S11327F0F428000000000E40B081E00F90310E403C
S113280098310E4064310E4000400E40A4310E4019
S11328100048E80108B5074B044613B10021AFF3A3
S11328200080054B1868836A03B19847204600F07E
S113283031F800BF000000001829000070B50D4EEB
S11328400D4CA41BA4100025A54209D10B4E0C4C21
S113285000F022F8A41BA4100025A54205D170BDE8
S113286056F8253098470135EEE756F82530984755
S11328700135F2E78800002088000020880000204D
S11328808C00002002440346934200D1704703F8B1
S1132890011BF9E7FEE700BFF8B500BFF8BC08BCB0
S11328A09E467047F8B500BFF8BC08BC9E4670470A
S11328B05FF800F0750000200403020B050C000013
S11328C00302010A0302060A40787D0100000000A9
S11328D0005A620200010000C0CF6A00020000003A
S11328E0809FD50002010000002D3101020200008A
S11328F0080911080002080705000A00C8000000C2
S1132900FFFF010001000000A00068010A20070683
S1132910020A040700000000140000200000000068
S10B29202CD8FF7F0100000028
S1132928C0EA2101005A6202C0EA210100800000C5
S1132938C0EA2101000000000000000000000000BF
S1132948000000000000000000000000000000007B
S1132958000000000000000000000000000000006B
S1132968000000000000000000000000000000005B
S1132978000000000000000000000000000000004B
S1132988000000000000000000000000000000003B
S113299800000000034A136843F0004330BF13608B
S11329A8704700BF4C310E40310100000D0100009A
S90301C13A
