S01000004D535F454D5F4C61622E733337E5
S113000000000420C1010000ED010000ED0100002A
S1130010ED010000ED010000ED010000ED01000024
S1130020ED010000ED010000ED010000ED01000014
S1130030ED010000EC010000ED010000ED01000005
S1130040ED010000ED010000ED010000ED010000F4
S1130050ED010000ED010000ED010000ED010000E4
S1130060ED010000ED01000039180000ED01000071
S1130070ED010000ED010000ED010000ED010000C4
S1130080ED010000ED0100001D180000ED0100006D
S1130090ED010000ED010000ED010000ED010000A4
S11300A0ED010000ED010000ED0100005518000015
S11300B0ED010000ED010000ED010000ED01000084
S11300C0ED010000ED010000ED010000ED01000074
S11300D0ED010000ED010000ED010000ED01000064
S11300E0ED010000ED010000ED010000ED01000054
S11300F0ED010000ED010000ED010000ED01000044
S1130100ED010000ED010000ED01000010B5054C0B
S1130110237833B9044B13B10448AFF300800123AF
S1130120237010BD8C00002000000000A01C000003
S113013008B5034B1BB103490348AFF3008008BD66
S11301400000000090000020A01C0000154B002BB4
S113015008BF134B9D46A3F5803A00218B460F46FA
S11301601348144A121A01F051FD0F4B002B00D012
S113017098470E4B002B00D0984700200021040024
S11301800D000D48002802D00C48AFF3008001F0A8
S113019019FD2000290001F093FC01F0FFFC00BFD1
S11301A0000008000000042000000000000000001F
S11301B08C000020E000002000000000000000008F
S11301C0064880470649074A074B9A42BEBF51F882
S11301D0040B42F8040BF8E7FFF7B8FF81020000B4
S11301E0AC1C0000000000208C000020FEE700BFD3
S11301F000487047005A6202114BD3F8943003F060
S11302000703023B032B18D8DFE803F00D02141098
S11302104FF400400A4BD3F80031C3F304230133F5
S1130220B0FBF3F07047074B1868F3E7064B186808
S11302304008EFE7054B1868ECE7034B1868E9E75B
S113024000400E4004000020080000200C000020A4
S113025008B5FFF7D1FF054B054AD3F80831C3F3BE
S113026008230133B0FBF3F0106008BD00400E40DA
S113027000000020014B1868704700BF04000020F4
S1130280044B054A9A60D3F8882042F47002C3F8FC
S11302908820704700ED00E00000000010B4134B0C
S11302A0134A5B680024C9B28C42234608D0013348
S11302B0052B02F1080215D012F8084C8C42F6D135
S11302C052F80C4C8442F2D30A4A02EBC3035B7922
S11302D01A0606495DF8044B4B6823F04073134338
S11302E04B6070474FF04072F3E700BF00000E40D0
S11302F05C1C0000501C0000224B98423AD01AD9D2
S1130300214B98423AD00CD8204B984225D003F583
S1130310371303F5D86398422AD11D4BD3F8A000B4
S113032070471C4B984214D01B4B984220D1184B59
S1130330D3F8B0007047194B984215D011D9184B17
S1130340984211D0174B984212D1114BD3F88C001C
S113035070470F4BD3F8AC0070470D4BD3F89C009B
S11303607047114B984203D1094BD3F88000704772
S113037000207047064BD3F898007047044BD3F81D
S1130380A8007047405DC60080BA8C010024F400C8
S1130390B081E00F0048E80180D5430280841E004C
S11303A000093D00C0CF6A0040420F0038B5074C39
S11303B041F67133256C2364FFF71AFF0021FFF720
S11303C06DFF0DB10023236438BD00BF00000E4053
S11303D00C4A0D4BD2F89010516A21F0300141F0D3
S11303E0100110B45162146BC0F3C31103312340E4
S11303F00F2928BF0F21034343EA017313635DF8F8
S1130400044B704700400E4000F8FF0F38B5054C10
S113041041F67133256C2364FFF740FF0DB10023CF
S1130420236438BD00000E40C0F30323013B30B405
S1130430092B0CD8DFE803F00D110B0B152D190B4C
S11304402705164CC0F3043020448000016030BC02
S11304507047C0F30430124CF6E7C0F30430114C7B
S1130460F2E7C0F30430104CEEE7104CC0F3043054
S113047010250F4BD3F84421D207E5D4D3F84021FB
S11304802A42FBD1E0E7C0F304300A4C4FF4803534
S1130490EFE7C0F30430084C0125EAE7800AF210C4
S11304A00000F2100006F2108005F2104007F2106E
S11304B000400E408007F2100007F21000F00F0019
S11304C00138072847D8DFE800F0121D3346283EDC
S11304D04604264BD3F85C3103F03003202B40D084
S11304E0302B40D0102B0CBF0720012070471F4B2E
S11304F0D3F8943003F00703023B052B2FD81C4A92
S1130500D05C7047194BD3F8803003F00703013BEC
S1130510032B22D8174AD05C7047144BD3F8883089
S113052003F00703013B032B17D8134AD05C704731
S11305300E4BD3F8843003F00703013B032B0CD894
S11305400E4AD05C7047094B1B6F13F0010F14BFA8
S113055009200720704700207047012070470520BC
S11305607047042070470820704700BF00400E40C9
S1130570401C0000481C0000481C00004C1C0000EB
S11305802DE9F0410546FFF7B7FE504B0746112011
S11305901E681D60FFF792FF052800F08B804C4B0E
S11305A01C68002CFCD14B4B9D4266D04A4B9D42AB
S11305B059D04A4B9D4220D01120FFF77FFF0528D8
S11305C024D1474B9D427DD9464901208D428CBFA1
S11305D04FF000714FF08071434B444A1860D2F8D9
S11305E0003123F080730B43B542C2F800310FD9B8
S11305F00121284600F022FD0AE027F0C06747F0F9
S113060080671120FFF75AFF052833D0B542EFD891
S1130610364B11201F61FFF751FF052832D0FFF739
S1130620EBFD2F4B98421CD92E4B012498428CBFD2
S11306304FF000734FF080732B492C4A0C60D2F8B2
S1130640000120F080701843B542C2F8000103D8BD
S11306500121002000F0F2FC1120BDE8F041FFF779
S11306602DBF0023E8E71120FFF728FF052827F016
S1130670C067CBD100200146AEE727F0C06747F042
S11306800077BEE7FFF7E4FD194B1B685B0614D542
S1130690184B194F5968D7F8408041F67133C1F3AC
S11306A001413B64FFF7FAFDB8F1000FB7D0002316
S11306B03B64B4E7FFF77AFE71E7104A1368002B36
S11306C0FCD1E5E72046214686E700BF080000206C
S11306D06028C84380841E0000093D0040420F008A
S11306E00048E8010090D0034000C84300400E4099
S11306F03C300E4000300E4000000E40C800C6439F
S11307000F4B5B6A13F0300F06D0202914D0302928
S113071002D009B10B4A01E04FF440020849D1F874
S1130720903032EA0303FAD1530246BFD1F8A00055
S1130730C0F38020012070474FF40002EEE700BFB1
S113074000400E40FF33E107F8B5042818D8DFE86D
S113075000F03018374D52003F4C1C44A4000021D7
S11307603E4B1D662368002BFCD04AB13A4C3444FE
S1130770A4002368002BFCD0022801D1002948D111
S1130780F8BD80244025062307260029E4D1012052
S1130790984032490C66D1F890300342FBD1002ACC
S11307A0EED001222D49B240D1F890301342FBD152
S11307B0F8BD4FF400744FF4807508230926E4E76C
S11307C0002944D0254B5C6A14F0300F18D1244C16
S11307D0E46B5C6AE40718D55D6A224C25F03005A9
S11307E045F010055D6203260425B9E701252E4670
S11307F002240023C9E72024102504230526C4E786
S1130800184C042503260021AAE7164C04250326C8
S1130810A6E7124A114E516A11F001011FBF2021AF
S11308204FF48063C2F8A8305166FFF769FFD6F829
S11308309C70012200210220FFF786FFC7F30A0003
S1130840FFF7C6FD35662368002BFCD0F8BD0420F5
S1130850082403269DE700BF8004F21000400E40E8
S113086000300E400812C8431128F8B50C460DD0CC
S113087000F00F000138072807D8DFE800F00C6407
S113088066063F5B062904232B60F8BD042900F0AB
S1130890908005295BD00025023C0A2CF5D801A3E1
S11308A053F824F0C90A0000910A0000970A0000D6
S11308B0B10A00008B0800008B0800008B080000C0
S11308C08B0800008B080000070A0000CF0A000014
S11308D04C1E072CD9D801A353F824F0030A0000B6
S11308E08B0800008B080000F50900008B0800004D
S11308F08B080000E7090000D30900007D4D013C8E
S1130900092CC2D801A353F824F000BFAF0900009A
S1130910A1090000930900008B0800008B08000067
S1130920630900008B0800008B0800008B0800009E
S113093087080000072900F0CF800929A5D16E4B54
S113094001221A67F8BD6D4DD9E76D4DD7E76D4AA1
S11309506D4B15689D429ED90021284600F06EFB20
S11309609AE7FFF749FC694B984229D800231C46B3
S11309706749614A0C60D2F8000101F5AE510831B3
S113098020F0807018430124C2F8000103230C6096
S11309907AE7012211461046FFF7D6FE012373E7DA
S11309A0012211460020FFF7CFFE02236CE700234B
S11309B06AE7FFF75FFC054600283FF46CAFCBE71E
S11309C0544B012498428CBF4FF000734FF0807356
S11309D0CEE73021484AD2F85C3123F030030B4390
S11309E0C2F85C31F8BD012211460420FFF7ACFEC9
S11309F01021EFE7012211460220FFF7A5FE202176
S1130A00E8E70021E6E70320052401221146FFF769
S1130A109BFEFFF7CBFC1DB13F4B1B685A0664D508
S1130A20354B5C67FFF714FC0646FFF7E5FB374BD5
S1130A3098424ED9374B012498428CBF4FF0007333
S1130A404FF0807332492C4A0C60D2F800013249CD
S1130A5020F080701843C2F800010B685B063FD594
S1130A602E4B2F4C5968276C41F671333046C1F335
S1130A7001412364FFF712FC0FB100232364002D0E
S1130A807FF403AF28460121BDE8F84000F0D6BA50
S1130A9001200324B9E71E4B174A01211960D2F83B
S1130AA00031022043F08073C2F800310446ACE701
S1130AB0174B114A01241C60D2F8003143F08073B3
S1130AC0C2F800310320A0E7002004249DE7072496
S1130AD09FE700231C46B5E7074B00221A67F8BDC1
S1130AE0104A1368002BFCD1BAE70E4A1368002B96
S1130AF0FCD195E788400E4000400E4080400E40F7
S1130B0084400E4008000020002D31010048E80117
S1130B104000C8430090D0033C300E4000300E40EB
S1130B2000000E40C800C64338B504461120FFF744
S1130B30C5FC012200210220FFF706FE174A257C8E
S1130B40536A1749207823F00103022D08BF43F0AC
S1130B50010353620860A388617AE58841EAC321EE
S1130B60D162136B207AA17A03F07F630B43C11C1B
S1130B7043EAC5230F2943EAC01328BF0F2143EAE0
S1130B8001731363A37B657BE07B217B1B0143EA39
S1130B900533034343EA0143536338BD00400E4029
S1130BA0A004C843EFF3108072B6704700B962B670
S1130BB0704700BF42EA032340F2011293425BD024
S1130BC0B3F5817F14D340F2012293424BD030D944
S1130BD0B3F5407F24D040F2013293423ED12B4BF7
S1130BE0D3F878311A0EC3F3074303600A607047E1
S1130BF0012B2AD00BD3B3F5807F2FD1234BD3F80D
S1130C006C311A0EC3F3074303600A6070471F4B2D
S1130C10D3F86C31C3F30722DBB203600A60704778
S1130C201A4BD3F870311A0EC3F3074303600A60FA
S1130C307047B3F5007F11D1144BD3F87031C3F36F
S1130C400722DBB203600A607047104BD3F874319B
S1130C50C3F30722DBB203600A6070470022134625
S1130C6003600A607047094BD3F87831C3F3072255
S1130C70DBB203600A607047044BD3F874311A0E78
S1130C80C3F3074303600A60704700BFB081E00FFD
S1130C90044B1B69C3F30443082B02D1024B034AE0
S1130CA01A60704700400E4008000020C0EA21018D
S1130CB0154B0228D3F8803122D003281ED00128F6
S1130CC014BFDBB2C3F307231B0323F4704241B9FF
S1130CD092B90E49CA6E22F470421343CB660120C6
S1130CE070474AB90949D1F8EC2022F47042134301
S1130CF0C1F8EC3001207047002070471B0EE3E779
S1130D00C3F30743E0E700BFB081E00F00300E40BB
S1130D100E4B1A6852060FD41B685B0611D50C4B98
S1130D2019685A68C1F30121C2F3014291421A6859
S1130D3003D822F010021A60704742F010021A60C1
S1130D407047044A1368002BFCD1E8E73C300E409E
S1130D5000300E40C800C6430F4A08B50F4BD2F806
S1130D6090201A601120FFF7A9FB0D4B0D4A1B6858
S1130D7010705B060AD50C4B0C485B6806490C4A9C
S1130D80C3F3014303700B69136008BD094A136878
S1130D90002BFCD1EFE700BF00400E40A80000206C
S1130DA03C300E40B200002000300E40B90000205C
S1130DB0B4000020C800C6432E4B1B685B0670B508
S1130DC007D42D4B2D491A781023C2F10202934007
S1130DD00B612B4B2B4DD3F88041264945F60E026F
S1130DE0C3F88021286840F2551202401A660B6845
S1130DF05E0604F0010426D5204B1B68D80617D5DF
S1130E001F4AD2F84031D901FBD41F4E1F4B317811
S1130E101B68136105291BD01120FFF725FD2B68E2
S1130E20DB070CD51CB1164B0022C3F8802170BD22
S1130E30154E31780529EFD12B68DB07F2D4104B1E
S1130E4002221A66EEE7124A1368002BFCD1D3E79C
S1130E50084B104A1B6810685A0606D5074B596898
S1130E60C1F30141FFF7D2FAE3E7094A1368002B03
S1130E70FCD1F3E73C300E40B900002000300E40B6
S1130E8000400E40A8000020B2000020B400002062
S1130E90C800C64308000020704700BF704700BF69
S1130EA010B5044600283ED1FFF732FF1F4BD3F89C
S1130EB080214FF4207145F60E00C3F880011966B5
S1130EC0D10744BF0022C3F88021194A136943F0B3
S1130ED004031361FFF7E0FF164B1B68DA061BD40B
S1130EE030BFFFF7DBFF7CB9124B1B68DB0608D46D
S1130EF0114A136823F000431360BDE81040FFF764
S1130F00A7B9FFF7C5FEF3E7FFF756FF0A4A1368D0
S1130F1023F00043136010BDFFF744FE00F08CFE85
S1130F20FFF744FEDDE7FFF717FFBDE700400E4083
S1130F3000ED00E000300E404C310E40244B1A68A6
S1130F40520622D41B682DE9F0415C061ED5214EC1
S1130F507368C3F30143984215D01F4B0446D3F87A
S1130F6000310D46FFF748F9C4F102071023022CA3
S1130F70804603FA07F71AD037611DB1144B1B687A
S1130F805A061ED56CB1BDE8F0817047134A136848
S1130F90002BFCD10F4E7368C3F301439842DCD19C
S1130FA0F1E721464046BDE8F041FFF72FBA21465C
S1130FB0FFF72CFA3761002DE5D0054B1B685B0663
S1130FC0E1D4064A1368002BFCD1002CDBD1E8E7FE
S1130FD03C300E4000300E4000400E40C800C64376
S1130FE040B1134B1B7813B1124B98421BD900200C
S1130FF0FFF7A4BF10B5104B82B0D3F800410191A4
S1131000FFF7FAF80A4B01991B78C4F3042404FB94
S1131010000013B1074B984208D9002002B0BDE884
S11310201040FFF78BBF0220FFF788BF0220F5E7CF
S1131030B8000020002D310100400E40034B1B6816
S11310405B0601D4FFF7CCBF704700BF3C300E40B5
S1131050064942780B6823F4407343EA0223022AC8
S11310600B6004BF024B5B6A704700BF00300E4048
S113107000400E40244A4AF6E85310B4546B5363BC
S1131080936FDB07FCD4136C13F0030322D01F4AC5
S11310900121834211601AD0032B02D1431E012B7C
S11310A01FD9194A936FDB07FCD4136C164923F03C
S11310B00303034313648B6F13F00103FBD100306C
S11310C0124A18BF0120012C106000D14B635DF857
S11310D0044B70470028E1D10C4B5DF8044B1860B9
S11310E07047094A4FF40023D362936FD907FCD4A5
S11310F0136C054923F0030343F0010313644B6AA3
S11311001A03FCD5CDE700BF00300E40B40AC64335
S11311102DE9F04FA0F5E16489B00023B4F5966F92
S1131120CDE90233CDE90433CDE9063370D8514B10
S1131130B0F5E16FD3F868318CBF4FF0010A4FF07E
S1131140000A69D1C3F30724DBB2079404934FF474
S1131150167B4FF49665DFF820910191D9F84C6025
S1131160C6F30176044605A902A8334690465246C2
S1131170FFF720FDD9F8EC70C7F3012752463B4630
S113118006A903A8FFF716FD049A0799651B8B1A95
S113119005FB03F3B3FBFBF3D3182CBF012200229E
S11311A0994235D3002A33D1069903980A1A05FBCC
S11311B002F2B2FBFBF210EB020A2CBF0122002266
S11311C0514525D322BB0299059A501A05FB00F517
S11311D0B5FBFBFB11EB0B0B2CBF012100215A4586
S11311E016D3A9B9B8F1000F0ED0D9F85C2022F4B7
S11311F0FE4222F0020242EA0323B4F5E16F1E4AE2
S113120018BF43F00203D365019B7BB9012000E0C2
S1131210002009B0BDE8F08F1C0EC3F30743079408
S113122004934FF4966B4FF4E16594E73046002144
S1131230FFF73EFD0028EBD038460121FFF738FDCB
S11312400028E5D00C4A536ED34538BFD34623F467
S1131250FF73BBF1E70F23F0010328BF4FF0E70B47
S1131260B4F5E16F18BF43F0010343EA4B0353663F
S1131270CFE700BFB081E00F00300E403A4B1A6F49
S1131280D96CC90730B402F007020BD5012A57D92B
S1131290132852D9143813288CBF4FF47F424FF4CB
S11312A0EE4207E0D96CCD073BD4012A51D9DB6C5F
S11312B06FF0FF022C482D4DC36C2D4C23F47F435B
S11312C01343C364C16C2B88C26CC1F30321013185
S11312D0283301EB810503EB5303B3FBF5F3013B27
S11312E0072B22F0EE6228BF072342F4801242EA61
S11312F00363B4F90020C364002A10DB036D4C08B7
S1131300283204EB410102EB520223F07004B2FBD9
S1131310F1F3072B28BF072344EA0313036530BC0A
S11313207047DB6CDC0711D5012A0FD827288CBF46
S11313304FF47F424FF4EE42BCE74FF44C52B9E70E
S1131340DA6CD10705D5DB6CDB07EFD46FF0FF0255
S1131350B0E70928F1D90A3809288CBF4FF47F4235
S11313604FF4EE42A6E700BF00300E40AE0000206E
S1131370B0000020F8B5404B02229A639B6B03F047
S11313800F03934202D000252846F8BDC288868800
S1131390B0F90C704A2A5AD9B2F5FA7F68D340F6EC
S11313A0C3139A428CBF4FF040554FF00055324959
S11313B0324ACB6C23F0405323F00103002FA8BF23
S11313C043F001032B43CB64D1F8EC3043F4407376
S11313D0C1F8EC30CB6E0446294843F08073068094
S11313E0CB661368002B34D113680B6F23F007030B
S11313F030460B67FFF742FF224B23492589B4F996
S11314000C20A0881A800D80FFF738FFA37B5BB304
S1131410012B02D1184B1D4A9A650122114660889E
S1131420FFF776FE05460028ADD0134A6078D36BEB
S113143043F48063D363FFF71DFEA37A144AA3F138
S11314402003B3FA83F35B0913602846F8BD002533
S1131450ADE713680B6F23F0070343F00403304632
S11314600B67FFF70BFFC7E7034B0A4A9A65D4E7FC
S11314704FF080559BE700BF00300E408009C64303
S1131480AC000020B0000020AE000020372110B7CF
S11314909407C6437740205700EB400038B5040159
S11314A004F1804404F520440D46FFF77BFB2168DA
S11314B04D4005F001154D402560BDE83840FFF76B
S11314C075BB00BF2DE9F047072A15460446984628
S11314D001F003099DF820709DF8246032D8FFF7CD
S11314E061FB244A4FEA850A116804FA0AF40F23BF
S11314F04C4003FA0AF31C404C401460FFF756FBBF
S1131500FFF750FB1C4A116809FA0AF9032389EA18
S1131510010903FA0AF303EA09034B401360FFF7D6
S113152045FB1649164B29448900012202FA05F5A8
S1131530C1F80080C1F88070C3F82454C1F8006376
S1131540BDE8F087A2F108034FEA830AFFF72AFBFC
S11315500C4A116804FA0AF40F234C4003FA0AF304
S11315601C404C401460FFF721FBFFF71BFB064AAD
S1131570C9E700BF00A4004008A4004080208510F3
S113158000A0004004A400400CA40040F0B44400B7
S11315904AB12718214D3F0101263D448E40A3B393
S11315A005F1C0652E6025182D0105F18045072938
S11315B005F5204519D88F006E684FF00F0C0CFA12
S11315C007FC26EA0C0602FA07F73E436E6052B99E
S11315D00444124A24010120224400FA01F1C3B94F
S11315E002F180621160F0BC704701F18046083E50
S11315F0AF68B6004FF00F0C0CFA06FC27EA0C0794
S113160002FA06F63E43AE60E1E705F180652E601E
S1131610C9E702F1C062F0BC116070470CA0004041
S1131620436B9B07FCD411B9022343607047012329
S11316304360704730B40C7814B98368DB0729D44D
S11316404A788D78CB68002A14BF4FF48052002268
S113165035BB53BBCB780BB142F480720B790BB121
S113166042F040024B790BB142F08002CB798D7984
S1131670097A1B0143EA85030B43134303603CB11E
S11316808368DA0704D4436B9B07FCD401234360CB
S113169030BC7047436B9D07FCD402234360CFE703
S11316A042F40072002BD5D001E042F400720361D1
S11316B0D0E700BF70B58CB000F0D2F9174D00F040
S11316C0B5F900F02FF800F04DF81C2201924FF408
S11316D0E053134902934FF07A5201240023284621
S11316E0049105926946042202268DF801308DF892
S11316F000308DF818300B928DF80C408DF80D40A9
S113170007948DF820408DF82840099600F0FEF8E3
S11317102146284600F0C8F80CB070BD00600440B3
S11317200000404008B501210B48FEF77DFE002271
S113173011460120FFF708F8002211461046FFF772
S113174003F80A210548FFF78FF801210448BDE892
S11317500840FEF769BE00BF4041050002001E00BC
S113176030253E0010B5012182B02A48FEF75CFE08
S113177000210520FFF790FE0422114600230520D6
S1131780FFF704FF00210520FFF786FE0521084628
S113179000230422FFF7FAFE01231A46062105203E
S11317A0FFF7F4FE01231A4607210520FFF7EEFE9A
S11317B04FF001110120FFF76FFE012318460422A8
S11317C00A21FFF7E3FE012308220B210220FFF781
S11317D0DDFE012308220A210220FFF7D7FE01249F
S11317E006221146CDE9004400230520FFF76AFED6
S11317F007221146CDE9004400230520FFF762FECD
S1131800054B4FF480214FF4806219601A6002B0D6
S113181010BD00BF00350A0000E100E0054BD3F81D
S11318201C24D3F828140A40C3F82424082000F008
S113183009B900BF00A00040054BD3F81C24D3F81D
S113184028140A40C3F82424162000F0FBB800BF73
S113185000A0004038B5104D2C6AEB6A1C40E1072B
S1131860AC6212D4A20709D4630700D438BD0B4B71
S1131870186800F0E7F8084B1B6A38BD084B186875
S113188000F0E0F8044B1B6AEEE7064B186800F022
S1131890D9F82B6AE6E700BF00600440C4000020CA
S11318A0C0000020BC00002010B583680446D8079F
S11318B082B011D4D9B9A368DB0707D504200191FC
S11318C000F0EEF80199636B002BFCD1204602B0C6
S11318D0BDE81040FFF7A4BEA368DA07F6D50029D7
S11318E0ECD0204602B0BDE81040FFF799BE0420BA
S11318F0019100F0C5F80199636B002BFCD1A3683A
S1131900204602B0BDE81040FFF78ABE2DE9F04141
S1131910DFF81481CA693E4F3E4B3F4EC8F80020A1
S11319204A6A3A609842CA6A326084B00D460446F4
S113193068D000212046FFF7B7FF01236360636B83
S1131940002BFCD10223A2686360636B002BFCD1E3
S113195001202978E3608DF80330ADF804308DF868
S113196008306A788DF8020003238DF801102046B0
S113197069468DF800208DF806308DF80730FFF7A2
S113198059FE636B002BFCD195ED047AD5ED057AF5
S1131990DFED226A697B95F82000D5E9013227EE54
S11319A0267A67EEA67A1A43BCEEC77A2B7B84EDBF
S11319B0047AFCEEE77A43EA4103C4ED057A032195
S11319C0626407222364A161E161A262E26A2B7E60
S11319D095F828101343E362E26A42EA4002E262A5
S11319E0E36A0F4A43EA81034FF00061E362116046
S11319F0E9696A6AEB6AC8F800103A60336004B0B7
S1131A00BDE8F08101210748FEF70EFD91E700BF14
S1131A10C000002000600440C400002000007A449C
S1131A2000E100E080061600BC00002008B5FFF7C6
S1131A30B9F8034B00221A60BDE80840FFF7B6B8B6
S1131A40C800002010B50446FFF7ACF8034A136839
S1131A502343BDE810401360FFF7A8B8C800002076
S1131A6008B5FFF79FF8054B0022C3E90022C3E93C
S1131A7002221A61BDE80840FFF798B8CC000020A4
S1131A8010B50446FFF78EF8044A52F824300133A7
S1131A9042F82430BDE81040FFF788B8CC0000209D
S1131AA010B50446FFF77EF8044A52F82430013B8F
S1131AB042F82430BDE81040FFF778B8CC0000208D
S1131AC080B52D4C2D4F94E80F008AB0103401AE30
S1131AD086E80F000FCC05AD0FC522682A80284B7D
S1131AE001227A64DB6C1B0E42D1264926484AF651
S1131AF0E8520A60026842F0040202600B60234A62
S1131B00136843F4005313602149224A0B6A23F4F7
S1131B10441343F488130B62136843F4F8431360CB
S1131B200024304602258DF800408DF80140FFF76F
S1131B3021FC68468DF80150FFF78AFA05A8FEF7E4
S1131B40F3FF1548FEF71CFD012211460320FEF7A2
S1131B50FBFD05211120FEF787FE2246214628467B
S1131B60FEF7F2FDFFF7A6FD0120FFF799F9FBE769
S1131B70012BC9D1C3E700BF781C000000000E4050
S1131B80B081E00F90310E4098310E4064310E4028
S1131B9000400E40A4310E400048E80108B5074B50
S1131BA0044613B10021AFF30080054B1868836A23
S1131BB003B19847204600F031F800BF0000000050
S1131BC09C1C000070B50D4E0D4CA41BA4100025E8
S1131BD0A54209D10B4E0C4C00F022F8A41BA41012
S1131BE00025A54205D170BD56F82530984701352A
S1131BF0EEE756F8253098470135F2E784000020D7
S1131C008400002084000020880000200244034651
S1131C10934200D1704703F8011BF9E7FEE700BFC8
S1131C20F8B500BFF8BC08BC9E467047F8B500BFC5
S1131C30F8BC08BC9E4670475FF800F071000020B5
S1131C400403020B050C00000302010A0302060A46
S1131C5040787D0100000000005A6202000100008B
S1131C60C0CF6A0002000000809FD500020100007E
S1131C70002D3101020200000002080705000A00DD
S1131C80C8000000FFFF010001000000A00068017F
S1131C900A200706020A04070000000010000020C2
S1071CA0000000003C
S10B1CA4A8E4FF7F0100000029
S1131CACC0EA2101005A6202C0EA2101008000004E
S1131CBC0000000000000000000000000000000014
S1131CCC0000000000000000000000000000000004
S1131CDC00000000000000000000000000000000F4
S1131CEC00000000000000000000000000000000E4
S1131CFC00000000000000000000000000000000D4
S1131D0C00000000000000000000000000000000C3
S1131D1C034A136843F0004330BF1360704700BF9D
S10F1D2C4C310E40310100000D0100009C
S90301C13A
