S01C0000323337304632325F426C696E6B795F496D706F72742E733337C0
S113000000000420C1010000ED010000ED0100002A
S1130010ED010000ED010000ED010000ED01000024
S1130020ED010000ED010000ED010000ED01000014
S1130030ED010000EC010000ED010000ED01000005
S1130040ED010000ED010000ED010000ED010000F4
S1130050ED010000ED010000ED010000ED010000E4
S1130060ED010000ED010000ED010000ED010000D4
S1130070ED010000ED010000ED010000ED010000C4
S1130080ED010000ED010000ED010000ED010000B4
S1130090ED010000ED010000ED010000ED010000A4
S11300A0ED010000ED010000ED010000ED01000094
S11300B0ED010000ED010000ED010000ED01000084
S11300C0ED010000ED010000ED010000ED01000074
S11300D0ED010000ED010000ED010000ED01000064
S11300E0ED010000ED010000ED010000ED01000054
S11300F0ED010000ED010000ED010000ED01000044
S1130100ED010000ED010000ED01000010B5054C0B
S1130110237833B9044B13B10448AFF300800123AF
S1130120237010BD7800002000000000DC2E0000C9
S113013008B5034B1BB103490348AFF3008008BD66
S1130140000000007C000020DC2E0000154B002B7A
S113015008BF134B9D46A3F5803A00218B460F46FA
S11301601348144A121A02F0FDFC0F4B002B00D066
S113017098470E4B002B00D0984700200021040024
S11301800D000D48002802D00C48AFF3008002F0A7
S1130190C5FC2000290002F039FC02F0ABFC00BFD2
S11301A0000008000000042000000000000000001F
S11301B078000020A00000200000000000000000E3
S11301C0064880470649074A074B9A42BEBF51F882
S11301D0040B42F8040BF8E7FFF7B8FFC102000074
S11301E0E82E00000000002078000020FEE700BF99
S11301F000B583B000F020F801900A4BD3F8083121
S11302001B0AC3F308030093009B0133019AB2FB5A
S1130210F3F30193044A019B1360019B184603B056
S11302205DF804FB00400E4008000020014B184616
S1130230704700BF005A620282B01A4BD3F8943060
S113024003F00703023B032B1BD801A252F823F04F
S113025071020000690200006102000079020000DE
S1130260114B1B68019310E04FF4004301930CE021
S11302700E4B1B68019308E00D4B1B685B08019350
S113028003E00B4B1B68019300BF064BD3F800310E
S11302901B0A03F01F030133019AB2FBF3F3184660
S11302A002B0704700400E4004000020000000200F
S11302B00C000020014B1B6818467047000000200A
S11302C0064B074A9A60054BD3F88830034A43F437
S11302D07003C2F8883000BF704700BF00ED00E033
S11302E00000000082B001900091FEE700B587B0E5
S11302F0039002910192029B1F2B03D9912109487B
S1130300FFF7F0FF039B03F10473DA00029B13442D
S11303109B000593059B019A1A6000BF07B05DF826
S113032004FB00BFF82B000084B001900091019BF6
S113033003F10473DA00009B13449B000393039BB3
S11303401B68184604B07047054B1B6803F0400354
S1130350002B01D1012300E000231846704700BFA1
S11303603C300E4008B5FFF7EFFF034683F001036E
S1130370DBB2002B08D100BF12210448FFF7D4FFE1
S11303800346002BF8D100E000BF08BD04300E4046
S113039008B5FFF7E7FF044B5B681B0C03F003038E
S11303A0DBB2184608BD00BF00300E4000B585B072
S11303B0019001230393019B124A934204D8002322
S11303C003930023029308E0019B0F4A934202D84F
S11303D00123029301E002230293039A10210B48A4
S11303E0FFF784FF094BD3F8003123F08072029B9E
S11303F01B0606491343C1F8003100BF05B05DF880
S113040004FB00BF0048E8010090D00300400E4008
S113041000B585B0019000911F4B5B6803F04073F9
S113042003930023029312E01C4A029BDB00134453
S11304301A79009BDBB29A4206D1184A029B52F801
S11304403330019A9A4206D9029B01330293029BEC
S1130450042BE9D900E000BF029B052B07D103233D
S1130460039341F22A210E48FFF73CFF05E00B4AB3
S1130470029BDB0013445B790393039B1B060393EA
S1130480054B5B6823F040720349039B13434B60A5
S113049000BF05B05DF804FB00000E40D42C000042
S11304A0C02C000000B583B00E4B1B6C002B14BF96
S11304B0012300238DF807300A4B41F671321A6488
S11304C0FFF7B4FE034600211846FFF7A1FF9DF88D
S11304D00730002B02D0034B00221A6400BF03B084
S11304E05DF804FB00000E4000B585B0019000915A
S11304F00D4B1B6C002B14BF012300238DF80F3010
S1130500094B41F671321A6400990198FFF780FF94
S11305109DF80F30002B02D0034B00221A6400BF59
S113052005B05DF804FB00BF00000E4086B00190EA
S11305300F230593019B03330493059B0393039AB1
S1130540049B934228BF13460293029B1B0702930A
S1130550029B184606B07047034B5B6A1B0903F005
S113056003031846704700BF00400E4082B001905C
S1130570054B5B6A23F03002019B1B0102491343C4
S11305804B6200BF02B0704700400E4082B0019041
S1130590094BD3F8443103F00103002B08D100BF09
S11305A0054BD3F84021019B1340002BF8D100E008
S11305B000BF02B0704700BF00400E4000BF70474C
S11305C000BF704700B587B001900B468DF803302B
S11305D000230493019B1B0A03F00F03013B092B27
S11305E032D801A252F823F0110600001D060000C3
S11305F04906000049060000170600002306000013
S11306002D060000490600003706000043060000DE
S11306101B4B05931EE01B4B05931BE01A4B0593E4
S113062018E01A4B05930123049313E0184B059328
S1130630102304930EE0174B05934FF48033049377
S113064008E0154B059305E041F2C7711348FFF725
S113065049FE11E0019B1B0B03F01F030393049B52
S1130660002B02D00498FFF791FF9DF803301A463F
S113067003990598FFF73AFE07B05DF804FB00BF45
S113068000400E40B0400E40C0400E40E0400E40DE
S1130690E8400E40F0400E4050410E40C02C000097
S11306A000B585B0019001238DF80F30019B03F054
S11306B00F030293029B013B072B00F2DF8001A290
S11306C052F823F0E5060000470700007F0700000A
S11306D07D080000CF070000070800007D08000027
S11306E0310800006D4BD3F8943003F00703023B4C
S11306F0052B23D801A252F823F000BF25070000E0
S11307001D070000150700002D0700003D0700002D
S11307103507000002238DF80F3013E003238DF812
S11307200F300FE004238DF80F300BE00B238DF80E
S11307300F3007E00C238DF80F3003E005238DF80C
S11307400F3000BFA3E0554BD3F8803003F007030C
S1130750022B07D0042B09D0012B0BD103238DF8D6
S11307600F300BE002238DF80F3007E00A238DF8D9
S11307700F3003E001238DF80F3000BF87E0474BB3
S1130780D3F8843003F00703013B032B1AD801A2EA
S113079052F823F0A5070000AD070000BD070000D4
S11307A0B507000003238DF80F300FE002238DF806
S11307B00F300BE00A238DF80F3007E006238DF885
S11307C00F3003E001238DF80F3000BF5FE0334B9F
S11307D0D3F8883003F00703022B07D0042B09D089
S11307E0012B0BD103238DF80F300BE002238DF87E
S11307F00F3007E00A238DF80F3003E001238DF852
S11308000F3000BF43E0254B1B6F03F00103002BA7
S113081005D0012B07D109238DF80F3007E00723FA
S11308208DF80F3003E001238DF80F3000BF2EE068
S11308301A4BD3F85C3103F03003102B0DD0102B7E
S113084002D8002B05D014E0202B0AD0302B0CD07A
S11308500FE001238DF80F300FE007238DF80F30E0
S11308600BE004238DF80F3007E008238DF80F30D8
S113087003E001238DF80F3000BF08E000238DF85A
S11308800F3041F617510648FFF72CFD00BF9DF8C5
S11308900F30184605B05DF804FB00BF00400E4061
S11308A0C02C000000B58BB001900B468DF80330CE
S11308B00323099303238DF8233000230693002395
S11308C00593019B112B1BD19DF80330042B03D1FD
S11308D0FFF7F0FC05900CE09DF80330052B08D1E0
S11308E000F0F4F90246BD4B9A4202D900F0EEF949
S11308F00590059B002B03D00021059800F034FEE1
S1130900019B03F00F030493049B013B072B00F2AC
S11309105B8101A252F823F039090000430A000068
S1130920790A0000C90B0000590A00001D0B0000E1
S1130930C90B0000490B00009DF80330023B0A2B51
S113094048D801A252F823F075090000810900007B
S11309508D0900009F090000D5090000D509000099
S1130960D5090000D5090000C9090000B10900003B
S1130970BD0900000423099300238DF823302FE0E0
S11309800323099301238DF8233029E002230993DB
S113099002238DF823309248FFF708FD20E001235D
S11309A0099303238DF823308D48FFF7FFFC17E0EC
S11309B00523099303238DF8233011E007230993BA
S11309C006238DF823300BE041F6D8518548FFF714
S11309D089FCFFE041F6DD518248FFF783FCF9E032
S11309E09DF82330062B06D09DF8233001220121E7
S11309F0184600F0ADFAFFF755FDFFF7DFFD059B44
S1130A00002B01D0FFF7AEFC774A099B5367FFF731
S1130A10EFFB0390FFF710FC03461846FFF7C6FCF4
S1130A20FFF7B6FC034619460398FFF75DFD059BE7
S1130A30002B03D10121002000F096FDFFF7C0FD3B
S1130A40C8E06A4B06939DF80330062B04D141F6A7
S1130A501C616448FFF746FC069B002B01D0069BF3
S1130A6000E0634B06939DF80330062B04D141F656
S1130A702C615C48FFF736FC069B002B01D0069BDB
S1130A8000E05C4B06939DF80330013B092B3BD8F7
S1130A9001A252F823F000BFC10A0000C70A0000F7
S1130AA0D70A0000090B0000090B0000E70A000048
S1130AB0090B0000090B0000090B0000030B0000E8
S1130AC00023079326E001220121002000F040FAD0
S1130AD0022307931EE001220121012000F038FACD
S1130AE00123079316E0FFF7A7FB03461846FFF719
S1130AF05DFC012202214048FFF7F8FB0323079322
S1130B0008E00423079305E041F657613548FFF7F1
S1130B10E9FB5FE0069B079A1A605BE09DF80330EF
S1130B20072B02D0092B04D007E02F4B00221A67B1
S1130B3009E02D4B01221A6705E041F6E1612948DD
S1130B40FFF7D0FB46E045E09DF80330013B072B5F
S1130B5028D801A252F823F0790B0000A50B00005D
S1130B60A50B00008F0B0000A50B0000A50B0000D7
S1130B707F0B00009F0B00000023079318E0012265
S1130B800121042000F0E4F90123079310E001227D
S1130B900121022000F0DCF90223079308E003237B
S1130BA0079305E041F63F710E48FFF79BFB11E008
S1130BB00D4BD3F85C3123F03002079B1B010A492B
S1130BC01343C1F85C3105E042F216010548FFF712
S1130BD089FB00BF0BB05DF804FB00BF002D3101A1
S1130BE00148E801C02C000000400E4080400E4047
S1130BF088400E4084400E40B0400E4082B00190C8
S1130C00019B274A93422FD0254A934210D8254A64
S1130C10934221D0234A934203D8234A93421BD0C0
S1130C203AE0224A934217D0214A934218D033E043
S1130C30204A934224D01F4A934206D81E4A934224
S1130C4016D01E4A934217D026E01D4A93421BD069
S1130C501C4A93421CD01FE01B4BD3F880301CE08D
S1130C60194BD3F88C3018E0174BD3F8983014E0B4
S1130C70154BD3F89C3010E0134BD3F8A0300CE0A4
S1130C80114BD3F8A83008E00F4BD3F8AC3004E094
S1130C900D4BD3F8B03000E00023184602B0704783
S1130CA0405DC60080841E0040420F0000093D00E4
S1130CB0C0CF6A0080BA8C010024F400C0EA21018C
S1130CC00048E80180D54302B081E00F014B1B6866
S1130CD0184670470C00002000B587B001900198B9
S1130CE0FFF78CFF0590059B002B03D0059BB3F108
S1130CF0FF3F04D142F2E1114E48FFF7F3FA4E4BA5
S1130D001B6804934C4A019B13601120FFF7C8FC35
S1130D100346052B03D1FFF7C5FBFFF74FFC00BFCC
S1130D2018214648FFF700FB0346002BF8D1059B2A
S1130D30B3F1FF3F04D142F2F2113E48FFF7D2FA79
S1130D40019B3F4A93420DD03E4A934211D03E4A02
S1130D50934200D012E0059B23F0C06343F080630C
S1130D6005930BE0059B23F0C06343F000730593E8
S1130D7004E0059B23F0C063059300BF1120FFF737
S1130D808FFC0346052B02D10198FFF70FFB019A54
S1130D90049B9A4203D90121019800F0E5FB2B4AF8
S1130DA0059B13611120FFF77BFC0346052B26D11D
S1130DB0FFF71EFA0390039A019B9A4204D942F268
S1130DC01E211C48FFF78EFA1B4B1B68039A9A429C
S1130DD004D942F21F211748FFF784FA164B1B6807
S1130DE0019A9A4204D042F220211248FFF77AFA7B
S1130DF0FFF7CEFA034619460398FFF775FBFFF792
S1130E001BFA03461846FFF7D1FA019A049B9A424B
S1130E1003D80121002000F0A7FB1120FFF740FCBC
S1130E200346052B01D1FFF7CBFB00BF07B05DF8EC
S1130E3004FB00BFC02C00000C00002040410E4009
S1130E4080841E0000093D0040420F0000400E4017
S1130E5010B584B001901120FFF722FC0346042B47
S1130E6004D142F2FF213748FFF73CFA0122002166
S1130E70022000F06DF8019B5B78002B07D1019BE9
S1130E809B78002B03D1019BDB78002B04D042F22A
S1130E903D312C48FFF726FA00230393019B1B7C6A
S1130EA0012B04D142F242312648FFF71BFA019B81
S1130EB01B7C022B01D101230393234B5B6A23F098
S1130EC001022149039B13434B62019B1B781A4681
S1130ED008211E48FFF70AFA019B9B88DB02019A4E
S1130EE0527A1146184A0B43D362174B1B6B03F01B
S1130EF07F62019BDB88DB021343019A927A1A43D7
S1130F00019B1B7ADB0142EA0304019B1B7A18460E
S1130F10FFF70CFB03460C4A23431363019B5B7BE3
S1130F201A03019B9B7B1B011343019AD27B1A4337
S1130F30019B1B7B1B04044913434B6300BF04B098
S1130F4010BD00BFC02C000000400E4024400E40E5
S1130F5000B589B003468DF807300B468DF806308E
S1130F6013468DF805309DF80730042B3BD801A2B9
S1130F7052F823F0D10F0000BF0F00009B0F0000B8
S1130F80890F0000AD0F0000012305930223049391
S1130F9001230793002306932BE0042305930823DE
S1130FA00493032307930223069322E0102305935B
S1130FB020230493052307930423069319E0402375
S1130FC0059380230493072307930623069310E0D5
S1130FD04FF4807305934FF400730493092307932C
S1130FE00823069305E042F264414948FFF77AF981
S1130FF08BE09DF80630002B6AD000238DF80F306B
S11310009DF80730022B1BD1FFF7A6FA0346002BED
S113101016D1404BDB6B03F48063002B04D142F206
S113102073413B48FFF75EF901238DF80F303A4BCB
S11310305B6A03F00103012B02D10120FFF796FA4A
S1131040354A059B136600BF06993448FFF76CF9CF
S11310500346002BF8D09DF80530002B55D000BF77
S113106007992E48FFF760F90346002BF8D09DF846
S11310700730022B49D19DF80F30002B45D0264B69
S11310805B6A03F00103012B05D101222021022018
S113109000F08EF903E00021022000F02DF9022077
S11310A000F03EF80290012200210220FFF750FFD9
S11310B00299022000F074F8174A059B136600BFDA
S11310C007991648FFF730F90346002BF8D01CE0C7
S11310D0114A049B136600BF0F4BD3F890300121D3
S11310E0069A01FA02F21340002BF5D19DF805305F
S11310F0002B0AD000BF084BD3F890300121079A87
S113110001FA02F21340002BF5D109B05DF804FB9B
S1131110C02C000000300E4000400E4090400E40B5
S113112000B585B003468DF807309DF80730013BC4
S1131130032B24D801A252F823F000BF4D11000064
S1131140711100005911000065110000124B1B6A57
S1131150C3F3080303931AE00F4B1B6903F07F03E7
S1131160039314E00C4B9B6903F07F0303930EE09D
S1131170094BD3F89C30C3F30A03039307E000231D
S1131180039342F2F0410548FFF7ACF800BF039B1C
S1131190184605B05DF804FB00400E40C02C00006A
S11311A000B585B0034600918DF807309DF80730EF
S11311B0013B032B00F28D8001A252F823F000BF03
S11311C0D111000085120000111200004B12000022
S11311D0009BB3F5007F04D342F216514248FFF757
S11311E081F8009BC3F30803009300BF1A213F4812
S11311F0FFF79AF80346002BF8D13D4B1B6A23F402
S1131200FF7323F001033A49009A13430B6266E02B
S1131210009B7F2B04D942F223513348FFF762F835
S1131220009B03F07F03009300BF18212F48FFF7B2
S11312307BF80346002BF8D12D4B1B6923F07F026A
S11312402B49009B13430B6149E0009B7F2B04D97E
S113125042F23E512448FFF745F8009B03F07F0318
S1131260009300BF19212148FFF75EF80346002BC5
S1131270F8D11F4B9B6923F07F021D49009B134348
S11312808B612CE01A4BD3F8903003F00403002B4D
S113129004D042F24D511448FFF724F8144B5B6A12
S11312A023F03003124A43F010035362009BDB091E
S11312B003F00F031846FFF739F903900C4B1A6B30
S11312C00C4B1340009A1A430949039B13430B63C5
S11312D005E042F267510448FFF704F800BF00BF7D
S11312E005B05DF804FB00BFC02C000040410E4077
S11312F000400E4000F8FF0F00B585B003460A46D3
S11313008DF8073013468DF806309DF80730022B10
S113131004D042F27F512348FEF7E4FFFFF71CF9A3
S11313200346002B03D14FF4400303931CE09DF8C4
S11313300630202B04D0302B0AD0002B04D00BE035
S11313404FF4000303930FE04FF4400303930BE0C7
S11313504FF44003039307E0134B039342F29A5173
S11313601048FEF7BFFF00BF00BF104BD3F890201A
S1131370039B1340039A9A42F7D1039B03F480031F
S1131380002B0AD0094BD3F8A03003F48063002B60
S113139014BF01230023DBB200E00123184605B08B
S11313A05DF804FBC02C0000FF33E10700400E4051
S11313B000B583B003468DF807300B468DF8063030
S11313C013468DF805309DF80730022B1AD19DF88D
S11313D00630002B08D0114B4FF48062C3F8A820CC
S11313E00E4A9DF8063053669DF80530002B0FD049
S11313F09DF806209DF8073011461846FFF77CFF3C
S1131400034607E042F2D0510548FEF76BFF00E0C7
S113141000BF0123184603B05DF804FB00400E40F2
S1131420C02C000082B0EFF310830093009B019363
S113143072B6019B184602B0704782B00190019BBE
S1131440002B00D162B600BF02B0704700B587B070
S1131450039002910192029B1F2B03D99121094809
S1131460FEF740FF039B03F10473DA00029B13446D
S11314709B000593059B019A1A6000BF07B05DF8B5
S113148004FB00BFFC2C000084B001900091019B80
S113149003F10473DA00009B13449B000393039B42
S11314A01B68184604B07047054B1B6803F04003E3
S11314B0002B01D1012300E000231846704700BF30
S11314C03C300E4008B5FFF7EFFF034683F00103FD
S11314D0DBB2002B08D100BF12210448FFF7D4FF70
S11314E00346002BF8D100E000BF08BD04300E40D5
S11314F008B5FFF7E7FF044B5B681B0C03F003031D
S1131500DBB2184608BD00BF00300E4082B0019027
S1131510024A019BD36200BF02B0704700300E4004
S1131520014B5B6A1846704700300E40024B0022A4
S11315305A6300BF704700BF00300E40024B4AF6AA
S1131540E8525A6300BF704700300E4082B0034631
S11315508DF807309DF80730C3F10203102202FA18
S113156003F3184602B0704700B585B001900B46EE
S11315708DF80330FFF798FF034683F00103DBB2D5
S1131580002B2AD1019B002B0FD1164BD3F800312D
S11315901B0A03F01F0301330293FEF74DFE0246BC
S11315A0029B02FB03F3039301E0019B03930E4BA5
S11315B01B78002B0AD0039B0C4A934206D89DF853
S11315C003301946022000F013F807E09DF80330B9
S11315D01946002000F00CF800E000BF05B05DF8EB
S11315E004FB00BF00400E409C000020002D310190
S11315F010B586B003460A468DF8073013468DF8B9
S11316000630FFF751FF034683F00103DBB2002BE2
S11316103FD1FFF76DFF03461A469DF8073093420A
S113162039D01E4BD3F800311B0A03F01F030133DA
S11316300593FEF701FE0490049B059A02FB03F355
S113164003939DF80730022B0CD1039B144A934259
S113165004D940F2DC511348FEF744FE02210498F9
S1131660FEF742FF104C9DF807301846FFF76EFF57
S1131670034623619DF80630002B01D0FFF722FFBB
S11316809DF80730002B07D100210498FEF72CFFAA
S113169002E000BF00E000BF06B010BD00400E40F5
S11316A0002D3101602D000000300E4000B583B0E4
S11316B001900E4B1B6823F44072019B5B781B0264
S11316C00A4913430B60019B5B78022B0AD1084B38
S11316D05B6A03F00053002B04D04FF4C361054848
S11316E0FEF700FE00BF03B05DF804FB00300E40BF
S11316F000400E40602D0000012318467047000092
S113170000B583B00C4BDB6E0B4A43F08073D36699
S113171000210A48FFF7B8FE0190019B002B03D07B
S1131720042000F059FD02E0002000F055FD00BF48
S113173003B05DF804FB00BF00300E404C300E4097
S113174000B58BB001230993099B1B050893424BF9
S1131750DB6C1B0A03F00F030793404B1B881A46EC
S11317603E4B1B8828335B08134403F12801079B75
S11317705A1C13469B001344B1FBF3F3013B06933D
S1131780069B059307230493049A059B934228BF61
S113179013460693069B1B060693069B23F0E06301
S11317A0002B04D040F634012D48FEF79BFD089B26
S11317B023F4E003002B04D040F635012848FEF75B
S11317C091FD254BDB6C23F0EE620699089B0B43DD
S11317D021491343CB64234BB3F90030002B36DB90
S11317E0204BB3F90030ADF80E30BDF80E20BDF833
S11317F00E3028335B08134403F12802079B01339E
S11318005900079B01335B080B44B2FBF3F30293CB
S1131810029B019307230093009A019B934228BFE4
S113182013460293029B1B010293029B23F0700355
S1131830002B04D040F64D010948FEF753FD064B3A
S11318401B6D23F070020449029B13430B6500BF18
S11318500BB05DF804FB00BF00300E409400002084
S1131860602D00009800002082B001900B46ADF876
S11318700230019B9AB2044B1A80044ABDF802302C
S1131880138000BF02B0704794000020980000202D
S113189000B583B003468DF807309DF80730002B60
S11318A002D0012B04D007E0084B094A9A6509E0ED
S11318B0064B084A9A6505E040F679010648FEF7AA
S11318C011FD00BF00BF03B05DF804FB00300E4003
S11318D077402057372110B7602D000000B585B040
S11318E003468DF807300B468DF8063013468DF805
S11318F00530344BD3F8803103939DF80630032B25
S11319001CD801A252F823F0191900002119000073
S11319102B19000035190000039BDBB2039314E07C
S1131920039B1B0ADBB203930FE0039B1B0CDBB28C
S113193003930AE0039B1B0E039306E040F6BD01EC
S11319402148FEF7CFFC002338E09DF80530002B3A
S113195016D1039B1B030393039B23F47043002BB7
S113196006D040F6C8011848FEF7BCFC002325E069
S1131970164BDB6E23F470421449039B1343CB666E
S11319809DF80530012B18D1039B1B030393039B84
S113199023F47043002B06D040F6D4010A48FEF726
S11319A0A1FC00230AE0094BD3F8EC3023F4704285
S11319B00649039B1343C1F8EC300123184605B0D4
S11319C05DF804FBB081E00F602D000000300E4094
S11319D000B589B00390029111461A460B468DF862
S11319E0073013468DF8063000230793002306932F
S11319F09DF806301B029DF80720002A01D0012221
S1131A0000E0002213430593059B40F20112934228
S1131A102AD0B3F5817F07D2012B19D0012B47D3EC
S1131A20B3F5807F50D073E040F20122934227D077
S1131A3040F20122934203D8B3F5007F50D067E00F
S1131A40B3F5407F58D040F20132934224D05FE096
S1131A50374BD3F874310793079B1B0ADBB2069309
S1131A60079BDBB2079359E0314BD3F874310793EA
S1131A70079B1B0E0693079B1B0CDBB207934DE0E1
S1131A802B4BD3F878310793079B1B0ADBB20693E1
S1131A90079BDBB2079341E0254BD3F878310793DA
S1131AA0079B1B0E0693079B1B0CDBB2079335E0C9
S1131AB01F4BD3F86C310793079B1B0ADBB20693C9
S1131AC0079BDBB2079329E0194BD3F86C310793DA
S1131AD0079B1B0E0693079B1B0CDBB207931DE0B1
S1131AE0134BD3F870310793079B1B0ADBB20693A1
S1131AF0079BDBB2079311E00D4BD3F870310793CA
S1131B00079B1B0E0693079B1B0CDBB2079305E098
S1131B1040F639110748FEF7E5FB00BF039B079A1F
S1131B201A60029B069A1A6000BF09B05DF804FBB4
S1131B30B081E00F602D000000B585B003468DF83C
S1131B400730424B5B6B012B0CBF012300238DF844
S1131B500F30FFF7F3FC00BF3C4B9B6F03F0010316
S1131B60002BF9D1394B1B6C03F003030293029B46
S1131B70002B04D001220D213548FFF767FC029B9E
S1131B80DBB29DF807209A4209D19DF80730002B5B
S1131B9058D100220D212E48FFF758FC52E0029B39
S1131BA0032B02D0029B002B22D19DF80730022B7D
S1131BB003D09DF80730012B1AD14FF40020FFF712
S1131BC0A5FC00BF214B9B6F03F00103002BF9D14F
S1131BD01E4B1B6C23F003031C4A43F001031364E4
S1131BE000BFFFF79DFC034603F40023002BF8D04D
S1131BF000BF164B9B6F03F00103002BF9D1134B6D
S1131C001B6C23F003029DF80730104913430B6447
S1131C1000BF0E4B9B6F03F00103002BF9D19DF81D
S1131C200730002B14BF01230023DBB21A460D2119
S1131C300748FFF70BFC9DF80F30002B03D0FFF78C
S1131C4075FC00E000BF05B05DF804FB00300E40F9
S1131C5054300E4000B585B001906C4B02229A635B
S1131C606A4B9B6B03F00F03022B06D040F6F61170
S1131C706748FEF737FB0023C3E0FFF73DFD019BF8
S1131C801B89C82B04D94FF420616148FEF72AFB55
S1131C90019B9A88019B1B899A4204D940F6012131
S1131CA05B48FEF71FFB019BB3F90C30C82B04DD26
S1131CB040F602215648FEF715FB019B5B78012B89
S1131CC009D1019B9B88C82B12D940F606215048A4
S1131CD0FEF708FB0CE0019B5B78022B08D1019B0B
S1131CE09B880A2B04D940F60B214948FEF7FAFADF
S1131CF0019BDB8842F21072934204D940F613210F
S1131D004348FEF7EFFA019BDB884A2B02D80023F5
S1131D10039315E0019BDB88B3F5FA7F03D24FF000
S1131D20805303930CE0019BDB8840F6C31293427B
S1131D3003D84FF00053039302E04FF04053039352
S1131D40324BDB6C23F0405323F00103019AB2F9C8
S1131D500C20002A01DB012100E00021039A0A4340
S1131D602A491343CB64294BD3F8EC30274A43F474
S1131D704073C2F8EC30019B9A88264B1A80FFF717
S1131D80BFFC019B1B891A46019BB3F90C30194611
S1131D901046FFF769FD019B9B88184600F0AAF9DD
S1131DA0019B9B7B1846FFF773FD019B5B88012217
S1131DB00121184600F032F8034683F00103DBB238
S1131DC0002B06D040F64A211148FEF78BFA002377
S1131DD017E00E4BDB6B0D4A43F48063D363019B26
S1131DE05B781846FFF7A8FE019B9B7A202B01D154
S1131DF0012300E000231A4605210748FFF726FBCC
S1131E000123184605B05DF804FB00BF00300E4006
S1131E10602D0000960000203C300E4010B594B0B8
S1131E2001900B468DF8033013468DF802300023E1
S1131E3013930023119309AB00221A605A609A602D
S1131E4006AB00221A605A609A6003AB00221A6043
S1131E505A609A6002AB00210A461A800A469A70B8
S1131E60019BB3F5E16F06D3019B40F6B832934270
S1131E7001D8012300E000238DF843309DF843305E
S1131E8003F001038DF843309DF8433083F00103E0
S1131E90DBB2002B06D040F699219348FEF722FAD4
S1131EA000231DE1019BB3F5E16F8CBF01230023E7
S1131EB08DF842309DF84230002B0AD04FF4E16394
S1131EC0139340F6B8331193119A139BD31A1293B8
S1131ED009E04FF4966313934FF4E1631193119A5D
S1131EE0139BD31A12939DF84230002B0BD07F4BD7
S1131EF0D3F868310893089B1B0E0593089B1B0CB1
S1131F00DBB208930AE0794BD3F868310893089B55
S1131F101B0ADBB20593089BDBB20893744BDB6CA2
S1131F201B0FDBB203F00303DBB28DF808309DF81E
S1131F3008309DF8422003A906A8FFF749FD6C4B21
S1131F40D3F8EC301B0ADBB203F00303DBB28DF8E9
S1131F5009309DF809409DF8422003AB191D06ABDA
S1131F60181D2346FFF734FD019A139BD31A0599D4
S1131F70089A8A1A02FB03F2129BB2FBF3F30B9347
S1131F800B9A089B13440B93019A139BD31A03993E
S1131F90069A8A1A02FB03F2129BB2FBF3F309932B
S1131FA0099A069B13440993019A139BD31A049923
S1131FB0079A8A1A02FB03F2129BB2FBF3F30A9309
S1131FC00A9A079B13440A930B9A059B9A4213D8C7
S1131FD00B9A089B9A420FD30A9A049B9A420BD8F5
S1131FE00A9A079B9A4207D3099A039B9A4203D8F9
S1131FF0099A069B9A4206D240F6E7213A48FEF730
S113200071F900236CE09DF80230002B12D0384B9C
S1132010DB6D23F4FE4323F002030B9A12021343F5
S11320209DF84220002A01D0022200E0002230491B
S11320301343CB659DF80330002B50D09DF8081056
S11320409DF8423000221846FFF748FC034683F00F
S11320500103DBB2002B06D040F6F6212248FEF73E
S113206041F900233CE09DF809109DF8423001221B
S11320701846FFF733FC034683F00103DBB2002B61
S113208006D040F6FE211848FEF72CF9002327E07D
S1132090099B0F930A9B0E930E9A0F9B934238BF92
S11320A013460993099B0D93E7230C930C9A0D9BFC
S11320B0934228BF134609930D4B5B6E23F4FF73C1
S11320C023F00103099A520013439DF84220002A89
S11320D001D0012200E00022054913434B6601238D
S11320E0184614B010BD00BF602D0000B081E00F91
S11320F000300E4000B585B0019000230393344BAB
S11321001B6F03F007030293314BDB6C03F00103F5
S1132110002B14D0029B012B11D9019B132B02D845
S1132120042303933DE0019B132B05D9019B272B2B
S113213002D80823039334E01023039331E0244BA3
S1132140DB6C03F00103002B14D1029B012B11D88B
S1132150019B092B02D80423039322E0019B092B42
S113216005D9019B132B02D80823039319E01023EC
S1132170039316E0164BDB6C03F00103002B0BD02A
S1132180029B012B08D8019B272B02D80823039319
S113219007E01023039304E040F63C310D48FEF7BA
S11321A0A1F8039B013B0393039B1A02039B1B03AC
S11321B013430393064BDB6C23F47F420449039BD4
S11321C01343CB64FFF7BCFA00BF05B05DF804FB12
S11321D000300E40602D000000B585B003468DF838
S11321E0073000211248FFF74FF90390039B002B9F
S11321F003D19DF80730012B07D9039B002B04D191
S113220040F65B310B48FEF76DF80B4B1B6F23F068
S113221007029DF80730084913430B67074B1B88D7
S11322201846FFF767FF00BF05B05DF804FB00BF69
S11322304C300E40602D000000300E40960000200F
S113224084B001900091019B03F1C0630393039B4D
S1132250009A1A6000BF04B0704784B001900091E6
S1132260019B03F180630393039B009A1A6000BFF0
S113227004B0704700B587B0039002910192FFF754
S1132280D1F80590039B1A68029BDB431A4001991D
S1132290029B0B401A43039B1A600598FFF7CDF885
S11322A000BF07B05DF804FB00B583B0034600919E
S11322B08DF807309DF80730002B42D09DF8073089
S11322C0012B3BD09DF80730022B34D09DF807300A
S11322D0032B2DD09DF80730042B27D09DF8073011
S11322E0052B20D09DF80730062B1AD09DF8073017
S11322F0072B14D09DF80730082B0ED09DF807301B
S1132300092B07D09DF807300A2B01D107231AE0C7
S1132310002318E04FF4404315E00F2313E000239B
S113232011E000230FE04FF6FF730CE000230AE0F6
S11323304FF47F4307E040F6FF7304E04FF6C073A9
S113234001E040F2FF33009AD34003F00103002B75
S113235004D14FF479710D48FDF7C4FF9DF80720AF
S113236013465B0013441B010C3303F1804303F554
S113237020430121009A01FA02F211461846FFF7A0
S11323806CFF00BF03B05DF804FB00BFD82D000054
S113239000B583B0034600918DF807309DF80730EF
S11323A0002B42D09DF80730012B3BD09DF807301D
S11323B0022B34D09DF80730032B2DD09DF8073025
S11323C0042B27D09DF80730052B20D09DF807302B
S11323D0062B1AD09DF80730072B14D09DF8073030
S11323E0082B0ED09DF80730092B07D09DF8073035
S11323F00A2B01D107231AE0002318E04FF44043CD
S113240015E00F2313E0002311E000230FE04FF643
S1132410FF730CE000230AE04FF47F4307E040F62B
S1132420FF7304E04FF6C07301E040F2FF33009AFB
S1132430D34003F00103002B04D140F213410D48B3
S1132440FDF750FF9DF8072013465B0013441B0162
S11324500C3303F1804303F520430121009A01FA70
S113246002F211461846FFF7EBFE00BF03B05DF819
S113247004FB00BFD82D000000B583B003460091D3
S11324808DF807309DF80730002B27D09DF80730D2
S1132490012B23D09DF80730022B1FD09DF8073065
S11324A0032B1BD09DF80730042B1CD09DF807305C
S11324B0052B13D09DF80730062B14D09DF8073058
S11324C0072B10D09DF80730082B07D09DF8073054
S11324D0092B03D09DF807300A2B04D1009B23F06D
S11324E00113002B03D07D210B48FDF7FBFE9DF863
S11324F0072013465B0013441B0103F1804303F5DB
S11325002043009A4FF001111846FFF7B3FE00BFB5
S113251003B05DF804FB00BF3C2E000000B585B09D
S11325200291019303468DF80F3013468DF80E3057
S11325309DF80F30002B42D09DF80F30012B3BD07B
S11325409DF80F30022B34D09DF80F30032B2DD083
S11325509DF80F30042B27D09DF80F30052B20D089
S11325609DF80F30062B1AD09DF80F30072B14D08E
S11325709DF80F30082B0ED09DF80F30092B07D093
S11325809DF80F300A2B01D107231AE0002318E02D
S11325904FF4404315E00F2313E0002311E0002320
S11325A00FE04FF6FF730CE000230AE04FF47F4383
S11325B007E040F6FF7304E04FF6C07301E040F219
S11325C0FF33029AD34003F00103002B04D140F2FD
S11325D01D113F48FDF786FE9DF80E30002B0FD0ED
S11325E0019B002B06D09DF80F3002991846FFF787
S11325F0CFFE05E09DF80F3002991846FFF754FE10
S1132600029B072B23D833499DF80F2013465B0008
S113261013441B010B4404331A68029B9B000F21D3
S113262001FA03F3DB4313409DF80E10029A920063
S113263001FA02F2114627489DF80F201943134668
S11326405B0013441B0103440433196028E021494F
S11326509DF80F2013465B0013441B010B44083301
S11326601A68029B03F18043083B9B000F2101FA87
S113267003F3DB4302EA03019DF80E20029B03F1FE
S11326808043083B9B0002FA03F312489DF80F2095
S1132690194313465B0013441B01034408331960B8
S11326A09DF80E30002B0FD1019B002B06D09DF816
S11326B00F3002991846FFF76BFE05E09DF80F30C6
S11326C002991846FFF7F0FD00BF05B05DF804FB62
S11326D03C2E000000A0004008B500F005F800F012
S11326E02DF800BF08BD000008B505211120FEF734
S11326F0D9F801210D48FDF765FF002200210120D2
S1132700FEF726FC002200210020FEF721FC0A210E
S11327100748FEF7C7F801210648FDF753FF0121DA
S11327200548FDF74FFF00BF08BD00BF404105004D
S113273002001E0030253E0000350A0008B54FF0A7
S113274001110520FFF798FE00230422042105202F
S1132750FFF7E4FE4FF001110520FFF78DFE002383
S1132760042205210520FFF7D9FE00BF08BD0000A3
S1132770024BDB6C1B0EDBB218467047B081E00FD6
S113278084B001900091019B03F1C0630393039B08
S1132790009A1A6000BF04B0704784B001900091A1
S11327A0019B03F180630393039B009A1A6000BFAB
S11327B004B0704700B583B0034600918DF807302C
S11327C09DF80730002B42D09DF80730012B3BD0F9
S11327D09DF80730022B34D09DF80730032B2DD001
S11327E09DF80730042B27D09DF80730052B20D007
S11327F09DF80730062B1AD09DF80730072B14D00C
S11328009DF80730082B0ED09DF80730092B07D010
S11328109DF807300A2B01D107231AE0002318E0A2
S11328204FF4404315E00F2313E0002311E000238D
S11328300FE04FF6FF730CE000230AE04FF47F43F0
S113284007E040F6FF7304E04FF6C07301E040F286
S1132850FF33009AD34003F00103002B04D14FF45B
S113286079710D48FDF73EFD9DF8072013465B0086
S113287013441B010C3303F1804303F5204301216E
S1132880009A01FA02F211461846FFF786FF00BFCC
S113289003B05DF804FB00BF502E000000B583B008
S11328A0034600918DF807309DF80730002B42D085
S11328B09DF80730012B3BD09DF80730022B34D014
S11328C09DF80730032B2DD09DF80730042B27D01B
S11328D09DF80730052B20D09DF80730062B1AD021
S11328E09DF80730072B14D09DF80730082B0ED025
S11328F09DF80730092B07D09DF807300A2B01D12A
S113290007231AE0002318E04FF4404315E00F2397
S113291013E0002311E000230FE04FF6FF730CE0F7
S113292000230AE04FF47F4307E040F6FF7304E01E
S11329304FF6C07301E040F2FF33009AD34003F036
S11329400103002B04D140F213410D48FDF7CAFCEA
S11329509DF8072013465B0013441B010C3303F15D
S1132960804303F520430121009A01FA02F2114643
S11329701846FFF705FF00BF03B05DF804FB00BF76
S1132980502E000000B583B01A4B01225A64FFF7A1
S1132990EFFE03468DF807309DF80730002B0CD16D
S11329A0154B4AF6E8521A60144B1B68134A43F05D
S11329B004031360104B00221A609DF80730012BAA
S11329C005D80F4B1B680E4A43F4005313600D4B9C
S11329D01B6A23F444130B4A43F4881313620A4B0F
S11329E01B68094A43F4F843136000BF03B05DF861
S11329F004FB00BF00000E4090310E4098310E40A1
S1132A0064310E4000400E40A4310E4030B58FB00A
S1132A10324B07AC0FCB84E80F00314B02AC1D46A0
S1132A200FCD0FC42B682380FFF7ACFF2D48FEF7B2
S1132A3053F900238DF8043000238DF8053007ABDB
S1132A401846FFF707F902238DF8053001AB184645
S1132A50FEF72CFE02AB1846FEF7FAF9012201211B
S1132A600320FEF775FA05211120FDF71BFF002254
S1132A7000210220FEF76CFAFFF72EFE00230D93CF
S1132A8002E00D9B01330D930D9B174A9342F8DD31
S1132A9004210520FFF78EFE00230C9302E00C9B1B
S1132AA001330C930C9B114A9342F8DD0521052058
S1132AB0FFF780FE00230B9302E00B9B01330B9383
S1132AC00B9B0B4A9342F8DD04210520FFF7E6FE39
S1132AD005210520FFF7E2FED0E700BFB42E000079
S1132AE0C42E000080D543028FD003002F57050069
S1132AF09F25260008B5074B044613B10021AFF308
S1132B000080054B1868836A03B19847204600F09B
S1132B1031F800BF00000000D82E000070B50D4E43
S1132B200D4CA41BA4100025A54209D10B4E0C4C3E
S1132B3000F022F8A41BA4100025A54205D170BD05
S1132B4056F8253098470135EEE756F82530984772
S1132B500135F2E7700000207000002070000020B2
S1132B607400002002440346934200D1704703F8E6
S1132B70011BF9E7FEE700BFF8B500BFF8BC08BCCD
S1132B809E467047F8B500BFF8BC08BC9E46704727
S1132B90633A5C73696C69636F6E6C6162735C73D6
S1132BA0696D706C696369747973747564696F5C59
S1132BB076355C646576656C6F7065725C73646BA6
S1132BC0735C6765636B6F5F73646B5F7375697464
S1132BD0655C76332E325C706C6174666F726D5C0A
S1132BE0656D6C69625C696E635C656D5F636F6D76
S1132BF06D6F6E2E68000000633A5C73696C6963E4
S1132C006F6E6C6162735C73696D706C6963697417
S1132C107973747564696F5C76355C646576656C2C
S1132C206F7065725C73646B735C6765636B6F5F15
S1132C3073646B5F73756974655C76332E325C7094
S1132C406C6174666F726D5C656D6C69625C696EF3
S1132C50635C656D5F6275732E680000633A5C7334
S1132C60696C69636F6E6C6162735C73696D706CBF
S1132C70696369747973747564696F5C76355C64CF
S1132C806576656C6F7065725C73646B735C6765A5
S1132C90636B6F5F73646B5F73756974655C7633C4
S1132CA02E325C706C6174666F726D5C656D6C69FC
S1132CB0625C696E635C656D5F636D752E680000B0
S1132CC02E2E2F656D6C69622F656D5F636D752E99
S1132CD06300000040787D0100000000005A620299
S1132CE000010000C0CF6A0002000000809FD500F0
S1132CF002010000002D310102020000633A5C73FE
S1132D00696C69636F6E6C6162735C73696D706C1E
S1132D10696369747973747564696F5C76355C642E
S1132D206576656C6F7065725C73646B735C676504
S1132D30636B6F5F73646B5F73756974655C763323
S1132D402E325C706C6174666F726D5C656D6C695B
S1132D50625C696E635C656D5F6275732E6800000A
S1132D602E2E2F656D6C69622F656D5F656D752EF6
S1132D7063000000633A5C73696C69636F6E6C6135
S1132D8062735C73696D706C69636974797374756B
S1132D9064696F5C76355C646576656C6F706572CA
S1132DA05C73646B735C6765636B6F5F73646B5FA9
S1132DB073756974655C76332E325C706C6174660D
S1132DC06F726D5C656D6C69625C696E635C656D88
S1132DD05F6275732E680000633A5C73696C6963A3
S1132DE06F6E6C6162735C73696D706C6963697436
S1132DF07973747564696F5C76355C646576656C4B
S1132E006F7065725C73646B735C6765636B6F5F33
S1132E1073646B5F73756974655C76332E325C70B2
S1132E206C6174666F726D5C656D6C69625C696E11
S1132E30635C656D5F6770696F2E68002E2E2F6569
S1132E406D6C69622F656D5F6770696F2E6300003A
S1132E50633A5C73696C69636F6E6C6162735C7313
S1132E60696D706C696369747973747564696F5C96
S1132E7076355C646576656C6F7065725C73646BE3
S1132E80735C6765636B6F5F73646B5F73756974A1
S1132E90655C76332E325C706C6174666F726D5C47
S1132EA0656D6C69625C696E635C656D5F677069B2
S1132EB06F2E68000002080705000A00C800000021
S1132EC0FFFF010001000000A00068010A200706BE
S1132ED0020A0407000000001000002000000000A7
S10B2EE06CD2FF7F0100000029
S1132EE8005A620200800000C0EA2101C0EA210100
S1132EF800000000000000000000000000000000C6
S1132F0800000000000000000000000000000000B5
S1132F1800000000000000000000000000000000A5
S1132F280000000000000000000000000000000095
S1132F380000000000000000000000000000000085
S1132F480000000000000000000000000000000075
S10B2F58310100000D0100002D
S90301C13A
